:020000040800F2
:1000000060060020490100086B28000885240008CC
:100010006928000821080008D1320008000000000B
:10002000000000000000000000000000DB280008C5
:100030004D08000800000000D9280008DD2800084D
:100040006301000863010008630100086301000800
:1000500063010008630100086301000863010008F0
:1000600063010008630100086301000863010008E0
:1000700063010008630100086301000863010008D0
:100080006301000863010008D1060008630100084D
:100090006301000863010008630100087508000897
:1000A00063010008630100086301000863010008A0
:1000B0006301000863010008630100086301000890
:1000C0006301000863010008630100086301000880
:1000D000630100086301000863010008C5320008DD
:1000E0004F0800086301000863010008630100086D
:1000F0006301000863010008630100086301000850
:10010000630100086301000863010008630100083F
:10011000630100086301000863010008630100082F
:10012000630100086301000863010008630100081F
:10013000DFF810D000F03CFA00480047D93B000837
:10014000AFF300806006002006488047064800475D
:10015000FEE7FEE7FEE7FEE7FEE7FEE7FEE7FEE777
:10016000FEE7FEE75B29000831010008202A04DBD6
:10017000203A21FA02F00021704721FA02F3D04020
:10018000C2F120029140084319467047D2B201E003
:1001900000F8012B491EFBD270470022F6E710B58C
:1001A00013460A4604461946FFF7F0FF204610BDE5
:1001B00030B50B46014600202022012409E021FA37
:1001C00002F59D4205D303FA02F5491B04FA02F534
:1001D0002844151EA2F10102F1DC30BD2DE9F05FCB
:1001E0000546002092469B468846064681464024A6
:1001F0001BE02846414647462246FFF7B7FF5346D5
:100200005A46C01A914110D311461846224600F0B2
:10021000E1F92D1A67EB01084F4622460120002123
:1002200000F0D8F917EB00094E41201EA4F101049B
:10023000DFDC484631462A464346BDE8F09F2DE9BB
:10024000FE4F804681EA0300C00F0C46009021F06B
:10025000004123F00045B8EB0200A94105D2404619
:10026000214690461C460B46024623F000401043B0
:1002700047D0270DC7F30A00C3F30A510290401A72
:10028000019040286BDAC3F3130040F4801B009800
:10029000924620B10023D2EB030A63EB0B0B0198CB
:1002A0005946C0F14002504600F094F906460D460A
:1002B00050465946019A00F09CF910EB0800614144
:1002C000002487EA115284EAE7731A4340D0009A67
:1002D00062B3019A012A4FEA075215DC001B61EB59
:1002E00002014FF0004202EA0752CDE90042001C31
:1002F00041F5801132462B4600F09CF903B0BDE871
:10030000F08F40462146F9E7001B61EB0201001C1B
:1003100041F5801300185B412018A2F5001747EB48
:10032000030140EAD570B6196D4111E06D084FEA3E
:10033000360645EAC0754FEA0752001B61EB020121
:10034000001C41F5801149084FEA30000019514165
:1003500032462B4603B0BDE8F04F00F05CB9009880
:10036000012240000023D0EB020263EBE07300980F
:1003700021464FEAE074B8EB000061EB0401E9E7C5
:1003800083F000435BE781F0004158E72DE9FE4F21
:1003900081EA030404F0004421F0004100944FF08E
:1003A000000B23F0004350EA01045ED052EA03043C
:1003B0005BD0C3F30A54C1F30A552C44A4F2F334BE
:1003C0000194A0FB0254C1F3130141F48011C3F363
:1003D000130343F4801301FB024400FB034E840A21
:1003E000970A44EA815447EA8357A4FB07680295B9
:1003F0008D0A05FB07854FEA932C04FB0C54270557
:10040000029D4FEA065847EA1637B5EB08056EEB32
:10041000070C870E920E47EA811742EA8312A7FB68
:100420000201B6EB0B0164EB00042B0D43EA0C3325
:100430005E1844EB1C50DA465146E7FB0201C5F357
:1004400013044FEA0B3343EA14534FEA0432019C7E
:1004500043EA0603A4F10C040294009CCDE900B425
:1004600000F0E8F803B0BDE8F08F00200146F9E79E
:100470002DE9F04D81EA030404F0004B21F0004522
:1004800014464FF0000A23F0004150EA050220D044
:1004900054EA01021DD0C5F30A570246C5F31303FF
:1004A000C1F31300C1F30A5640F4801543F48013DE
:1004B000A7EB0608101BD64608F2FD3873EB0500C3
:1004C00002D308F1010801E092185B41B8F1000F76
:1004D00003DA00200146BDE8F08D00204FF48011C2
:1004E000064684460EE0171B73EB050705D3121B67
:1004F00063EB050306434CEA010C49084FEA300060
:1005000092185B4150EA0107EDD152EA030012D084
:1005100082EA040083EA0501084305D0101BAB41C1
:1005200006D20122002306E000224FF0004302E041
:100530006FF0010253101AEB06004CEB085110EB60
:100540000A0041EB0B01BDE8F04D00F064B8C1F3C7
:100550000A52C1F3130140F2FF3341F480119A4271
:1005600002DA00200146704740F233439A42A2F279
:10057000334202DC5242FFF7F9BD00F02BB8000015
:1005800030B5041E71F1000404DB4FF0004440421A
:1005900064EB0101141E73F1000405DB1C464FF0EF
:1005A0000043524263EB0403994208BF904230BDBE
:1005B000064C074D06E0E06840F0010394E80700B0
:1005C00098471034AC42F6D3FFF7B6FD0C41000853
:1005D0002C410008202A04DB203A00FA02F1002016
:1005E00070479140C2F1200320FA03F31943904071
:1005F0007047202A06DBCB17203A41FA02F043EA83
:10060000E07306E041FA02F3D040C2F120029140CB
:1006100008431946704710B5141E73F1000408DA38
:10062000401C41F1000192185B411A4301D120F0B6
:10063000010010BD2DE9F04D92469B4611B1B1FA73
:1006400081F202E0B0FA80F220329046FFF7C2FF5A
:1006500004460F4640EA0A0041EA0B0153465A4657
:10066000084313D0114653EA010019D0C8F14002E3
:100670005046FFF77BFD05460E465046594642461A
:10068000FFF7A8FF084305D0012004E020463946C3
:10069000BDE8F08D0020054346EAE0762C43374361
:1006A0000A986305E40AA0EB08000022FD0A44EA68
:1006B00047540A3002D500200146E9E70105101928
:1006C0006941DDE9084500196941BDE8F04DA2E73F
:1006D000014800F062B900001C00002070B504461B
:1006E00000688168C943C90717D1816821F00101F9
:1006F000816000F07DFD05460AE000BF00F078FD56
:10070000401B022804D920688068C043C00706D077
:1007100020688068C043C007F0D0002070BDA06A88
:1007200040F01000A062E06A40F00100E0620120A9
:1007300070BD10B50146406A826A12F0500F05D0B4
:10074000006A026BBDE8104008461047816A41F418
:100750000071816201688968C1F3424107290CD1A7
:10076000017B51B9816A21F480718162816AC90477
:1007700003D4816A41F00101816200F00BF910BDE0
:1007800010B5406A816A41F040018162C16A41F05E
:100790000401C16200F000F910BD10B5406A00F01C
:1007A000FAF810BDF8B50026044600960068816886
:1007B000C943C9072DD0816841F001018160164805
:1007C00016490068B0FBF1F000E0401E00900028E0
:1007D000FBD100F00DFD054616E000BF00F008FD5E
:1007E000401B022810D920688068C043C0070BD086
:1007F000A06A40F01000A062E06A40F00100E062F0
:1008000084F824600120F8BD20688068C043C007D8
:10081000E4D10020F8BD00001400002040420F0089
:10082000FEE730B590F840500124AC40C56B6C60D9
:10083000046863604368102B036803D09960006804
:10084000C26030BD9A600068C16030BD704710B5AD
:100850004FF4805000F0BEFB4FF4005000F0BAFBA4
:100860004FF4804000F0B6FBBDE810404FF400406C
:1008700000F0B0BB10B5202000F0ACFB4FF480704E
:1008800000F0A8FBBDE810404FF4007000F0A2BBE0
:1008900072B6FEE770470000F8B50024009490F8A7
:1008A00024202546012A12D0012280F824204A68FB
:1008B0001F23072A0DD20668776B521E02EB8202B5
:1008C00093409F430B6893401F43776319E00220D6
:1008D000F8BD06680D2A0AD2376BD21F02EB8202DE
:1008E00093409F430B6893401F43376309E0F76AC7
:1008F0000D3A02EB820293409F430B6893401F43E3
:10090000F7620A68072306680A2A0AD3F7680A3AD0
:1009100002EB420293409F438B6893401F43F76072
:1009200008E0376902EB420293409F438B68934093
:100930001F4337610A68102A01D0112A20D1124BB7
:1009400002689A4217D193681B0219D4936843F442
:10095000000393600968102912D10C490C4A0968F8
:10096000B1FBF2F101EB8101490000E0491E009169
:100970000029FBD104E0816A41F020018162012459
:1009800080F824502046F8BD0024014014000020C7
:1009900040420F0070477047704770B504460068CA
:1009A00006684568A90625D5B10723D5A16AC906F9
:1009B00003D4A16A41F40071A1628168C1F342418C
:1009C000072910D1217B71B9416821F020014160D4
:1009D000A06A20F48070A062A06AC00403D4A06A58
:1009E00040F00100A0622046FFF7D4FF21686FF0BD
:1009F0001200086028062ED570072CD5A06AC00604
:100A000003D4A06A40F40050A06220688168C1F35A
:100A10000231072909D04168490515D48168C1F31D
:100A20004241072910D1217B71B9416821F0800131
:100A30004160A06A20F48050A062A06AC00503D47F
:100A4000A06A40F00100A0622046FFF723FF216862
:100A50006FF00C00086068060CD5F0070AD0A06A99
:100A600040F48030A062204600F096F821686FF0D4
:100A70000100086070BD00002DE9F04104004FF056
:100A800000057FD0A06A002628B9E66284F82460B9
:100A9000204600F083F82046FFF720FEA16AC90631
:100AA00000D420B1A06A40F01000A0626AE0A16A00
:100AB00021F4885141F00201A162334923688B423D
:100AC000E16904D1B1F5402F01D14FF40021277B1A
:100AD0004FF4807C41EA470261680A43A16861459E
:100AE00008D0012906D0002194F814E0BEF1010FCE
:100AF00002D00AE06146F7E7C7B1A76A47F02007CE
:100B0000A762E76A47F00107E7625F6827F4694771
:100B10000F435F60236899681C4F39401143996007
:100B2000A16861450BD0012909D00CE0DFF860E035
:100B3000A7690EEB47370F4347F40061E5E7218AC9
:100B40000D05A5F580152168CB6A23F470032B43AE
:100B5000CB62216889680F4B1940914208D1E66247
:100B6000A16A21F0020141F00101A162BDE8F0811A
:100B7000A06A20F0020040F01000A062E06A40F09D
:100B80000100E0620120F1E7003C0140FDF7E1FFD8
:100B900000E0FFFFFE0E1FFF7047000070B586B03B
:100BA00000250646009501950295039500681E49AB
:100BB000884236D11D49886940F40070886188698F
:100BC00000F400700490886940F00400886188692E
:100BD000694600F004000490072000900320019073
:100BE000134800F003FA144C1248C4E900058020B1
:100BF000C4E9025040002061800060612020C4E907
:100C00000605204600F05CF908B1FFF741FE3462AA
:100C1000002205211220666200F048FC122000F03C
:100C200037FC06B070BD00000024014000100240F7
:100C300000080140080002404C0000202DE9F04768
:100C4000894604463B4900683B4F0E1D904688424A
:100C500001D0B84207D1306810F4702F03D00125BD
:100C60002846BDE8F08794F8240001280CD0012024
:100C700084F824002046FFF795FD05004FF00000A2
:100C800004D084F82400EBE70220EAE7A16A40F6EA
:100C90000162914341F48071A1622168B94218D187
:100CA000326812F4702F14D0A16A41F48011A1624D
:100CB0003168490505D5A16A21F4005141F48051FC
:100CC000A162A16AC9040AD5E16A21F00601E162C4
:100CD00006E0A26A22F48012A2624968E9E7E062B3
:100CE00084F82400216A15488862216A1448C86281
:100CF000216A1448086321686FF0020008602068C8
:100D0000816841F480718160216843464A464C31D4
:100D1000206A00F013F920688168C1F34241072975
:100D2000816803D041F48011816099E741F4A0010A
:100D3000FAE70000002401400028014033070008C2
:100D40009B0700088107000810B590F821100022C9
:100D5000022905D00421816380F82020012010BDE4
:100D600001680B6823F00E030B6001680B6823F029
:100D700001030B6090F84030C46B012101FA03F3CA
:100D8000636080F8211080F82020104610BD00001C
:100D90002DE9F05F90F821100024022903D00421EE
:100DA0008163012485E001680A6822F00E020A606E
:100DB00001680A6822F001020A603F4E3E4FB215F8
:100DC000DFF8F4C0DFF8F090DFF8ECA0DFF8E8B06F
:100DD000DFF8E4E00168783F13011502ACF1640C20
:100DE000A9F15009AAF13C0AABF1280BAEF1140E9F
:100DF0004FF48018B14227D9B9420ED0614512D0C4
:100E000049451DD0514518D0594518D0714501D1DB
:100E1000424615E0294EB14201D1012210E0274E91
:100E20001436B14201D110220AE0244E2836B142D4
:100E300006D0224A3C32914201D11A4600E02A46AD
:100E40001E49091F0A602BE0B94213D0614517D033
:100E5000494522D051451DD059451DD0714501D17C
:100E600042461AE0B14202D14FF0807215E0134EB3
:100E7000B14201D1012210E0104E1436B14201D12D
:100E800010220AE00D4E2836B14206D00B4A3C3201
:100E9000914201D11A4600E02A46074980394A604A
:100EA000012180F82110002180F82010416B01B150
:100EB00088472046BDE8F09F8000024008040240B9
:100EC00030B560B11A4B026814219A4209D2194B0D
:100ED0001344B3FBF1F18900016417490AE00120D2
:100EE00030BD134B5B421344B3FBF1F18900016445
:100EF0000F490839C163022180F82110136843F6B5
:100F0000F0718B43F0E901142143D0E902452C43F1
:100F100021430469214344692143846921431943DE
:100F2000116000214163012242770177084630BDFC
:100F300008040240F8FFFDBF0000024070B50446FF
:100F400090F82000002501280CD0012084F8200012
:100F500094F821600020012E06D084F8200002259C
:100F6000284670BD022070BD022684F82160A0636F
:100F70002068066826F0010606602046FFF751FC4F
:100F8000E06A00282068016802D041F00E0106E006
:100F900021F0040101602068016841F00A0101604C
:100FA0002068016841F001010160D9E770B504468D
:100FB00000F01EF90546601C02D004480078044485
:100FC00000F016F9401BA042FAD370BD08000020C3
:100FD00070470000044910B50A68024202D0086058
:100FE000FFF7F6FF10BD0000140401402DE9F84F93
:100FF000DFF8C8910024A9F1040B23460F2709F15B
:10100000040AABF1040ED1E00125A54006EA050271
:10101000AA4276D1DFF8A8C14E68A6EB0C08664557
:101020002BD00DDC032E34D005DC36B3012E19D0C5
:10103000022E2FD11BE0112E16D0122E2AD119E02C
:10104000B8F5881F19D006DCB8F5803F15D0B8F583
:10105000801F1FD111E0B8F5001F0ED0B8F5041F96
:1010600018D10AE0CB6815E0CB681B1D12E0CB68F5
:1010700008330FE0CB680C330CE08B682BB1012BED
:101080004FF0080303D0456104E0042302E005614A
:1010900000E00023FF2A01D8064601E000F1040623
:1010A0004FEA840501D9A5F12005D6F8008007FA9A
:1010B00005FC28EA0C0803FA05F548EA0508C6F815
:1010C00000804D68ED0070D53E4DAE6946F00106DA
:1010D000AE61AD6924F0030605F0010500953A4DB7
:1010E00006EB050CDCF80850A607360F07FA06F8E1
:1010F00025EA0805DFF8D480404503D14FF0000809
:1011000025E052E0DFF8C880404502D14FF00108E9
:101110001DE0DFF8C080404502D14FF0020816E024
:10112000DFF8B480404502D14FF003080FE0DFF84C
:10113000AC80404502D14FF0040808E0DFF8A08001
:10114000404502D14FF0050801E04FF0060808FACB
:1011500006F848EA0508CCF808804D68D9F8006020
:10116000ED024D4601D5164300E096432E604D68D2
:10117000DAF80060AD02554601D5164300E096430B
:101180002E604D68DBF80060AD035D4601D5164367
:1011900000E096432E604D68DEF80060ED03754672
:1011A00001D5164300E096432E60641C0A6816467B
:1011B000E2407FF429AFBDE8F88F00000804014049
:1011C0000000111000100240000001400008014022
:1011D000000C0140001001400014014000180140C3
:1011E000001C01400AB1016170470904FBE70000DF
:1011F00001488068704700000800002070B50400B6
:1012000025D094F83D00002520B984F83C502046B4
:1012100000F0B8F8242084F83D002068016821F02F
:10122000010101602068016841F40041016020680B
:10123000016821F40041016000F076FA4D4A6168CE
:10124000914201D84C4900E04C49884201D201202A
:1012500070BD4B492368B0FBF1F15E6826F03F0694
:101260000E435E606368934206D94FF49673594308
:101270004FF47A73B1FBF3F12368491C1E6A26F020
:101280003F06314319626168914210D84900401EFF
:10129000B0FBF1F2521CC2F30B02042A01D204206B
:1012A00022E0B0FBF1F0401CC0F30B001CE0A26890
:1012B000F2B301EBC10303EB0116431EB3FBF6F3DC
:1012C0005B1C43F480431B0549D092B301EBC10280
:1012D00002EB0111401EB0FBF1F0401CC0F30B000B
:1012E00040F4804040F400402168CA694CF6FF7326
:1012F0009A431043C861D4E907100143206802688B
:1013000022F0C00211430160D4E9030101432068C7
:10131000826848F2FF339A4311438160D4E90501A2
:1013200008432168CA6822F0FF021043C86001E048
:101330000EE016E02068016841F0010101602564BB
:10134000202084F83D00256384F83E50002070BDC5
:1013500001EB4106431EB3FBF6F35B1CB3E7012030
:10136000C2E701EB4101401EB0FBF1F0401CC0F3AD
:101370000B00B7E7A086010080841E0000093D0035
:1013800040420F0010B586B00021009101910291FA
:10139000039100680F4988421AD10F4CA06940F0B0
:1013A0000800A061A069694600F008000490C02010
:1013B000009012200190032003900848FFF716FECA
:1013C000E06940F40010E061E06900F4001004906E
:1013D00006B010BD0054004000100240000C014057
:1013E000024881680278114481607047080000203B
:1013F000074810B5016841F010010160032000F0BA
:1014000075F80F2000F006F800F024F8002010BD59
:101410000020024070B50D4D04464FF47A712878D3
:10142000B1FBF0F00A490968B1FBF0F000F0E6FB0F
:1014300048B9102C07D200222146501E00F036F881
:1014400000206C6070BD012070BD0000080000200D
:10145000140000200C4808B5816941F00101816148
:10146000816901F001010091C16941F08051C161C0
:10147000C06900F0805000900448416821F0E061AC
:1014800041F00071416008BD0010024000000140C1
:10149000002809DB00F01F02012191404009800073
:1014A00000F1E020C0F8001170470000F0B40E4BCE
:1014B0001B680C46C3F30223C3F10705042D00D9B2
:1014C0000425191D072901D2002300E0DB1E012697
:1014D00006FA05F1491E214099409E40761E1640AD
:1014E0003143F0BC01F006BF0CED00E0064900F00E
:1014F000070208684FF6FF03184040EA0220034A3B
:1015000010430860704700000CED00E00000FA0591
:101510002DE9F84305460078354CC00754D0E06902
:101520000026C00008D4E06940F08050E061E06926
:10153000012600F0805000902E480168C90512D4A1
:101540000168804641F480710160FFF751FE074653
:1015500005E000BFFFF74CFEC01B642823D8D8F875
:101560000000C005F6D5206A10F4407021D0A9888B
:1015700001F4407181421CD0206A1F49012220F4ED
:1015800040700A6000220A602062C00711D0FFF795
:101590002FFE074641F2883808E000BFFFF728FE1B
:1015A000C11B414502D90320BDE8F883206A8007AA
:1015B000F4D5206A696820F44070084320621EB1A7
:1015C000E06920F08050E0612878800705D56068E8
:1015D000A96820F44040084360602878C00605D51B
:1015E0006068696920F48000084360600020DBE7E0
:1015F0000010024000700040400442422DE9F047D4
:101600000F46050061D0434E306800F00700B84235
:1016100009D2306820F0070038433060306800F0AD
:101620000700B84251D128683B4C810712D54007CA
:1016300003D5606840F4E06060602878000703D557
:10164000606840F4605060606068A96820F0F00055
:10165000084360602878C00728D06868012810D047
:101660002168022810D0890700292EDA616821F04C
:10167000030101436160FFF7BBFD804641F28839F9
:101680000DE021688903EFE78901EDE7FFF7B0FD81
:10169000A0EB0801494502D90320BDE8F087606846
:1016A000696800F00C00B0EB810FEFD1306800F0FA
:1016B0000700B8420BD9306820F00700384330608B
:1016C000306800F00700B84201D00120E5E7287833
:1016D000400705D56068E96820F4E0600843606071
:1016E0002878000706D56068296920F4605040EA30
:1016F000C100606000F038F86168084AC1F3031166
:10170000515CC8400649086006480068FFF782FE41
:101710000020C2E70020024000100240F240000812
:10172000140000200C0000200448054900684968A6
:10173000044AC1F30221515CC840704714000020E4
:101740000010024002410008044805490068496849
:10175000044AC1F3C221515CC84070471400002004
:1017600000100240024100080E4A51680E4801F084
:101770000C03042B11D0082B0FD10C48C1F3834369
:10178000C903C05C0AD55168084AC1F34041921EA2
:10179000515C054A5043B0FBF1F07047044948439F
:1017A000704700000010024000127A00E24000087A
:1017B00000093D002DE9F84F040070D02078C04D9D
:1017C000C00749D06868C0F38100012807D0686865
:1017D000C0F38100022809D16868C00306D52868D3
:1017E000800339D560680028E7D035E06068B0F53F
:1017F000803F0BD010B1B0F5A02F11D0286820F495
:1018000080302860286820F4802002E0286840F4B6
:1018100080302860606890B1FFF7EAFC06460AE075
:10182000286840F480202860F0E700BFFFF7E0FC64
:10183000801B642873D828688003F7D50CE0FFF775
:10184000D7FC064605E000BFFFF7D2FC801B6428EA
:10185000F0D828688003F7D420789A4E80074FF09C
:1018600001094FF0000839D5686810F00C0F07D057
:101870006868C0F38100022809D16868C00306D4F3
:101880002868800714D52069012808D110E0206954
:10189000B0B1C6F80090FFF7ABFC074605E00AE1DF
:1018A000FFF7A6FCC01B0228C4D828688007F7D51C
:1018B0002868616920F0F80040EAC10028600DE066
:1018C000C6F80080FFF794FC074604E0FFF790FCA1
:1018D000C01B022823D828688007F7D42078000787
:1018E0002CD57948A169D9B1C0F80090FFF780FCE8
:1018F000074604E0FFF77CFCC01B02280FD8686A8B
:101900008007F7D571484FF4FA510068B0FBF1F049
:10191000009000BF0098411E0091FAD20EE080E0D6
:10192000C0F80080FFF764FC074604E0FFF760FCA6
:10193000C01B022875D8686A8007F7D42078400752
:1019400060D5E8690027C00008D4E86940F08050FD
:10195000E861E869012700F0805000905C48016868
:10196000C90513D40168834641F480710160FFF713
:101970003FFC824606E000BFFFF73AFCA0EB0A00FE
:1019800064284ED8DBF80000C005F5D5E0680128D2
:101990000AD008B1052813D0286A20F00100286277
:1019A000286A20F0040002E0286A40F00100286262
:1019B000E06841F2883B98B1FFF71AFC82460BE0E1
:1019C000286A40F004002862EEE700BFFFF710FC31
:1019D000A0EB0A0159455AD8286A8007F6D50CE0D1
:1019E000FFF706FC824605E0FFF702FCA0EB0A01C8
:1019F00059454CD8286A8007F6D41FB1E86920F011
:101A00008050E861E06988B36968C1F38101022907
:101A100044D00228C6F8608004D0FFF7E9FB0446F2
:101A200038E034E0FFF7E4FB074604E0FFF7E0FBB3
:101A3000C01B02282BD828688001F7D4206AB0F593
:101A4000803F05D16868A16820F4003008436860D1
:101A5000D4E908010843696821F4741108436860F7
:101A6000C6F86090FFF7C4FB044606E025E000BF1F
:101A7000FFF7BEFB001B022809D828688001F7D5B4
:101A80001BE000BFFFF7B4FB001B022802D90320B4
:101A9000BDE8F88F28688001F4D40EE00128F7D063
:101AA0006868226A00F48031914204D1616A00F4CE
:101AB0007010884201D00120EAE70020E8E700002A
:101AC0000010024000004242800442421400002004
:101AD0000070004070B5040009D0606A002540B174
:101AE00025616561A56294F8510040B10CE00120C8
:101AF00070BD6068B0F5827FF4D0E561F2E784F8EC
:101B00005050204600F040F8022084F85100206830
:101B1000016821F040010160A088218900F48270F1
:101B200001F404410843A18901F400610843217CC8
:101B300001F002010843217D01F001010843218BDE
:101B400001F400710843217F01F03801084394F843
:101B5000201001F080010843218D01F40051084359
:101B600021680860A069042101EA104021684860EA
:101B70002068C16921F40061C1616565012084F8B4
:101B80005100002070BD000030B585B000240094E5
:101B900001940294039400681549884225D11548A0
:101BA000C16941F48041C161C16901F4804104917E
:101BB000816941F00801816180690F4D00F00800E2
:101BC00004904FF4204000900220019003200390E5
:101BD00069462846FFF70AFA4FF48040CDE9000431
:101BE000694628460294FFF701FA05B030BD0000AF
:101BF0000038004000100240000C014010B5401EAB
:101C0000B0F1807F01D3012010BD4FF0E02460616E
:101C10000F21601701F06EFB0020A06107202061FA
:101C2000002010BD70B590F83C20012A2CD0012472
:101C300080F83C40022280F83D2003685A689D6885
:101C400022F070060A6832435A60104B02689A42CA
:101C50000ED00F4B9A420BD0B2F1804F08D00D4BF3
:101C60009A4205D00C4B9A4202D00C4B9A4204D1B6
:101C7000496825F080031943916080F83D400021B8
:101C800080F83C10084670BD022070BD002C014059
:101C9000003401400004004000080040000C0040F7
:101CA00010B5040003D094F83D0010B107E0012006
:101CB00010BD002084F83C00204600F01FF80220F0
:101CC00084F83D00211D206800F048FE012084F8C2
:101CD000460084F83E0084F83F0084F8400084F811
:101CE000410084F8420084F8430084F8440084F8FA
:101CF000450084F83D00002010BD000008B50068D4
:101D00000649884208D10648C16941F00201C16113
:101D1000C06900F00200009008BD0000000400400F
:101D20000010024070B5044690F83C0000250128E0
:101D300017D0012684F83C60022084F83D0020681A
:101D4000826822F0770222F47F428260086850287D
:101D500038D00DDC20284FD005DC90B3102811D1ED
:101D60004AE0022070BD302846D040280AD13BE02E
:101D700060282FD070280DD0B0F5805F03D0B0F56B
:101D8000005F12D0012584F83D60002084F83C00FB
:101D9000284670BDCB68D1E90121206800F039FEEA
:101DA0002068816841F0770109E0CB68D1E9012121
:101DB000206800F02EFE2068816841F48041816037
:101DC000E1E719E0CA684968206800F0F7FE502191
:101DD000206806E0CA684968206800F000FF6021BA
:101DE000206800F020FECEE7CA684968206800F04D
:101DF000E5FE40212068F4E7226801461046F0E73E
:101E000000B585B000210091019102910391006815
:101E10000B49884211D10B48816941F0040181616D
:101E20008069694600F00400049040200090022080
:101E3000019003900448FFF7D9F805B000BD0000F9
:101E400000040040001002400008014070B5044644
:101E500090F83C0000260D4601280FD0012084F8A0
:101E60003C006AB1042A1DD0082A2FD00C2A3FD08A
:101E70000126002084F83C00304670BD022070BD71
:101E8000206800F0D9FD2068816941F00801816176
:101E90002068816921F004018161206881692A69D3
:101EA000114311E0206800F0F7FD2068816941F4DA
:101EB000006181612068816921F48061816120680D
:101EC00081692A6941EA02218161D2E7206800F034
:101ED00019FE2068C16941F00801C1612068C1692B
:101EE00021F00401C1612068C1692A69114311E030
:101EF000206800F03BFE2068C16941F40061C161C7
:101F00002068C16921F48061C1612068C1692A69C2
:101F100041EA0221C161ACE710B5040003D094F896
:101F20003D0010B107E0012010BD002084F83C0006
:101F3000204600F01EF8022084F83D00211D206894
:101F400000F00CFD012084F8460084F83E0084F87F
:101F50003F0084F8400084F8410084F8420084F88F
:101F6000430084F8440084F8450084F83D000020D4
:101F700010BD704710B50446022249B104290ED0A5
:101F8000082913D094F84100012816D0012010BD73
:101F900094F83E000128F9D184F83E200FE094F82F
:101FA0003F000128F2D184F83F2008E094F8400077
:101FB0000128EBD184F8402001E084F8412001227F
:101FC000206800F019FD13492068134A884201D0A7
:101FD000904203D1436C43F4004343642068884239
:101FE0000DD090420BD0B0F1804F08D00B49884201
:101FF00005D00B49884202D00A49884204D1816841
:1020000001F00701062903D0016841F001010160D8
:10201000002010BD002C01400034014000040040AD
:1020200000080040000C004070477047F8B5016898
:1020300004460868CA684B6910F00F0F4FF000059E
:1020400059D003F0010602F49077374365D0C107F9
:1020500005D0D10503D5616C41F0010161644107F0
:1020600005D5D90703D0616C41F002016164810795
:1020700005D5D90703D0616C41F004016164010703
:1020800007D502F02001314303D0616C41F0080113
:102090006164616C00293AD0800604D5900602D5AF
:1020A000204601F017F820684069616CC0F3801089
:1020B000090700D460B3204600F0C2FF20684069E1
:1020C000400621D52068143050E8001F21F040015F
:1020D00040E80012002AF5D1E06BA8B16D494163D8
:1020E000E06BFEF755FE002811D0E06B416B01B0AC
:1020F000BDE8F040084783060FD593060DD520466E
:10210000BDE8F84000F0E6BF2046FFF78EFFF8BDBF
:102110002046FFF78AFF6564F8BD266B2023012E59
:102120007CD1C6067AD5D60678D50868486800906E
:1021300048694FF00206400640D5E16B08684068E8
:102140000004000CE8D0A28D8242E5D9E0858869C0
:1021500020282DD020680C3050E8001F21F4807119
:1021600040E80012002AF5D12068143050E8001F22
:1021700021F0010140E80012002AF5D12068143056
:1021800050E8001F21F0400140E80012002AF5D17C
:1021900084F84230256320680C3050E8001F21F09D
:1021A000100140E80012002AF5D1E06BFEF7CCFDEB
:1021B0006663A08DE18D401A81B22AE0A08DE18D89
:1021C000401A81B2E08D0028A6D00029A4D0226850
:1021D0000C3252E8000F20F4907042E80007002F04
:1021E000F5D12068143050E8002F22F0010240E8B9
:1021F0000027002FF5D184F84230256320680C3089
:1022000050E8002F22F0100240E80023002BF5D107
:1022100066632046FFF708FFF8BDFFE705062BD5EC
:10222000150629D594F841002128F5D1A068B0F50C
:10223000805F01D12069B0B1206A411C2162216810
:1022400000784860E08C401E0004000CE084E3D17C
:102250002068C16821F08001C1602068C16841F038
:102260004001C160D8E7206A0088C0F308004860D8
:10227000206A801C2062E5E74006CDD55006CBD50C
:10228000CA68204622F04002CA6084F8413000F05B
:10229000F8F8C1E73130000870B5040004D094F8B4
:1022A0004100002510B106E0012070BD84F84050C7
:1022B000204600F023F8242084F841002068C168FB
:1022C00021F40051C160204600F066FF20680169DA
:1022D00021F4904101612068416921F02A014161A6
:1022E0002068C16841F40051C1606564202084F811
:1022F000410084F842006563002070BD70B586B06F
:102300000024009401940294039403682F482E4EF5
:10231000022103220515B34221D1836943F480438E
:102320008361836903F480430493836943F0040366
:1023300083618069264E00F0040004900802CDE914
:102340000001039269463046FEF750FECDE9005485
:10235000694630460294FEF749FE06B070BD1D4E38
:10236000B342FAD1C36943F48023C361C36903F460
:1023700080230493836943F0100383618069CDE96E
:10238000005100F01000CDE90320134D69462846A6
:10239000FEF72CFEE814CDE90004694628460294B5
:1023A000FEF724FE0D48416821F0300141F0E06164
:1023B00041F010014160002211462720FFF776F816
:1023C0002720FFF765F8C8E70038014000100240F9
:1023D000000801400048004000100140000001409A
:1023E00070472DE9F843044690F841009846164698
:1023F0000D46202802D00220BDE8F88385B17EB1C9
:1024000000206064212084F84100FEF7F1FEA684DC
:102410008146E684A0682027B0F5805F02D003E003
:102420000120E9E7206910B12E4600250EE00026C4
:102430000CE08021204600F00BFFA8B9C6B116F8C9
:10244000010B21684860E08C401EE084E08C4B4624
:102450004FF00002CDF800800028EAD14FF0400193
:10246000204600F0F5FE40B184F841700320C3E738
:1024700035F8020BC0F30800E3E784F84170002050
:10248000BAE77047FEE70000FEB500241B48009441
:102490000194194902940160891581600125057331
:1024A0000475032606614FF460214460C161FEF7A4
:1024B000E3FA08B1FEF7ECF905200094CDE90150EC
:1024C00069460E48FEF7E8F908B1FEF7E1F9022483
:1024D000CDE9005469460948FEF7DEF908B1FEF778
:1024E000D7F9CDE9004669460448FEF7D5F900283A
:1024F00001D0FEF7CDF9FEBD002401401C000020F4
:10250000054808B5416941F001014161406900F0A9
:102510000100009008BD0000001002402DE9F04FBE
:1025200085B000256648009501950295039581695F
:1025300041F010018161816901F01001049181690C
:1025400041F020018161816901F0200104918169DC
:1025500041F004018161816901F004010491816904
:1025600041F0080181618069DFF858B100F008008E
:1025700004900122CF215846FEF734FE41F2B808FC
:10258000012241465048FEF72DFE41F21809012272
:1025900049464E48FEF726FE4FF4006A0022514697
:1025A0004948FEF71FFE012204214948FEF71AFEA2
:1025B000484F4FF4C040CDE900070124694602941A
:1025C0005846FEF713FDCF20CDE900040326CDE9E0
:1025D000024669465846FEF709FDCDE90084CDE97B
:1025E000024669463848FEF701FD4FF44C704FF043
:1025F00002088DE8210169465846FEF7F7FC40F6CF
:1026000003408DE8210169463048FEF7EFFCCDE933
:102610000094CDE9024669462C48FEF7E7FC4FF4EA
:102620008079CDF80090CDE9015869462648FEF73B
:10263000DDFCCDF800A00396CDE9014869462248AB
:10264000FEF7D4FCE003CDE90007694602941E487A
:10265000FEF7CCFC200300901F48CDE90104694639
:102660005846FEF7C3FC0420CDE90004CDE902463C
:1026700069461748FEF7BAFC4FF40870CDE9000729
:10268000694602941148FEF7B1FCCDF80090CDE9FF
:10269000017569460D48FEF7A9FC002204211720A8
:1026A000FEF704FF1720FEF7F3FE00220421282086
:1026B000FEF7FCFE2820FEF7EBFE05B0BDE8F08F2C
:1026C000001002400010014000080140000C0140D1
:1026D0000014014000003110000011100D4810B529
:1026E0000B4901600C49416000214FF48042816038
:1026F000C0E9031241618161C1610162FEF77EFDA3
:10270000002803D0BDE81040FEF7C2B810BD00009D
:102710000054004090000020A08601000F4810B532
:102720000D4901604FF48271416000218160C160F8
:102730004FF400720161C0E90512C161016241629A
:1027400081620A21C162FFF7C5F9002803D0BDE804
:102750001040FEF79DB810BD00380040E400002096
:1027600010B58EB000240794089409940A940B9431
:102770001C2168460C94FDF710FD1E481C490160A1
:102780002321C0E901146321C0E903148461FFF728
:1027900087FA08B1FEF77CF84FF48050079007A93C
:1027A0001448FFF7BFFA08B1FEF772F81148FFF7B7
:1027B000B3FB08B1FEF76CF80B940BA90D480C9411
:1027C000FFF730FA08B1FEF763F86020009032207E
:1027D000CDE901040022694606480494FFF736FB60
:1027E00008B1FEF755F80348FFF70AFB0EB010BD1D
:1027F000000400403C0100200C4810B50A4901606B
:102800004FF4E1314160002181600C22C160C0E9D8
:1028100004128161C161FFF73FFD002803D0BDE8CC
:102820001040FEF735B810BD00380140840100208B
:102830000C4810B50A4901604FF4E13141600021B4
:1028400081600C22C160C0E904128161C161FFF79F
:1028500023FD002803D0BDE81040FEF719B810BDD5
:1028600000480040CC010020FEE7FEE710B540F62E
:102870003971884201D3164810BDE8B1154A0021CC
:1028800032F8213083421DD302EB81039B888342BF
:1028900018D802EB81010A1D0C888B88E31A0ED030
:1028A000B2F90220B1F90210521A201A504390FBDB
:1028B000F3F0084400B210BD40F2E24010BDB1F99F
:1028C000020010BD491C2129DADB002010BD0000E8
:1028D00070FEFFFF5840000870477047FEF780BD4C
:1028E00030B595B028216846FDF757FC14210AA899
:1028F000FDF753FC18210FA8FDF74FFC0121080438
:10290000CDE900100025029502240491CDE907408D
:102910004FF4E01009906846FEF74CFF08B172B61C
:10292000FEE70AA90F2081E831004FF48060CDE96D
:102930000D0502210AA8FEF761FE08B172B6FEE796
:102940004FF4004011900F940FA8FEF7E1FD00280E
:1029500001D072B6FEE715B030BD7047F0B5026821
:10296000204C214D214E224F224B4FF0804CA04253
:1029700009D0984207D0604505D0A84203D0B042A4
:1029800001D0B84204D122F0700E4A6842EA0E0229
:10299000A04209D0984207D0604505D0A84203D094
:1029A000B04201D0B84203D122F44075CA682A432C
:1029B0004D6922F080022A4302608A68C2620A6876
:1029C0008262A04201D0984201D1096901630121CC
:1029D00041610169C90703D0016921F00101016169
:1029E000F0BD0000002C0140000400400008004041
:1029F000000C00400034014010B501F01F0301211C
:102A0000046A99408C430462016A9A40114301624E
:102A100010BD10B5846842EA032224F47F440A43BF
:102A20002243826010BD826822F070020A4342F0A5
:102A30000701816070470000F0B5036A026A22F066
:102A40000102026242688469124E24F073050C6828
:102A50002C4323F002058B682B430D4DA84201D077
:102A6000B04205D123F00807CB683B4323F00403B1
:102A7000A84201D0B04205D14D6922F440721543FD
:102A80008A692A4342608461496841630362F0BDF8
:102A9000002C014000340140F0B5026A036A23F0C3
:102AA00010030362436884690D6824F4E64444EA31
:102AB00005248D6822F0200242EA05120F4D104EC7
:102AC000A84201D0B04206D1CF6822F0800242EA8B
:102AD000071222F04002A84201D0B04207D14D694E
:102AE00023F4406343EA85038D6943EA8503436029
:102AF0008461496881630262F0BD0000002C0140DE
:102B000000340140F0B5026A036A23F48073036263
:102B10004368C46922F4007224F073050C68124EF5
:102B20002C438D6842EA05220E4DA84201D0B042E6
:102B300006D1CF6822F4006242EA072222F48062C2
:102B4000A84201D0B04207D14D6923F4405343EA73
:102B500005138D6943EA05134360C4614968C16385
:102B60000262F0BD002C01400034014030B5046A1F
:102B7000026A22F4805202624268C3690D6823F43B
:102B8000E64343EA05238D6824F4005444EA0534FF
:102B9000084DA84202D0084DA84204D14D6922F444
:102BA000804242EA85124260C3614968016404625E
:102BB00030BD0000002C01400034014010B5036A14
:102BC000046A24F001040462846924F0F00444EAF5
:102BD000021423F00A020A438461026210BD10B598
:102BE000036A046A24F010040462846923F0A003D9
:102BF00024F4704444EA023243EA01118261016222
:102C000010BD00000148807C7047000014020020C5
:102C1000032803D202490844C07C70470020704753
:102C20001402002010B5064B08B19C89048009B13C
:102C3000D8890880002A01D0188A108010BD0000B1
:102C40001402002010B518211648FDF7A6FA154801
:102C500030211830FDF7A1FA134900200322087033
:102C6000487012491248FDF7E9FF00211148FFF7AB
:102C700081F90C4C3220A07400F062F90120A0759B
:102C80000DA115A000F004FA15A000F023FBA17C13
:102C90001DA000F01FFBBDE81040082121A000F09E
:102CA00019BB0000140200200600002000000020D4
:102CB0001C0000203C01002054656D706572617439
:102CC000757265206D6F64756C6520696E697469D5
:102CD000616C697A65640000494E464F000000004F
:102CE0004144432B444D41207374617274656420E8
:102CF000666F722033204E5443206368616E6E65A8
:102D00006C730D0A0000000046616E2050574D2084
:102D10007374617274656420617420256425250DC7
:102D20000A00000046696C7465722073697A653A1E
:102D300020256420706F696E74730D0A0000000016
:102D4000F8B52BA000F0C6FA35A000F0C3FA0024B5
:102D5000384D0A2605EB4401B1F90C0090FBF6F260
:102D600006FB120390FBF6F2C8880090002B00DAF5
:102D70005B42611C30A000F0ADFA2819C07C02282B
:102D800016D0012816D034A000F0A4FA35A000F027
:102D9000A1FA641C032CDDDB33A000F09BFAA97CB4
:102DA00036A000F097FAA87C5F2805D337A004E08E
:102DB0003AA0E9E73DA0E7E73EA000F08BFA29A0A2
:102DC00000F088FA3EA000F085FA424C607808B125
:102DD00041A100E041A142A000F07CFA0822217844
:102DE00045A000F077FABDE8F84049A000F072BABB
:102DF0000D0A3D3D3D3D3D3D3D3D3D3D2054656D14
:102E00007065726174757265205374617475732096
:102E10003D3D3D3D3D3D3D3D3D3D0D0A0000000039
:102E20004E54432054656D7065726174757265739C
:102E30003A0D0A001402002020204E544325643A23
:102E4000202533642E256420432020284144433A22
:102E50002025346400000000202D204E6F726D612B
:102E60006C0000000D0A00000D0A46616E20436FE1
:102E70006E74726F6C3A0D0A0000000020205370CF
:102E80006565643A2025642525000000202848490E
:102E9000474820535045454429000000202D204F2D
:102EA000564552484541542129000000202D205705
:102EB00061726D0020284E4F524D414C2900000098
:102EC0000D0A46696C746572205374617475733AA7
:102ED0000D0A000006000020594553004E4F000027
:102EE000202046696C7465722072656164793A20AD
:102EF00025730D0A00000000202046696C7465727D
:102F000020696E6465783A2025642F25640D0A00D7
:102F10003D3D3D3D3D3D3D3D3D3D3D3D3D3D3D3DE1
:102F20003D3D3D3D3D3D3D3D3D3D3D3D3D3D3D3DD1
:102F30003D3D3D3D3D3D3D3D0D0A0D0A000000007B
:102F4000642800D964200649887400EB401000EB27
:102F500040006421B0FBF1F0024909684863704702
:102F6000140200203C0100202DE9F0472D4CA07DEB
:102F7000002855D02C490020DFF8B0C04B7881469E
:102F800004F118063CF81050C2B224F81050032A7D
:102F90000ED20F7806EB0218022A28F8175007D134
:102FA0007F1CFAB20A70082A02D381F8009001232C
:102FB000401C0328E6DB4B700A780020C7B2032FC1
:102FC00001D349460CE013B30025294606EB071749
:102FD00037F811C0491C65440829F9DBC5F3CF0156
:102FE00004EB4005401CE9800328E7DB5FF00005A7
:102FF00004EB4506F088FFF739FC6D1CB081032D0A
:10300000F6DB00F0B1FFBDE8F04700F06DBF06EB66
:1030100007150AB1511E00E0002135F81110DFE755
:10302000BDE8F08714020020060000200000002008
:1030300010B5406A0021C185C184FEF7F6FF10BDBE
:1030400001680C3151E8002F22F4907241E800230E
:10305000002BF5D10168143151E8002F22F0010254
:1030600041E80023002BF5D1016B012909D101684A
:103070000C3151E8002F22F0100241E80023002B10
:10308000F5D1202180F84210002101637047000033
:1030900070B50C46054600F00DF822462946BDE8FD
:1030A000704001A000F016B95B25735D2025730DFB
:1030B0000A00000010B5FEF79BF80146BDE810407D
:1030C00001A000F007B900005B256C75206D735DF1
:1030D0002000000008B590F84210222901D00220FB
:1030E00008BD82684FF480539A4201D1016921B131
:1030F000816A9A421BD04AB10AE00268816A52682A
:10310000C2F308020A80816A891C08E0026972B170
:103110000268526802F07F020A70816A491C81626B
:10312000C18D491E0904090CC18503D01BE002684A
:103130005268F1E70168CA6822F02002CA6001689B
:10314000CA6822F48072CA6001684A6922F00102EA
:103150004A61202180F8421000214163026B012A5C
:1031600003D0FFF73DF9002008BD016301680C3171
:1031700051E8002F22F0100241E80023002BF5D186
:1031800001680A68D20602D50A6849680091818DF3
:10319000FEF74AFFE7E7000070B5044600680169E2
:1031A000E26821F44051114301612169A06808439C
:1031B000616908432168CA6841F20C639A4302437B
:1031C000CA6020684169A26921F4407111434161DC
:1031D0001E492068884202D1FEF7B6FA01E0FEF7E8
:1031E000A3FA00EBC00101EB0012606864218000CB
:1031F000B2FBF0F3B3FBF1F36FF018067343B2FBCD
:10320000F0F5B2FBF0F605EB8305322303EB051571
:10321000B5FBF1F5B6FBF1F605F0F00505EB06158B
:10322000B2FBF0F6B2FBF0F0B0FBF1F06FF0180279
:10323000504306EB800003EB0010B0FBF1F0216877
:1032400000F00F002844886070BD00000038014085
:103250002DE9F843984617460D460446089E24E09B
:10326000701C22D0FDF7C4FFA0EB0800B0421AD8B2
:10327000CEB12068C168490717D5802D15D0402DE3
:1032800013D00168C94309070FD4016800254068BD
:1032900000902046FFF7D4FE0820606484F8405078
:1032A0000120BDE8F8830320FBE72068006835EAC9
:1032B000000004D00020B842D2D00020F1E7012065
:1032C000F9E700000148FEF7B1BE0000CC01002084
:1032D000FEE700000FB4054B10B503A9044A02989D
:1032E00000F0EAF810BC5DF814FB0000C13B0008D8
:1032F000180000200907090E002804DB00F1E02077
:1033000080F80014704700F00F0000F1E02080F812
:10331000141D704702E008C8121F08C1002AFAD124
:1033200070477047002001E001C1121F002AFBD145
:10333000704700002DE9FF5F82B00021DDE9043015
:10334000020DDDF840B0034318D044F61050A2F24D
:10335000FF3242431514119801281FD0A5EB0B0032
:10336000401C5FEA000A4FF000064E4FDFF838912C
:10337000B046504615D5CAF1000413E01198012457
:103380004AA3012801D16FEA0B010298119AC0E902
:103390000031C0E9024206B0BDE8F09FCBF1000069
:1033A000DFE704460021404A491842EB0450CDE9CA
:1033B000001012E0E00707D032463B46404649463F
:1033C000FCF7E4FF8046894632463B4610461946E4
:1033D000FCF7DCFF06460F466410002CEAD1DDE95D
:1033E0000401DDE90023BAF1000F06DAFCF7CEFF95
:1033F00042464B46FCF7CAFF05E0FDF739F8424666
:103400004B46FDF735F804460E460022284BFDF7E3
:10341000B7F803D84FF0FF30014607E00022254BF4
:1034200020463146FCF70BFFFDF791F8102409E028
:10343000002C0ADB0A220023FCF7D0FE039B30326B
:103440001A55641E50EA0102F2D1641C039AC4F1B9
:1034500011031444119A012A03D0012208430DD10B
:103460000AE0084304D000204FF0110B119072E7DE
:10347000A3EB0B056D1E0DE05B4504DD4FF0000274
:1034800005F1010504E003DA4FF00002A5F10105A2
:10349000002AECD002981199C0E90231C0E9004538
:1034A00079E70000000014400000F03F3000000009
:1034B0000000F0430000E03F2DE9FF4F95B09A4631
:1034C000884606460025EEE1252877D100242746C8
:1034D000F94A0121039400E0044316F8013F203B20
:1034E00001FA03F01042F7D130782A2811D06FF09A
:1034F0002F033078A0F13002092A16D8039A44F03D
:10350000020402EB820203EB42021044761C039099
:10351000EFE758F8042B0392002A03DA504244F4F0
:103520000054039044F00204761C30782E2816D103
:1035300016F8010F44F004042A280DD06FF02F0272
:103540003078A0F13003092B09D807EB870302EB91
:103550004303C718761CF3E758F8047B761C3078D1
:103560006C280FD006DC4C2817D068280DD06A28AC
:1035700014D104E0742810D07A280FD10DE044F45F
:1035800000140AE044F4801401E044F4401472781A
:10359000824202D104F58014761C761C30786628AD
:1035A0000BD013DC582877D009DC002875D04528CB
:1035B000F6D04628F4D047281AD193E118E06328C2
:1035C00035D0642879D0652812D18BE1702873D06A
:1035D00008DC6728F1D069286FD06E280DD06F28DD
:1035E00006D1ACE073282CD0752874D0782853D03D
:1035F0005246179990476D1C54E1C4F302500228BB
:1036000009D003280DD0D8F8001004280DD00D6083
:1036100008F1040846E1D8F80010EA17C1E90052A1
:10362000F6E7D8F800100D80F2E70D70F0E718F813
:10363000041B8DF8001000208DF80100EB460120DE
:1036400003E058F804BB4FF0FF3061074FF0000172
:1036500002D40DE009F101018946B9420FDA814532
:10366000F8DB1BF809100029F4D108E009F1010189
:1036700089468142FADB1BF809100029F6D103982C
:103680005346A0EB090721463846179A00F080FA06
:10369000284400EB090507E044E008E10DE01BF8D1
:1036A000010B524617999047B9F10109F7D25346D9
:1036B00021463846179AF2E039E00A21C4F3025253
:1036C0004FF0000B0091022A06D058F8040BC117E6
:1036D000032A09D00AE023E008F1070020F00702DE
:1036E000F2E80201904605E000B2C117042A01D1B8
:1036F00040B2C117002906DA0A460021404261EBB8
:1037000002012D2202E0220504D52B228DF804208F
:10371000012203E0E20701D02022F7E7914657E0BB
:103720000A2100E010214FF0000B00910BE0102166
:103730004FF0000B44F004040827009103E0082038
:103740004FF0000B0090C4F30252022A05D058F843
:10375000040B0021032A08D008E008F1070020F03C
:103760000702F2E80201904603E080B2042A00D189
:10377000C0B24FF0000922072AD53278702A07D04C
:10378000DDF800C08CF0100C5CEA0B0C05D00EE0EC
:1037900040228DF80420012208E050EA010306D0FF
:1037A00030238DF804308DF8052002229146009BCD
:1037B00083F0080353EA0B030AD150EA010201D156
:1037C000620705D530228DF804204FF001097F1ED5
:1037D0003278582A04D039A20C920CAA02920BE03B
:1037E0003BA2F9E75B46009AFCF7F8FC0C9B9B5C5C
:1037F000029A521E0292137050EA0102F2D102980C
:1038000004A9081A00F1200B600702D524F48034C3
:1038100000E001275F4502DDA7EB0B0000E0002080
:1038200000EB0B01009003984944401A0390E00319
:1038300006D453462146179A039800F0A9F9054487
:10384000002706E001A85246C05D179990476D1CFD
:103850007F1C4F45F6DBE0030CD553462146179AF3
:10386000039800F095F9054404E03020524617997A
:1038700090476D1C0099481E00900029F5DC08E077
:103880000298029952460078491C02911799904774
:103890006D1CBBF10001ABF1010BF1DC5BE100F051
:1038A00065F90544761C307800287FF40DAE19B018
:1038B0002846BDE8F08F000009280100303132337E
:1038C000343536373839616263646566000000005C
:1038D0003031323334353637383941424344454646
:1038E00000000000600700D4062708F1070020F060
:1038F0000700F0E80223804603F0004C5FEA0C006A
:1039000001D097A009E0200501D596A005E0E007C9
:1039100001D095A001E0AFF24C001390307823F075
:10392000004365280CD006DC452809D046281DD068
:1039300047287FD13BE0662818D067287AD136E047
:103940000021112F01DB112000E0781CCDE90001DE
:1039500004A90CA8FFF7EEFCDDE90D010C9A4FF06D
:10396000000B07F10109109200914EE04FF000406A
:103970000097CDE9011004A90CA8FFF7DBFCDDE9F5
:103980000D020C9B0F994FF0000B91461093009283
:1039900011B9791C00EB0109B7EB090003D4C0F1A0
:1039A000FF3B07F10109A9EB0700019042E0012F5D
:1039B00000DA01270021112F01DD112000E0384637
:1039C000CDE9000104A90CA8FFF7B4FCDDE90D0165
:1039D0000C9A00914FF0000BB946109221070FD4BA
:1039E000009A4A4503DA914601E0A9F10109B9F1CB
:1039F000010F05DD109AA9F10101515C3029F4D0C5
:103A0000B84202DA10F1040F03DA0121CDE9011006
:103A100010E0002803DC8344A9EB000102E0411C14
:103A2000494500DD8946A0EB0B00401C01904FF09A
:103A300000400290200705D40198484502DB4FF072
:103A4000FF30019000208DF84B0002980DF14B07DC
:103A5000B0F1004F25D002200C902B200D90029841
:103A600000280CDA404202902D200D9007E00A2138
:103A70000298FCF79DFB3031029007F8011D0C996C
:103A8000481E0C900029F2DC02980028EFD1791E24
:103A90000D980870307800F0200040F0450007F8DD
:103AA000020D11A8C01BC01D02901398007800B130
:103AB000012000EB0901019801EBE071029801443B
:103AC0000398401A401E0390E00306D45346214653
:103AD000179A039800F05CF805441398007818B121
:103AE0005246179990476D1CE00323D55346214653
:103AF000179A039800F04CF805441BE0BBF1000F47
:103B000007DB0098584504DD1098179910F80B0052
:103B100001E0179930205246904701980BF1010BB4
:103B2000401E05F10105019004D12E20524617993F
:103B300090476D1CB9F10001A9F10109DEDC05E037
:103B400017F8010B5246179990476D1C0299481EB1
:103B500002900029F4DC53462146179A03989EE60A
:103B60002D0000002B000000200000002DE9F04196
:103B7000044600251E461746880404D405E039464D
:103B80002020B0476D1C641EF9D52846BDE8F081A1
:103B90002DE9F041044600251E469046C80301D594
:103BA000302700E02027880404D505E04146384648
:103BB000B0476D1C641EF9D52846BDE8F0810000B1
:103BC00013B54FF0FF33012269460248FEF709FCA6
:103BD00000981CBDCC01002088B0FDF709FCFEF761
:103BE0007FFEFEF79BFCFEF78BFCFEF74DFCFEF71D
:103BF000B7FDFEF773FDFEF791FDFEF7FDFDFEF745
:103C000017FE57A0FFF766FB5FA0FFF763FBFFF708
:103C100019F85CA0FFF75EFB6420FDF7C7F963A00D
:103C2000FFF758FB6CA0FFF755FB78A0FFF752FB9E
:103C300000254FF47A780A244046FDF7B7F9FFF7DC
:103C400093F907AA06A905A8FEF7ECFFFEF7DAFF2D
:103C5000BDF91C1091FBF4F204FB1216BDF91820FB
:103C600091FBF4FC92FBF4F192FBF4F704FB1121BD
:103C7000BDF91420002E92FBF4F304FB132392FBF6
:103C8000F4F200DA7642002900DA4942CDF808C0A1
:103C9000CDE90360CDE90071002B00DA5B42691CBD
:103CA00068A0FFF717FB0026F0B2FEF7B1FF02286D
:103CB00052D0012852D06FA0FFF70CFB761C032EC8
:103CC000F2DB30A0FFF706FB6D1C142DB4DB2DA03A
:103CD000FFF700FBFFF734F867A0FFF7FBFA0A20B5
:103CE000FDF764F941F288352846FDF75FF9FFF7E3
:103CF0003BF906AA05A904A8FEF794FFFFF7DAF935
:103D0000FEF780FF0746BDF9180090FBF4F104FBB5
:103D10001106BDF9141090FBF4FC91FBF4F091FB3B
:103D2000F4F304FB1010BDF91010002E91FBF4F217
:103D300004FB121291FBF4F100DA7642002800DA5B
:103D40004042CDE9000C002ACDE9026700DA524278
:103D500054A0FFF7BFFAC7E761A0ADE761A0ABE7EA
:103D60000D0A3D3D3D3D3D3D3D3D3D3D20506861A1
:103D7000736520342054657374203D3D3D3D3D3DC9
:103D80003D3D3D3D0D0A000054657374696E67202A
:103D900074656D7065726174757265206D6F6475A0
:103DA0006C652E2E2E0D0A0D0A0000003D3D3D20B3
:103DB00054656D7065726174757265204D6F6E69C2
:103DC000746F72696E672054657374202832307383
:103DD00029203D3D3D0D0A0054696D6520204E545B
:103DE000433128432920204E5443322843292020A0
:103DF0004E544333284329202046414E2525202078
:103E00005374617475730D0A000000002D2D2D2D63
:103E10002D2D2D2D2D2D2D2D2D2D2D2D2D2D2D2DD2
:103E20002D2D2D2D2D2D2D2D2D2D2D2D2D2D2D2DC2
:103E30002D2D2D2D2D2D2D2D2D2D2D2D2D2D2D2DB2
:103E40000D0A00005B253264735D20202533642E4B
:103E50002564202020202533642E25642020202066
:103E60002533642E25642020202025336425252039
:103E7000200000002D0000003D3D3D3D3D3D3D3D0D
:103E80003D3D205068617365203420546573742073
:103E900050415353203D3D3D3D3D3D3D3D3D3D0D5C
:103EA0000A0D0A0054313A2533642E256443205408
:103EB000323A2533642E2564432054333A25336443
:103EC0002E2564432046414E3A25642525202D2089
:103ED00050686173652034204F4B0D0A00000000CC
:103EE000210000005700000010B517485FF00101E5
:103EF000B0F90C2000EB4103B3F90C30934200DD24
:103F00001A46491C0329F5DB817C0023C418E47C94
:103F1000022C11D05B1C032BF8DB0C465F290DD063
:103F20003224A1420FD0224608A0FFF7D3F9204641
:103F3000BDE81040FFF704B85F24F2E7B2F5117F47
:103F4000EFDA3224EFE710BD1402002046616E2044
:103F500073706565643A2025642525202D3E202553
:103F60006425250D0A0000002DE9F0410024194DBB
:103F70000126274605EB4400B0F90C102819C27C35
:103F80004AB1012A0ED0022A1BD0C774641C032C2C
:103F9000F0DBBDE8F081B1F5AF7FF7DBC674611CE3
:103FA0000DA014E0B1F5A57F03DAC774611C11A060
:103FB0000DE0B1F5167FE9DB0221C174611C15A08B
:103FC00005E0B1F5117FE1DAC674611C19A0FFF7B5
:103FD00081F9DBE7140200204E544325643A205453
:103FE000656D702072656163686564203335430DCB
:103FF0000A0000004E544325643A2054656D702039
:104000006261636B20746F206E6F726D616C0D0A5C
:10401000000000004E544325643A204F5645524854
:1040200045415421203630432072656163686564E0
:104030000D0A00004E544325643A2054656D7020EB
:104040006465637265617365642062656C6F772077
:104050003630430D0A000000390F70FE150FA2FE26
:10406000E70ED4FEAB0E06FF5F0E38FF000E6AFFB0
:104070008B0D9CFFFC0CCEFF510C00008B0B320013
:10408000AD0A6400BB099600BC08C800B707FA0077
:10409000B4062C01B9055E01CD049001F503C201FF
:1040A0003303F40189022602F70158027C018A02D7
:1040B0001601BC02C400EE0283002003520052032A
:1040C0002E0084031400B6030400E80300001A0461
:1040D00000004C0400007E040000B0040000E20474
:1040E000010202030405060708090A0B0C0D0E0F56
:1040F0001010000000000000000001020304060789
:104100000809000000000102030400002C4100081F
:10411000000000201C000000143300084841000883
:104120001C000020440600002433000800000000AA
:10413000000000000100000010000000000000006E
:0841400000127A0000000000EB
:0400000508000131BD
:00000001FF
