:020000040800F2
:1000000010060020490100082B25000845210008A2
:10001000292500083F0700080D2B000800000000FC
:100020000000000000000000000000002F25000874
:1000300041070008000000002D25000831250008B8
:100040006301000863010008630100086301000800
:1000500063010008630100086301000863010008F0
:1000600063010008630100086301000863010008E0
:1000700063010008630100086301000863010008D0
:100080006301000863010008DD0600086301000841
:1000900063010008630100086301000869070008A4
:1000A00063010008630100086301000863010008A0
:1000B0006301000863010008630100086301000890
:1000C0006301000863010008630100086301000880
:1000D000630100086301000863010008012B0008A8
:1000E000430700086301000863010008630100087A
:1000F0006301000863010008630100086301000850
:10010000630100086301000863010008630100083F
:10011000630100086301000863010008630100082F
:10012000630100086301000863010008630100081F
:10013000DFF810D000F042FA004800475D340008B4
:10014000AFF30080100600200648804706480047AD
:10015000FEE7FEE7FEE7FEE7FEE7FEE7FEE7FEE777
:10016000FEE7FEE7AF25000831010008202A04DB86
:10017000203A21FA02F00021704721FA02F3D04020
:10018000C2F120029140084319467047D2B201E003
:1001900000F8012B491EFBD270470022F6E710B58C
:1001A00013460A4604461946FFF7F0FF204610BDE5
:1001B000421C10F8011B0029FBD1801A704730B592
:1001C0000B46014600202022012409E021FA02F515
:1001D0009D4205D303FA02F5491B04FA02F52844AF
:1001E000151EA2F10102F1DC30BD2DE9F05F0546DC
:1001F000002092469B4688460646814640241BE0E6
:100200002846414647462246FFF7B0FF53465A4626
:10021000C01A914110D311461846224600F0E0F969
:100220002D1A67EB01084F4622460120002100F0FD
:10023000D7F917EB00094E41201EA4F10104DFDCC1
:10024000484631462A464346BDE8F09F2DE9FE4F19
:10025000804681EA0300C00F0C46009021F0004167
:1002600023F00045B8EB0200A94105D240462146E3
:1002700090461C460B46024623F00040104347D0F0
:10028000270DC7F30A00C3F30A510290401A0190E8
:1002900040286BDAC3F3130040F4801B00989246A9
:1002A00020B10023D2EB030A63EB0B0B01985946F4
:1002B000C0F14002504600F093F906460D46504604
:1002C0005946019A00F09BF910EB080061410024A7
:1002D00087EA115284EAE7731A4340D0009A62B366
:1002E000019A012A4FEA075215DC001B61EB02015B
:1002F0004FF0004202EA0752CDE90042001C41F5EE
:10030000801132462B4600F09BF903B0BDE8F08F18
:1003100040462146F9E7001B61EB0201001C41F554
:10032000801300185B412018A2F5001747EB03016A
:1003300040EAD570B6196D4111E06D084FEA3606F6
:1003400045EAC0754FEA0752001B61EB0201001C31
:1003500041F5801149084FEA3000001951413246F9
:100360002B4603B0BDE8F04F00F05BB900980122C6
:1003700040000023D0EB020263EBE07300982146BB
:100380004FEAE074B8EB000061EB0401E9E783F0A9
:1003900000435BE781F0004158E72DE9FE4F81EA19
:1003A000030404F0004421F0004100944FF0000BDE
:1003B00023F0004350EA01045ED052EA03045BD00C
:1003C000C3F30A54C1F30A552C44A4F2F334019444
:1003D000A0FB0254C1F3130141F48011C3F31303D2
:1003E00043F4801301FB024400FB034E840A970A86
:1003F00044EA815447EA8357A4FB076802958D0AB3
:1004000005FB07854FEA932C04FB0C542705029D3E
:100410004FEA065847EA1637B5EB08056EEB070CAE
:10042000870E920E47EA811742EA8312A7FB020168
:10043000B6EB0B0164EB00042B0D43EA0C335E18A2
:1004400044EB1C50DA465146E7FB0201C5F31304A6
:100450004FEA0B3343EA14534FEA0432019C43EA58
:100460000603A4F10C040294009CCDE900B400F052
:10047000E7F803B0BDE8F08F00200146F9E72DE969
:10048000F04D81EA030404F0004B21F000451446CE
:100490004FF0000A23F0004150EA050220D054EA50
:1004A00001021DD0C5F30A570246C5F31303C1F379
:1004B0001300C1F30A5640F4801543F48013A7EBF0
:1004C0000608101BD64608F2FD3873EB050002D370
:1004D00008F1010801E092185B41B8F1000F03DA5E
:1004E00000200146BDE8F08D00204FF48011064643
:1004F00084460EE0171B73EB050705D3121B63EB55
:10050000050306434CEA010C49084FEA30009218F3
:100510005B4150EA0107EDD152EA030012D082EAB2
:10052000040083EA0501084305D0101BAB4106D245
:100530000122002306E000224FF0004302E06FF0AA
:10054000010253101AEB06004CEB085110EB0A00A5
:1005500041EB0B01BDE8F04D00F063B8C1F30A5266
:10056000C1F3130140F2FF3341F480119A4202DAE1
:1005700000200146704740F233439A42A2F23342D0
:1005800002DC5242FFF7F2BD00F02AB830B5041E7B
:1005900071F1000404DB4FF00044404264EB0101C0
:1005A000141E73F1000405DB1C464FF00043524259
:1005B00063EB0403994208BF904230BD064C074DDF
:1005C00006E0E06840F0010394E807009847103423
:1005D000AC42F6D3FFF7B0FD443800086438000899
:1005E000202A04DB203A00FA02F1002070479140F3
:1005F000C2F1200320FA03F3194390407047202AE8
:1006000006DBCB17203A41FA02F043EAE07306E03A
:1006100041FA02F3D040C2F120029140084319464A
:10062000704710B5141E73F1000408DA401C41F144
:10063000000192185B411A4301D120F0010010BD66
:100640002DE9F04D92469B4611B1B1FA81F202E0DC
:10065000B0FA80F220329046FFF7C2FF04460F4600
:1006600040EA0A0041EA0B0153465A46084313D0B8
:10067000114653EA010019D0C8F140025046FFF775
:1006800075FD05460E46504659464246FFF7A8FFFF
:10069000084305D0012004E020463946BDE8F08D2E
:1006A0000020054346EAE0762C4337430A98630569
:1006B000E40AA0EB08000022FD0A44EA47540A308D
:1006C00002D500200146E9E7010510196941DDE97D
:1006D000084500196941BDE8F04DA2E7014800F066
:1006E000D4B800001400002070B50446006881688A
:1006F000C943C90717D1816821F00101816000F069
:1007000031FC05460AE000BF00F02CFC401B02282B
:1007100004D920688068C043C00706D0206880687C
:10072000C043C007F0D0002070BDA06A40F01000A8
:10073000A062E06A40F00100E062012070BDFEE7C7
:10074000704710B54FF4805000F0FEFA4FF400509F
:1007500000F0FAFA4FF4804000F0F6FABDE81040DD
:100760004FF4004000F0F0BA10B5202000F0ECFA91
:100770004FF4807000F0E8FABDE810404FF40070CC
:1007800000F0E2BA72B6FEE770470000F8B5002448
:10079000009490F824202546012A12D0012280F8E6
:1007A00024204A681F23072A0DD20668776B521E41
:1007B00002EB820293409F430B6893401F43776391
:1007C00019E00220F8BD06680D2A0AD2376BD21F45
:1007D00002EB820293409F430B6893401F433763B1
:1007E00009E0F76A0D3A02EB820293409F430B68DF
:1007F00093401F43F7620A68072306680A2A0AD350
:10080000F7680A3A02EB420293409F438B68934099
:100810001F43F76008E0376902EB420293409F43B1
:100820008B6893401F4337610A68102A01D0112A50
:1008300020D1124B02689A4217D193681B0219D437
:10084000936843F4000393600968102912D10C499E
:100850000C4A0968B1FBF2F101EB8101490000E0AB
:10086000491E00910029FBD104E0816A41F020017A
:100870008162012480F824502046F8BD0024014004
:100880000C00002040420F00704770B5044600681D
:1008900006684568A90625D5B10723D5A16AC9060A
:1008A00003D4A16A41F40071A1628168C1F342419D
:1008B000072910D1217B71B9416821F020014160E5
:1008C000A06A20F48070A062A06AC00403D4A06A69
:1008D00040F00100A0622046FFF7D6FF21686FF0CC
:1008E0001200086028062ED570072CD5A06AC00615
:1008F00003D4A06A40F40050A06220688168C1F36C
:100900000231072909D04168490515D48168C1F32E
:100910004241072910D1217B71B9416821F0800142
:100920004160A06A20F48050A062A06AC00503D490
:10093000A06A40F00100A0622046FFF725FF216871
:100940006FF00C00086068060CD5F0070AD0A06AAA
:1009500040F48030A062204600F096F821686FF0E5
:100960000100086070BD00002DE9F04104004FF067
:1009700000057FD0A06A002628B9E66284F82460CA
:10098000204600F083F82046FFF7AEFEA16AC906B4
:1009900000D420B1A06A40F01000A0626AE0A16A11
:1009A00021F4885141F00201A162334923688B424E
:1009B000E16904D1B1F5402F01D14FF40021277B2B
:1009C0004FF4807C41EA470261680A43A1686145AF
:1009D00008D0012906D0002194F814E0BEF1010FDF
:1009E00002D00AE06146F7E7C7B1A76A47F02007DF
:1009F000A762E76A47F00107E7625F6827F4694783
:100A00000F435F60236899681C4F39401143996018
:100A1000A16861450BD0012909D00CE0DFF860E046
:100A2000A7690EEB47370F4347F40061E5E7218ADA
:100A30000D05A5F580152168CB6A23F470032B43BF
:100A4000CB62216889680F4B1940914208D1E66258
:100A5000A16A21F0020141F00101A162BDE8F0812B
:100A6000A06A20F0020040F01000A062E06A40F0AE
:100A70000100E0620120F1E7003C0140FDF7E1FFE9
:100A800000E0FFFFFE0E1FFF7047000070B586B04C
:100A900000250646009501950295039500681E49BC
:100AA000884236D11D49886940F4007088618869A0
:100AB00000F400700490886940F00400886188693F
:100AC000694600F004000490072000900320019084
:100AD000134800F045F9144C1248C4E90005802081
:100AE000C4E9025040002061800060612020C4E918
:100AF0000605204600F0D6F808B1FFF743FE346241
:100B0000002205211220666200F08AFB122000F00C
:100B100079FB06B070BD00000024014000100240C7
:100B200000080140080002404400002010B590F881
:100B300021100022022905D00421816380F82020A1
:100B4000012010BD01680B6823F00E030B600168E3
:100B50000B6823F001030B6090F84030C46B012157
:100B600001FA03F3636080F8211080F8202010461A
:100B700010BD00002DE9F05F90F82110002402293B
:100B800003D004218163012485E001680A6822F012
:100B90000E020A6001680A6822F001020A603F4EF4
:100BA0003E4FB215DFF8F4C0DFF8F090DFF8ECA0AC
:100BB000DFF8E8B0DFF8E4E00168783F13011502E0
:100BC000ACF1640CA9F15009AAF13C0AABF1280B75
:100BD000AEF1140E4FF48018B14227D9B9420ED0AD
:100BE000614512D049451DD0514518D0594518D0FE
:100BF000714501D1424615E0294EB14201D1012291
:100C000010E0274E1436B14201D110220AE0244EE2
:100C10002836B14206D0224A3C32914201D11A46CE
:100C200000E02A461E49091F0A602BE0B94213D092
:100C3000614517D0494522D051451DD059451DD099
:100C4000714501D142461AE0B14202D14FF08072A3
:100C500015E0134EB14201D1012210E0104E1436BE
:100C6000B14201D110220AE00D4E2836B14206D021
:100C70000B4A3C32914201D11A4600E02A4607490C
:100C800080394A60012180F82110002180F820106D
:100C9000416B01B188472046BDE8F09F80000240CB
:100CA0000804024030B560B11A4B026814219A4220
:100CB00009D2194B1344B3FBF1F1890001641749C0
:100CC0000AE0012030BD134B5B421344B3FBF1F14A
:100CD000890001640F490839C163022180F821109D
:100CE000136843F6F0718B43F0E901142143D0E916
:100CF00002452C432143046921434469214384690B
:100D00002143194311600021416301224277017799
:100D1000084630BD08040240F8FFFDBF0000024055
:100D200070B5044600F01EF90546601C02D0044868
:100D30000078044400F016F9401BA042FAD370BDBD
:100D40000000002070470000044910B50A68024204
:100D500002D00860FFF7F6FF10BD00001404014048
:100D60002DE9F84FDFF8C8910024A9F1040B2346C0
:100D70000F2709F1040AABF1040ED1E00125A540CB
:100D800006EA0502AA4276D1DFF8A8C14E68A6EBB2
:100D90000C0866452BD00DDC032E34D005DC36B3B1
:100DA000012E19D0022E2FD11BE0112E16D0122E9B
:100DB0002AD119E0B8F5881F19D006DCB8F5803FB4
:100DC00015D0B8F5801F1FD111E0B8F5001F0ED067
:100DD000B8F5041F18D10AE0CB6815E0CB681B1DDD
:100DE00012E0CB6808330FE0CB680C330CE08B6863
:100DF0002BB1012B4FF0080303D0456104E004231D
:100E000002E0056100E00023FF2A01D8064601E068
:100E100000F104064FEA840501D9A5F12005D6F8B2
:100E2000008007FA05FC28EA0C0803FA05F548EAF1
:100E30000508C6F800804D68ED0070D53E4DAE69DE
:100E400046F00106AE61AD6924F0030605F0010528
:100E500000953A4D06EB050CDCF80850A607360F56
:100E600007FA06F825EA0805DFF8D480404503D1E3
:100E70004FF0000825E052E0DFF8C880404502D17D
:100E80004FF001081DE0DFF8C080404502D14FF06F
:100E9000020816E0DFF8B480404502D14FF00308A5
:100EA0000FE0DFF8AC80404502D14FF0040808E0C5
:100EB000DFF8A080404502D14FF0050801E04FF077
:100EC000060808FA06F848EA0508CCF808804D68D4
:100ED000D9F80060ED024D4601D5164300E0964377
:100EE0002E604D68DAF80060AD02554601D5164314
:100EF00000E096432E604D68DBF80060AD035D4670
:100F000001D5164300E096432E604D68DEF8006080
:100F1000ED03754601D5164300E096432E60641C30
:100F20000A681646E2407FF429AFBDE8F88F00005A
:100F300008040140000011100010024000000140B0
:100F400000080140000C0140001001400014014065
:100F500000180140001C01400AB1016170470904FA
:100F6000FBE7000001488068704700000000002097
:100F700070B5040025D094F83D00002520B984F810
:100F80003C50204600F0B8F8242084F83D0020684A
:100F9000016821F0010101602068016841F400410D
:100FA00001602068016821F40041016000F076FAD8
:100FB0004D4A6168914201D84C4900E04C49884251
:100FC00001D2012070BD4B492368B0FBF1F15E688E
:100FD00026F03F060E435E606368934206D94FF4E5
:100FE000967359434FF47A73B1FBF3F12368491CAC
:100FF0001E6A26F03F06314319626168914210D89B
:101000004900401EB0FBF1F2521CC2F30B02042A4D
:1010100001D2042022E0B0FBF1F0401CC0F30B0031
:101020001CE0A268F2B301EBC10303EB0116431EFF
:10103000B3FBF6F35B1C43F480431B0549D092B32A
:1010400001EBC10202EB0111401EB0FBF1F0401CAC
:10105000C0F30B0040F4804040F400402168CA69AE
:101060004CF6FF739A431043C861D4E9071001435B
:101070002068026822F0C00211430160D4E9030134
:1010800001432068826848F2FF339A43114381602C
:10109000D4E9050108432168CA6822F0FF02104321
:1010A000C86001E00EE016E02068016841F001012F
:1010B00001602564202084F83D00256384F83E50BB
:1010C000002070BD01EB4106431EB3FBF6F35B1C31
:1010D000B3E70120C2E701EB4101401EB0FBF1F094
:1010E000401CC0F30B00B7E7A086010080841E00FF
:1010F00000093D0040420F0010B586B0002100916C
:1011000001910291039100680F4988421AD10F4C56
:10111000A06940F00800A061A069694600F00800DD
:101120000490C020009012200190032003900848F2
:10113000FFF716FEE06940F40010E061E06900F49A
:101140000010049006B010BD005400400010024092
:10115000000C0140024881680278114481607047A8
:1011600000000020074810B5016841F0100101603F
:10117000032000F075F80F2000F006F800F024F8C6
:10118000002010BD0020024070B50D4D04464FF404
:101190007A712878B1FBF0F00A490968B1FBF0F0E8
:1011A00000F0E6FB48B9102C07D200222146501E61
:1011B00000F036F800206C6070BD012070BD0000AA
:1011C000000000200C0000200C4808B5816941F0A7
:1011D00001018161816901F001010091C16941F062
:1011E0008051C161C06900F080500090044841689E
:1011F00021F0E06141F00071416008BD0010024043
:1012000000000140002809DB00F01F02012191408D
:101210004009800000F1E020C0F800117047000094
:10122000F0B40E4B1B680C46C3F30223C3F1070551
:10123000042D00D90425191D072901D2002300E03F
:10124000DB1E012606FA05F1491E214099409E4009
:10125000761E16403143F0BC01F084BC0CED00E07A
:10126000064900F0070208684FF6FF03184040EAFD
:101270000220034A10430860704700000CED00E0B4
:101280000000FA052DE9F84305460078354CC00703
:1012900054D0E0690026C00008D4E06940F08050D6
:1012A000E061E069012600F0805000902E4801685E
:1012B000C90512D40168804641F480710160FFF7CE
:1012C00051FE074605E000BFFFF74CFEC01B642837
:1012D00023D8D8F80000C005F6D5206A10F4407075
:1012E00021D0A98801F4407181421CD0206A1F4995
:1012F000012220F440700A6000220A602062C007C8
:1013000011D0FFF72FFE074641F2883808E000BFF2
:10131000FFF728FEC11B414502D90320BDE8F88331
:10132000206A8007F4D5206A696820F44070084379
:1013300020621EB1E06920F08050E06128788007CB
:1013400005D56068A96820F44040084360602878AB
:10135000C00605D56068696920F4800008436060B4
:101360000020DBE7001002400070004040044242D1
:101370002DE9F0470F46050061D0434E306800F07C
:101380000700B84209D2306820F0070038433060C7
:10139000306800F00700B84251D128683B4C810703
:1013A00012D5400703D5606840F4E060606028789B
:1013B000000703D5606840F4605060606068A96809
:1013C00020F0F000084360602878C00728D06868E3
:1013D000012810D02168022810D0890700292EDAB0
:1013E000616821F0030101436160FFF7BBFD8046A6
:1013F00041F288390DE021688903EFE78901EDE7C3
:10140000FFF7B0FDA0EB0801494502D90320BDE874
:10141000F0876068696800F00C00B0EB810FEFD1D5
:10142000306800F00700B8420BD9306820F00700A0
:1014300038433060306800F00700B84201D0012026
:10144000E5E72878400705D56068E96820F4E060A2
:10145000084360602878000706D56068296920F491
:10146000605040EAC100606000F038F86168084AE6
:10147000C1F30311515CC840064908600648006882
:10148000FFF782FE0020C2E7002002400010024069
:101490002A3800080C0000200400002004480549F8
:1014A00000684968044AC1F30221515CC840704792
:1014B0000C000020001002403A380008044805499A
:1014C00000684968044AC1F3C221515CC8407047B2
:1014D0000C000020001002403A3800080E4A516803
:1014E0000E4801F00C03042B11D0082B0FD10C482F
:1014F000C1F38343C903C05C0AD55168084AC1F3EC
:101500004041921E515C054A5043B0FBF1F07047D8
:1015100004494843704700000010024000127A005E
:101520001A38000800093D002DE9F84F040070D07A
:101530002078C04DC00749D06868C0F381000128F9
:1015400007D06868C0F38100022809D16868C00329
:1015500006D52868800339D560680028E7D035E0D3
:101560006068B0F5803F0BD010B1B0F5A02F11D05E
:10157000286820F480302860286820F4802002E069
:10158000286840F480302860606890B1FFF7EAFC7A
:1015900006460AE0286840F480202860F0E700BF93
:1015A000FFF7E0FC801B642873D828688003F7D518
:1015B0000CE0FFF7D7FC064605E000BFFFF7D2FCC2
:1015C000801B6428F0D828688003F7D420789A4ECE
:1015D00080074FF001094FF0000839D5686810F016
:1015E0000C0F07D06868C0F38100022809D1686831
:1015F000C00306D42868800714D52069012808D1C3
:1016000010E02069B0B1C6F80090FFF7ABFC0746C8
:1016100005E00AE1FFF7A6FCC01B0228C4D8286831
:101620008007F7D52868616920F0F80040EAC1001A
:1016300028600DE0C6F80080FFF794FC074604E040
:10164000FFF790FCC01B022823D828688007F7D436
:10165000207800072CD57948A169D9B1C0F800904D
:10166000FFF780FC074604E0FFF77CFCC01B022864
:101670000FD8686A8007F7D571484FF4FA510068AF
:10168000B0FBF1F0009000BF0098411E0091FAD22B
:101690000EE080E0C0F80080FFF764FC074604E03D
:1016A000FFF760FCC01B022875D8686A8007F7D472
:1016B0002078400760D5E8690027C00008D4E869B1
:1016C00040F08050E861E869012700F08050009008
:1016D0005C480168C90513D40168834641F48071F0
:1016E0000160FFF73FFC824606E000BFFFF73AFCCF
:1016F000A0EB0A0064284ED8DBF80000C005F5D541
:10170000E06801280AD008B1052813D0286A20F023
:1017100001002862286A20F0040002E0286A40F0F4
:1017200001002862E06841F2883B98B1FFF71AFC9B
:1017300082460BE0286A40F004002862EEE700BF12
:10174000FFF710FCA0EB0A0159455AD8286A800718
:10175000F6D50CE0FFF706FC824605E0FFF702FC39
:10176000A0EB0A0159454CD8286A8007F6D41FB16E
:10177000E86920F08050E861E06988B36968C1F3E6
:101780008101022944D00228C6F8608004D0FFF706
:10179000E9FB044638E034E0FFF7E4FB074604E0E9
:1017A000FFF7E0FBC01B02282BD828688001F7D484
:1017B000206AB0F5803F05D16868A16820F4003048
:1017C00008436860D4E908010843696821F474118A
:1017D00008436860C6F86090FFF7C4FB044606E063
:1017E00025E000BFFFF7BEFB001B022809D82868D0
:1017F0008001F7D51BE000BFFFF7B4FB001B0228F8
:1018000002D90320BDE8F88F28688001F4D40EE0E7
:101810000128F7D06868226A00F48031914204D12F
:10182000616A00F47010884201D00120EAE70020CC
:10183000E8E70000001002400000424280044242FB
:101840000C0000200070004070B5040009D0606AF0
:10185000002540B125616561A56294F8510040B151
:101860000CE0012070BD6068B0F5827FF4D0E561C6
:10187000F2E784F85050204600F040F8022084F847
:1018800051002068016821F040010160A088218991
:1018900000F4827001F404410843A18901F400615D
:1018A0000843217C01F002010843217D01F0010180
:1018B0000843218B01F400710843217F01F03801B6
:1018C000084394F8201001F080010843218D01F4B1
:1018D0000051084321680860A069042101EA104012
:1018E000216848602068C16921F40061C1616565B3
:1018F000012084F85100002070BD000030B585B093
:1019000000240094019402940394006815498842CD
:1019100025D11548C16941F48041C161C16901F413
:1019200080410491816941F00801816180690F4D16
:1019300000F0080004904FF4204000900220019035
:101940000320039069462846FFF70AFA4FF48040C7
:10195000CDE90004694628460294FFF701FA05B074
:1019600030BD00000038004000100240000C014073
:1019700010B5401EB0F1807F01D3012010BD4FF0A3
:10198000E02460610F21601701F0ECF80020A061F5
:1019900007202061002010BD70B590F83C20012A7E
:1019A0002CD0012480F83C40022280F83D200368BE
:1019B0005A689D6822F070060A6832435A60104BDC
:1019C00002689A420ED00F4B9A420BD0B2F1804F70
:1019D00008D00D4B9A4205D00C4B9A4202D00C4BCA
:1019E0009A4204D1496825F080031943916080F838
:1019F0003D40002180F83C10084670BD022070BDBB
:101A0000002C014000340140000400400008004068
:101A1000000C004010B5040003D094F83D0010B154
:101A200007E0012010BD002084F83C00204600F0B3
:101A30001FF8022084F83D00211D206800F0B8FD49
:101A4000012084F8460084F83E0084F83F0084F8C2
:101A5000400084F8410084F8420084F8430084F890
:101A6000440084F8450084F83D00002010BD0000CB
:101A700008B500680649884208D10648C16941F0A6
:101A80000201C161C06900F00200009008BD0000C1
:101A9000000400400010024070B5044690F83C007D
:101AA0000025012817D0012684F83C60022084F824
:101AB0003D002068826822F0770222F47F42826033
:101AC0000868502838D00DDC20284FD005DC90B3B2
:101AD000102811D14AE0022070BD302846D040289D
:101AE0000AD13BE060282FD070280DD0B0F5805F80
:101AF00003D0B0F5005F12D0012584F83D600020CE
:101B000084F83C00284670BDCB68D1E901212068EB
:101B100000F09CFD2068816841F0770109E0CB6806
:101B2000D1E90121206800F091FD2068816841F42D
:101B300080418160E1E719E0CA684968206800F0E7
:101B400059FE5021206806E0CA684968206800F004
:101B500062FE6021206800F083FDCEE7CA68496814
:101B6000206800F047FE40212068F4E72268014623
:101B70001046F0E700B585B0002100910191029177
:101B8000039100680B49884211D10B48816941F0EB
:101B9000040181618069694600F0040004904020DE
:101BA00000900220019003900448FFF7D9F805B097
:101BB00000BD000000040040001002400008014089
:101BC00070B5044690F83C0000260D4601280FD061
:101BD000012084F83C006AB1042A1DD0082A2FD0C5
:101BE0000C2A3FD00126002084F83C00304670BD0E
:101BF000022070BD206800F03BFD2068816941F043
:101C0000080181612068816921F0040181612068F7
:101C100081692A69114311E0206800F059FD2068AC
:101C2000816941F4006181612068816921F48061EA
:101C30008161206881692A6941EA02218161D2E7D4
:101C4000206800F07BFD2068C16941F00801C16196
:101C50002068C16921F00401C1612068C1692A6955
:101C6000114311E0206800F09DFD2068C16941F436
:101C70000061C1612068C16921F48061C16120688F
:101C8000C1692A6941EA0221C161ACE710B50400CB
:101C900003D094F83D0010B107E0012010BD0020F2
:101CA00084F83C00204600F01EF8022084F83D0035
:101CB000211D206800F07CFC012084F8460084F897
:101CC0003E0084F83F0084F8400084F8410084F826
:101CD000420084F8430084F8440084F8450084F806
:101CE0003D00002010BD704770477047F8B501688F
:101CF00004460868CA684B6910F00F0F4FF00005E2
:101D000059D003F0010602F49077374365D0C1073C
:101D100005D0D10503D5616C41F001016164410733
:101D200005D5D90703D0616C41F0020161648107D8
:101D300005D5D90703D0616C41F004016164010746
:101D400007D502F02001314303D0616C41F0080156
:101D50006164616C00293AD0800604D5900602D5F2
:101D6000204600F0D5FD20684069616CC0F380100A
:101D7000090700D460B3204600F067FD2068406981
:101D8000400621D52068143050E8001F21F04001A2
:101D900040E80012002AF5D1E06BA8B16D4941631B
:101DA000E06BFEF7E7FE002811D0E06B416B01B05D
:101DB000BDE8F040084783060FD593060DD52046B1
:101DC000BDE8F84000F0A4BD2046FFF78EFFF8BD47
:101DD0002046FFF78AFF6564F8BD266B2023012E9D
:101DE0007CD1C6067AD5D60678D5086848680090B2
:101DF00048694FF00206400640D5E16B086840682C
:101E00000004000CE8D0A28D8242E5D9E085886903
:101E100020282DD020680C3050E8001F21F480715C
:101E200040E80012002AF5D12068143050E8001F65
:101E300021F0010140E80012002AF5D12068143099
:101E400050E8001F21F0400140E80012002AF5D1BF
:101E500084F84230256320680C3050E8001F21F0E0
:101E6000100140E80012002AF5D1E06BFEF75EFE9B
:101E70006663A08DE18D401A81B22AE0A08DE18DCC
:101E8000401A81B2E08D0028A6D00029A4D0226893
:101E90000C3252E8000F20F4907042E80007002F47
:101EA000F5D12068143050E8002F22F0010240E8FC
:101EB0000027002FF5D184F84230256320680C30CC
:101EC00050E8002F22F0100240E80023002BF5D14B
:101ED00066632046FFF708FFF8BDFFE705062BD530
:101EE000150629D594F841002128F5D1A068B0F550
:101EF000805F01D12069B0B1206A411C2162216854
:101F000000784860E08C401E0004000CE084E3D1BF
:101F10002068C16821F08001C1602068C16841F07B
:101F20004001C160D8E7206A0088C0F3080048601B
:101F3000206A801C2062E5E74006CDD55006CBD54F
:101F4000CA68204622F04002CA6084F8413000F09E
:101F5000F8F8C1E73B28000870B5040004D094F8F5
:101F60004100002510B106E0012070BD84F840500A
:101F7000204600F023F8242084F841002068C1683E
:101F800021F40051C160204600F024FD2068016961
:101F900021F4904101612068416921F02A014161E9
:101FA0002068C16841F40051C1606564202084F854
:101FB000410084F842006563002070BD70B586B0B2
:101FC0000024009401940294039403682F482E4E39
:101FD000022103220515B34221D1836943F48043D2
:101FE0008361836903F480430493836943F00403AA
:101FF00083618069264E00F0040004900802CDE958
:102000000001039269463046FEF7AAFECDE900546E
:10201000694630460294FEF7A3FE06B070BD1D4E21
:10202000B342FAD1C36943F48023C361C36903F4A3
:1020300080230493836943F0100383618069CDE9B1
:10204000005100F01000CDE90320134D69462846E9
:10205000FEF786FEE814CDE900046946284602949E
:10206000FEF77EFE0D48416821F0300141F0E0614D
:1020700041F010014160002211462720FFF7D0F8FF
:102080002720FFF7BFF8C8E70038014000100240E2
:1020900000080140004800400010014000000140DD
:1020A00070472DE9F843044690F8410098461646DB
:1020B0000D46202802D00220BDE8F88385B17EB10C
:1020C00000206064212084F84100FEF74BFFA684C5
:1020D0008146E684A0682027B0F5805F02D003E047
:1020E0000120E9E7206910B12E4600250EE0002608
:1020F0000CE08021204600F0C9FCA8B9C6B116F852
:10210000010B21684860E08C401EE084E08C4B4667
:102110004FF00002CDF800800028EAD14FF04001D6
:10212000204600F0B3FC40B184F841700320C3E7BF
:1021300035F8020BC0F30800E3E784F84170002093
:10214000BAE77047FEE70000FEB500241B48009484
:102150000194194902940160891581600125057374
:102160000475032606614FF460214460C161FEF7E7
:10217000FBFB08B1FEF706FB05200094CDE90150FA
:1021800069460E48FEF702FB08B1FEF7FBFA02248F
:10219000CDE9005469460948FEF7F8FA08B1FEF7A0
:1021A000F1FACDE9004669460448FEF7EFFA002847
:1021B00001D0FEF7E7FAFEBD002401401400002024
:1021C000054808B5416941F001014161406900F0ED
:1021D0000100009008BD0000001002402DE9F04F02
:1021E00085B00025664800950195029503958169A3
:1021F00041F010018161816901F010010491816950
:1022000041F020018161816901F02001049181691F
:1022100041F004018161816901F004010491816947
:1022200041F0080181618069DFF858B100F00800D1
:1022300004900122CF215846FEF78EFE41F2B808E5
:10224000012241465048FEF787FE41F2180901225B
:1022500049464E48FEF780FE4FF4006A0022514680
:102260004948FEF779FE012204214948FEF774FE31
:10227000484F4FF4C040CDE900070124694602945D
:102280005846FEF76DFDCF20CDE900040326CDE9C9
:10229000024669465846FEF763FDCDE90084CDE964
:1022A000024669463848FEF75BFD4FF44C704FF02C
:1022B00002088DE8210169465846FEF751FD40F6B7
:1022C00003408DE8210169463048FEF749FDCDE91C
:1022D0000094CDE9024669462C48FEF741FD4FF4D3
:1022E0008079CDF80090CDE9015869462648FEF77F
:1022F00037FDCDF800A00396CDE901486946224894
:10230000FEF72EFDE003CDE90007694602941E4862
:10231000FEF726FD200300901F48CDE90104694621
:102320005846FEF71DFD0420CDE90004CDE9024624
:1023300069461748FEF714FD4FF40870CDE9000711
:10234000694602941148FEF70BFDCDF80090CDE9E7
:10235000017569460D48FEF703FD00220421172090
:10236000FEF75EFF1720FEF74DFF00220421282014
:10237000FEF756FF2820FEF745FF05B0BDE8F08FB9
:10238000001002400010014000080140000C014014
:102390000014014000003110000011100D4810B56C
:1023A0000B4901600C49416000214FF4804281607B
:1023B000C0E9031241618161C1610162FEF7D8FD8C
:1023C000002803D0BDE81040FEF7DCB910BD0000C6
:1023D0000054004088000020A08601000F4810B57E
:1023E0000D4901604FF48271416000218160C1603C
:1023F0004FF400720161C0E90512C16101624162DE
:1024000081620A21C162FFF71FFA002803D0BDE8EC
:102410001040FEF7B7B910BD00380040DC000020C6
:1024200010B58EB000240794089409940A940B9474
:102430001C2168460C94FDF7B0FE1E481C49016043
:102440002321C0E901146321C0E903148461FFF76B
:10245000E1FA08B1FEF796F94FF48050079007A90A
:102460001448FFF719FB08B1FEF78CF91148FFF784
:102470000DFC08B1FEF786F90B940BA90D480C94DE
:10248000FFF78AFA08B1FEF77DF96020009032204C
:10249000CDE901040022694606480494FFF790FB49
:1024A00008B1FEF76FF90348FFF764FB0EB010BDEB
:1024B00000040040340100200C4810B50A490160B6
:1024C0004FF4E1314160002181600C22C160C0E91C
:1024D00004128161C161FFF73FFD002803D0BDE810
:1024E0001040FEF74FB910BD003801407C010020BC
:1024F0000C4810B50A4901604FF4E13141600021F8
:1025000081600C22C160C0E904128161C161FFF7E2
:1025100023FD002803D0BDE81040FEF733B910BDFD
:1025200000480040C4010020FEE7FEE77047704706
:10253000FEF710BE30B595B028216846FDF72DFE98
:1025400014210AA8FDF729FE18210FA8FDF725FE82
:1025500001210804CDE90010002502950224049110
:10256000CDE907404FF4E01009906846FEF7DCFF24
:1025700008B172B6FEE70AA90F2081E831004FF4D6
:102580008060CDE90D0502210AA8FEF7F1FE08B131
:1025900072B6FEE74FF4004011900F940FA8FEF7BB
:1025A00071FE002801D072B6FEE715B030BD70474D
:1025B000F0B50268204C214D214E224F224B4FF0A6
:1025C000804CA04209D0984207D0604505D0A8426F
:1025D00003D0B04201D0B84204D122F0700E4A6854
:1025E00042EA0E02A04209D0984207D0604505D0C9
:1025F000A84203D0B04201D0B84203D122F44075C2
:10260000CA682A434D6922F080022A4302608A6820
:10261000C2620A688262A04201D0984201D109696F
:102620000163012141610169C90703D0016921F0FA
:1026300001010161F0BD0000002C014000040040D8
:1026400000080040000C00400034014010B58468D0
:1026500042EA032224F47F440A432243826010BDED
:10266000826822F070020A4342F0070181607047DD
:10267000F0B5036A026A22F00102026242688469CC
:10268000124E24F073050C682C4323F002058B686E
:102690002B430D4DA84201D0B04205D123F00807CD
:1026A000CB683B4323F00403A84201D0B04205D1DC
:1026B0004D6922F4407215438A692A43426084615D
:1026C000496841630362F0BD002C014000340140C1
:1026D000F0B5026A036A23F0100303624368846959
:1026E0000D6824F4E64444EA05248D6822F02002B3
:1026F00042EA05120F4D104EA84201D0B04206D159
:10270000CF6822F0800242EA071222F04002A8427B
:1027100001D0B04207D14D6923F4406343EA8503F9
:102720008D6943EA8503436084614968816302627D
:10273000F0BD0000002C014000340140F0B5026AF9
:10274000036A23F4807303624368C46922F400724D
:1027500024F073050C68124E2C438D6842EA052262
:102760000E4DA84201D0B04206D1CF6822F40062DB
:1027700042EA072222F48062A84201D0B04207D187
:102780004D6923F4405343EA05138D6943EA051369
:102790004360C4614968C1630262F0BD002C01401E
:1027A0000034014030B5046A026A22F480520262A9
:1027B0004268C3690D6823F4E64343EA05238D6844
:1027C00024F4005444EA0534084DA84202D0084DD0
:1027D000A84204D14D6922F4804242EA8512426047
:1027E000C36149680164046230BD0000002C0140EF
:1027F0000034014010B5036A046A24F00104046245
:10280000846924F0F00444EA021423F00A020A4323
:102810008461026210BD10B5036A046A24F01004DA
:102820000462846923F0A00324F4704444EA023271
:1028300043EA01118261016210BD10B5406A0021B6
:10284000C185C184FFF751FA10BD01680C3151E810
:10285000002F22F4907241E80023002BF5D101688B
:10286000143151E8002F22F0010241E80023002B2F
:10287000F5D1016B012909D101680C3151E8002F14
:1028800022F0100241E80023002BF5D1202180F82E
:10289000421000210163704770B50C46054600F0F8
:1028A0000DF822462946BDE8704001A000F030B97D
:1028B0005B25735D2025730D0A00000010B5FEF73F
:1028C00051FB0146BDE8104001A000F021B9000015
:1028D0005B256C75206D735D200000000FB44FF414
:1028E000807100B5C1B043AB6846429A00F020F950
:1028F0006846FDF75DFC82B24FF0FF33694603483E
:10290000FFF7CFFB41B05DF814FB0000C4010020CD
:1029100008B590F84210222901D0022008BD826833
:102920004FF480539A4201D1016921B1816A9A42E0
:102930001BD04AB10AE00268816A5268C2F30802F9
:102940000A80816A891C08E0026972B102685268D3
:1029500002F07F020A70816A491C8162C18D491EA2
:102960000904090CC18503D01BE002685268F1E735
:102970000168CA6822F02002CA600168CA6822F4AD
:102980008072CA6001684A6922F001024A6120210E
:1029900080F8421000214163026B012A03D0FFF747
:1029A0007FFB002008BD016301680C3151E8002F56
:1029B00022F0100241E80023002BF5D101680A68DB
:1029C000D20602D50A6849680091818DFFF78CF91B
:1029D000E7E7000070B5044600680169E26821F489
:1029E0004051114301612169A068084361690843AE
:1029F0002168CA6841F20C639A430243CA602068A6
:102A00004169A26921F44071114341611E49206866
:102A1000884202D1FEF752FD01E0FEF73FFD00EBD8
:102A2000C00101EB0012606864218000B2FBF0F38A
:102A3000B3FBF1F36FF018067343B2FBF0F5B2FB92
:102A4000F0F605EB8305322303EB0515B5FBF1F535
:102A5000B6FBF1F605F0F00505EB0615B2FBF0F656
:102A6000B2FBF0F0B0FBF1F06FF01802504306EB50
:102A7000800003EB0010B0FBF1F0216800F00F00C4
:102A80002844886070BD0000003801402DE9F843FB
:102A9000984617460D460446089E24E0701C22D036
:102AA000FEF760FAA0EB0800B0421AD8CEB1206859
:102AB000C168490717D5802D15D0402D13D0016866
:102AC000C94309070FD401680025406800902046DB
:102AD000FFF7BBFE0820606484F840500120BDE889
:102AE000F8830320FBE72068006835EA000004D083
:102AF0000020B842D2D00020F1E70120F9E7000021
:102B00000148FFF7F3B80000C4010020FEE7000011
:102B10000FB4054B10B503A9044A029800F004F95C
:102B200010BC5DF814FB00004534000810000020C4
:102B30007CB50C001D461646014601D0601E00E023
:102B40000020CDE90010064B6A462946304600F0C9
:102B5000EBF8002C02D0009A002111707CBD00001F
:102B60002F3400080907090E002804DB00F1E020DB
:102B700080F80014704700F00F0000F1E02080F8AA
:102B8000141D704702E008C8121F08C1002AFAD1BC
:102B900070477047002001E001C1121F002AFBD1DD
:102BA000704700002DE9FF5F82B00021DDE90430AD
:102BB000020DDDF840B0034318D044F61050A2F2E5
:102BC000FF3242431514119801281FD0A5EB0B00CA
:102BD000401C5FEA000A4FF000064E4FDFF83891C4
:102BE000B046504615D5CAF1000413E011980124EF
:102BF0004AA3012801D16FEA0B010298119AC0E99A
:102C00000031C0E9024206B0BDE8F09FCBF1000000
:102C1000DFE704460021404A491842EB0450CDE961
:102C2000001012E0E00707D032463B4640464946D6
:102C3000FDF7B3FB8046894632463B4610461946AF
:102C4000FDF7ABFB06460F466410002CEAD1DDE928
:102C50000401DDE90023BAF1000F06DAFDF79DFB60
:102C600042464B46FDF799FB05E0FDF708FC42465E
:102C70004B46FDF704FC04460E460022284BFDF7A8
:102C800085FC03D84FF0FF30014607E00022254BBA
:102C900020463146FDF7DAFAFDF760FC102409E022
:102CA000002C0ADB0A220023FDF79FFA039B303237
:102CB0001A55641E50EA0102F2D1641C039AC4F151
:102CC00011031444119A012A03D0012208430DD1A3
:102CD0000AE0084304D000204FF0110B119072E776
:102CE000A3EB0B056D1E0DE05B4504DD4FF000020C
:102CF00005F1010504E003DA4FF00002A5F101053A
:102D0000002AECD002981199C0E90231C0E90045CF
:102D100079E70000000014400000F03F30000000A0
:102D20000000F0430000E03F2DE9FF4F95B09A46C8
:102D3000884606460025EEE1252877D1002427465F
:102D4000F94A0121039400E0044316F8013F203BB7
:102D500001FA03F01042F7D130782A2811D06FF031
:102D60002F033078A0F13002092A16D8039A44F0D4
:102D7000020402EB820203EB42021044761C039031
:102D8000EFE758F8042B0392002A03DA504244F488
:102D90000054039044F00204761C30782E2816D19B
:102DA00016F8010F44F004042A280DD06FF02F020A
:102DB0003078A0F13003092B09D807EB870302EB29
:102DC0004303C718761CF3E758F8047B761C307869
:102DD0006C280FD006DC4C2817D068280DD06A2844
:102DE00014D104E0742810D07A280FD10DE044F4F7
:102DF00000140AE044F4801401E044F440147278B2
:102E0000824202D104F58014761C761C3078662844
:102E10000BD013DC582877D009DC002875D0452862
:102E2000F6D04628F4D047281AD193E118E0632859
:102E300035D0642879D0652812D18BE1702873D001
:102E400008DC6728F1D069286FD06E280DD06F2874
:102E500006D1ACE073282CD0752874D0782853D0D4
:102E60005246179990476D1C54E1C4F30250022852
:102E700009D003280DD0D8F8001004280DD00D601B
:102E800008F1040846E1D8F80010EA17C1E9005239
:102E9000F6E7D8F800100D80F2E70D70F0E718F8AB
:102EA000041B8DF8001000208DF80100EB46012076
:102EB00003E058F804BB4FF0FF3061074FF000010A
:102EC00002D40DE009F101018946B9420FDA8145CA
:102ED000F8DB1BF809100029F4D108E009F1010121
:102EE00089468142FADB1BF809100029F6D10398C4
:102EF0005346A0EB090721463846179A00F080FA9E
:102F0000284400EB090507E044E008E10DE01BF868
:102F1000010B524617999047B9F10109F7D2534670
:102F200021463846179AF2E039E00A21C4F30252EA
:102F30004FF0000B0091022A06D058F8040BC1177D
:102F4000032A09D00AE023E008F1070020F0070275
:102F5000F2E80201904605E000B2C117042A01D14F
:102F600040B2C117002906DA0A460021404261EB4F
:102F700002012D2202E0220504D52B228DF8042027
:102F8000012203E0E20701D02022F7E7914657E053
:102F90000A2100E010214FF0000B00910BE01021FE
:102FA0004FF0000B44F004040827009103E00820D0
:102FB0004FF0000B0090C4F30252022A05D058F8DB
:102FC000040B0021032A08D008E008F1070020F0D4
:102FD0000702F2E80201904603E080B2042A00D121
:102FE000C0B24FF0000922072AD53278702A07D0E4
:102FF000DDF800C08CF0100C5CEA0B0C05D00EE084
:1030000040228DF80420012208E050EA010306D096
:1030100030238DF804308DF8052002229146009B64
:1030200083F0080353EA0B030AD150EA010201D1ED
:10303000620705D530228DF804204FF001097F1E6C
:103040003278582A04D039A20C920CAA02920BE0D2
:103050003BA2F9E75B46009AFDF7C7F80C9B9B5C27
:10306000029A521E0292137050EA0102F2D10298A3
:1030700004A9081A00F1200B600702D524F480345B
:1030800000E001275F4502DDA7EB0B0000E0002018
:1030900000EB0B01009003984944401A0390E003B1
:1030A00006D453462146179A039800F0A9F905441F
:1030B000002706E001A85246C05D179990476D1C95
:1030C0007F1C4F45F6DBE0030CD553462146179A8B
:1030D000039800F095F9054404E030205246179912
:1030E00090476D1C0099481E00900029F5DC08E00F
:1030F0000298029952460078491C0291179990470C
:103100006D1CBBF10001ABF1010BF1DC5BE100F0E8
:1031100065F90544761C307800287FF40DAE19B0AF
:103120002846BDE8F08F0000092801003031323315
:1031300034353637383961626364656600000000F3
:1031400030313233343536373839414243444546DD
:1031500000000000600700D4062708F1070020F0F7
:103160000700F0E80223804603F0004C5FEA0C0001
:1031700001D097A009E0200501D596A005E0E00761
:1031800001D095A001E0AFF24C001390307823F00D
:10319000004365280CD006DC452809D046281DD000
:1031A00047287FD13BE0662818D067287AD136E0DF
:1031B0000021112F01DB112000E0781CCDE9000176
:1031C00004A90CA8FFF7EEFCDDE90D010C9A4FF005
:1031D000000B07F10109109200914EE04FF0004002
:1031E0000097CDE9011004A90CA8FFF7DBFCDDE98D
:1031F0000D020C9B0F994FF0000B9146109300921B
:1032000011B9791C00EB0109B7EB090003D4C0F137
:10321000FF3B07F10109A9EB0700019042E0012FF4
:1032200000DA01270021112F01DD112000E03846CE
:10323000CDE9000104A90CA8FFF7B4FCDDE90D01FC
:103240000C9A00914FF0000BB946109221070FD451
:10325000009A4A4503DA914601E0A9F10109B9F162
:10326000010F05DD109AA9F10101515C3029F4D05C
:10327000B84202DA10F1040F03DA0121CDE901109E
:1032800010E0002803DC8344A9EB000102E0411CAC
:10329000494500DD8946A0EB0B00401C01904FF032
:1032A00000400290200705D40198484502DB4FF00A
:1032B000FF30019000208DF84B0002980DF14B0774
:1032C000B0F1004F25D002200C902B200D900298D9
:1032D00000280CDA404202902D200D9007E00A21D0
:1032E0000298FCF76CFF3031029007F8011D0C9931
:1032F000481E0C900029F2DC02980028EFD1791EBC
:103300000D980870307800F0200040F0450007F874
:10331000020D11A8C01BC01D02901398007800B1C7
:10332000012000EB0901019801EBE07102980144D2
:103330000398401A401E0390E00306D453462146EA
:10334000179A039800F05CF805441398007818B1B8
:103350005246179990476D1CE00323D553462146EA
:10336000179A039800F04CF805441BE0BBF1000FDE
:1033700007DB0098584504DD1098179910F80B00EA
:1033800001E0179930205246904701980BF1010B4C
:10339000401E05F10105019004D12E2052461799D7
:1033A00090476D1CB9F10001A9F10109DEDC05E0CF
:1033B00017F8010B5246179990476D1C0299481E49
:1033C00002900029F4DC53462146179A03989EE6A2
:1033D0002D0000002B000000200000002DE9F0412E
:1033E000044600251E461746880404D405E03946E5
:1033F0002020B0476D1C641EF9D52846BDE8F08139
:103400002DE9F041044600251E469046C80301D52B
:10341000302700E02027880404D505E041463846DF
:10342000B0476D1C641EF9D52846BDE8F0814A6896
:10343000002A06D00A68531C0B6010704868401EB2
:103440004860704713B54FF0FF33012269460248C8
:10345000FEF727FE00981CBDC4010020FDF782FE88
:10346000FFF768F8FEF7BAFEFEF7AAFEFEF76CFE5D
:10347000FEF7D6FFFEF792FFFEF7B0FFFFF71CF84E
:10348000FFF736F839A0FFF743FB42A0FFF740FBF8
:103490004AA0FFF73DFB43F239014EA0FFF738FB8E
:1034A0004AF6CD314FA0FFF733FB4FF04042504B6F
:1034B00050A0FFF72DFB53A156A0FFF729FB59A001
:1034C000FFF726FB5FA0FFF709FAFF2240F2E73182
:1034D00063A0FFF703FA69A0FFF71AFBFFF7EEF905
:1034E0006DA0FFF715FB6420FDF71AFCFFF7E6F966
:1034F0006FA0FFF70DFB74A0FFF70AFB7AA180A075
:10350000FFF7CAF980A186A0FFF7C6F986A18CA0B3
:10351000FFF7C2F98CA191A0FFF7BEF991A0FFF7C8
:10352000F7FA0A20FDF7FCFBFFF7C8F994A0FFF7B4
:10353000EFFA0A20FDF7F4FB9BA171A0FFF7ACF9AD
:103540000A20FDF7EDFB9FA0FFF7E2FA0A20FDF746
:10355000E7FB41F2883400BFFFF7B0F9A5A0FFF701
:10356000D7FA2046FDF7DCFBF6E700000D0A3D3DEB
:103570003D3D3D3D3D3D3D3D205068617365203200
:103580002054657374203D3D3D3D3D3D3D3D3D3DF9
:103590000D0A000054657374696E672055415254DA
:1035A00020656E68616E6365642066756E6374691C
:1035B0006F6E732E2E2E0D0A0D0A00003D3D3D202C
:1035C0007072696E74662054657374203D3D3D0DC4
:1035D0000A000000496E74656765723A2025640D23
:1035E0000A0000004865783A20307825580D0A0016
:1035F000CA210940466C6F61743A20252E32660D4F
:103600000A000000554152542054657374204F4BFA
:1036100000000000537472696E673A2025730D0A2A
:10362000000000000D0A3D3D3D20554152545F50C1
:1036300072696E74662054657374203D3D3D0D0AB9
:10364000000000005468697320697320554152548A
:103650005F5072696E746620746573740D0A0000A1
:10366000496E74656765723A2025642C2048657838
:103670003A20307825580D0A000000000D0A3D3D23
:103680003D2054696D657374616D70205465737469
:10369000203D3D3D0D0A000053797374656D20692E
:1036A0006E697469616C697A65640D0A00000000D6
:1036B0003130306D732064656C6179207061737393
:1036C00065640D0A000000000D0A3D3D3D204C6F71
:1036D000672046756E6374696F6E2054657374203D
:1036E0003D3D3D0D0A00000055415254206D6F6470
:1036F000756C6520696E697469616C697A656400CE
:10370000494E464F000000005468697320697320D9
:1037100061207761726E696E672074657374000052
:103720005741524E494E47005468697320697320CF
:10373000616E206572726F72207465737400000090
:103740004552524F520000004465627567206D6516
:103750007373616765207465737400004445425556
:10376000470000000D0A3D3D3D20436F6D62696ECC
:1037700065642054657374203D3D3D0D0A000000D2
:103780005B53595354454D5D205068617365203239
:103790002076616C69646174696F6E207374617204
:1037A0007465640D0A000000416C6C2066756E63E0
:1037B00074696F6E7320776F726B696E67204F4B01
:1037C000000000000D0A3D3D3D3D3D3D3D3D3D3D80
:1037D0002050686173652032205465737420504115
:1037E0005353203D3D3D3D3D3D3D3D3D3D0D0A0D8D
:1037F0000A00000053797374656D2052756E6E690E
:103800006E67202D205068617365203220546573E7
:1038100074204F4B0D0A0000010202030405060745
:1038200008090A0B0C0D0E0F10100000000000001C
:10383000000001020304060708090000000001025D
:103840000304000064380008000000201400000099
:10385000842B00087838000814000020FC050000C4
:10386000942B000801000000100000000000000080
:0838700000127A0000000000C4
:0400000508000131BD
:00000001FF
