:020000040800F2
:10000000680B002049010008F33600084930000859
:10001000F1360008250F0008C14C00080000000060
:100020000000000000000000000000004D43000838
:100030002311000800000000213D0008954400083D
:100040006301000863010008630100086301000800
:1000500063010008630100086301000863010008F0
:1000600063010008630100086301000863010008E0
:1000700063010008630100086301000863010008D0
:1000800063010008630100085509000863010008C6
:100090006301000863010008630100084B110008B8
:1000A00063010008630100086301000863010008A0
:1000B0006301000863010008630100086301000890
:1000C0006301000863010008630100086301000880
:1000D000630100086301000863010008B54C0008D3
:1000E000251100086301000863010008630100088E
:1000F0006301000863010008630100086301000850
:10010000630100086301000863010008630100083F
:10011000630100086301000863010008630100082F
:10012000630100086301000863010008630100081F
:10013000DFF810D000F07EFB004800475957000858
:10014000AFF30080680B0020064880470648004750
:10015000FEE7FEE7FEE7FEE7FEE7FEE7FEE7FEE777
:10016000FEE7FEE71345000831010008202A04DB02
:10017000203A21FA02F00021704721FA02F3D04020
:10018000C2F12002914008431946704740EA01033A
:100190009B0703D009E008C9121F08C0042AFAD23D
:1001A00003E011F8013B00F8013B521EF9D2704701
:1001B000D2B201E000F8012B491EFBD270470022A9
:1001C000F6E710B513460A4604461946FFF7F0FF56
:1001D000204610BDF0B480EA0102D40F4200B2EB19
:1001E000410F02D20246084611464A0042D0C30DD2
:1001F000DDB2C1F3C752AD1A202D35DAC1F31601B5
:1002000041F4000204B15242C5F1200602FA06F19F
:100210002A411044B3EBD05F23D0C4B1012DA0EB31
:10022000C35009DCF0BC4FF0004202EAC352DBB21B
:1002300000F5000000F018B9400000F1807000EBFC
:10024000C350A0F1807040EAD170490009E049082C
:1002500041EAC071A0EBC35000F50000400800EB7C
:10026000C350F0BC00F0F7B86142012202EB41013B
:10027000001BF6E7F0BC704781F00041AAE780F070
:100280000040A7E780EA010210B502F000434000F9
:1002900022D04A001FD0010E01EB1261C0F35600BC
:1002A000C2F3560240F4000042F40002A0FB022018
:1002B00000047F39140400D0401C50EA124001D4DD
:1002C0004000491EC2B20C0604EBD010401C40088E
:1002D000802A02D003E0002010BD20F00100002998
:1002E00000DA0020184310BD30B480EA010202F0A9
:1002F000004530F0004221F0004013D090B1C30D12
:10030000D40DC2F31601C0F31600E41A41F4000143
:1003100040F400027D34914201D3641C00E04900A6
:10032000002C02DA30BC002070474FF4000000239C
:10033000914201D3891A034340084FEA4101F7D1A2
:1003400051B1914202D14FF0004105E002D24FF08D
:10035000010101E06FF0010103EBC450284430BCFF
:1003600000F079B8C10F80EAE0700844CA0796230C
:10037000002100F079B896230022114600F074B8ED
:1003800000F0004220F00040C10DC0F3160040F420
:1003900000007F2901DA00207047962903DCC1F1B3
:1003A0009601C84001E096398840002AF4D04042C6
:1003B00070470000002801DBC0F10040002901DB8C
:1003C000C1F100418842704730B50B46014600201C
:1003D0002022012409E021FA02F59D4205D303FA07
:1003E00002F5491B04FA02F52844151EA2F1010288
:1003F000F1DC30BD2DE9F05F0546002092469B46BA
:1004000088460646814640241BE02846414647462A
:100410002246FFF7ABFE53465A46C01A914110D30D
:1004200011461846224600F017FA2D1A67EB01080C
:100430004F4622460120002100F00EFA17EB00097A
:100440004E41201EA4F10104DFDC484631462A4615
:100450004346BDE8F09F0029A8BF7047401C4900F3
:1004600008BF20F00100704710B4B0FA80FC00FA19
:100470000CF050EA010404BF10BC704749B1CCF144
:10048000200421FA04F411FA0CF118BF01212143D0
:100490000843A3EB0C01CB1D4FEA00614FEA10208B
:1004A00042BF002010BC704700EBC350104400292D
:1004B000A4BF10BC7047401C490008BF20F00100D9
:1004C00010BC70472DE9FE4F804681EA0300C00F43
:1004D0000C46009021F0004123F00045B8EB0200EB
:1004E000A94105D24046214690461C460B4602468D
:1004F00023F00040104347D0270DC7F30A00C3F391
:100500000A510290401A019040286BDAC3F313009D
:1005100040F4801B0098924620B10023D2EB030ADE
:1005200063EB0B0B01985946C0F14002504600F0B6
:1005300093F906460D4650465946019A00F09BF93C
:1005400010EB08006141002487EA115284EAE77346
:100550001A4340D0009A62B3019A012A4FEA075227
:1005600015DC001B61EB02014FF0004202EA07526A
:10057000CDE90042001C41F5801132462B4600F0C7
:100580009BF903B0BDE8F08F40462146F9E7001B18
:1005900061EB0201001C41F5801300185B4120183B
:1005A000A2F5001747EB030140EAD570B6196D417B
:1005B00011E06D084FEA360645EAC0754FEA07526A
:1005C000001B61EB0201001C41F5801149084FEA54
:1005D00030000019514132462B4603B0BDE8F04FC0
:1005E00000F05BB90098012240000023D0EB02022A
:1005F00063EBE073009821464FEAE074B8EB00002B
:1006000061EB0401E9E783F000435BE781F000411F
:1006100058E72DE9FE4F81EA030404F0004421F07D
:10062000004100944FF0000B23F0004350EA010416
:100630005ED052EA03045BD0C3F30A54C1F30A55F7
:100640002C44A4F2F3340194A0FB0254C1F313012F
:1006500041F48011C3F3130343F4801301FB0244FC
:1006600000FB034E840A970A44EA815447EA835701
:10067000A4FB076802958D0A05FB07854FEA932CBA
:1006800004FB0C542705029D4FEA065847EA16372B
:10069000B5EB08056EEB070C870E920E47EA811743
:1006A00042EA8312A7FB0201B6EB0B0164EB0004E4
:1006B0002B0D43EA0C335E1844EB1C50DA465146CE
:1006C000E7FB0201C5F313044FEA0B3343EA14536B
:1006D0004FEA0432019C43EA0603A4F10C0402949D
:1006E000009CCDE900B400F0E7F803B0BDE8F08F5E
:1006F00000200146F9E72DE9F04D81EA030404F0FA
:10070000004B21F0004514464FF0000A23F0004151
:1007100050EA050220D054EA01021DD0C5F30A5761
:100720000246C5F31303C1F31300C1F30A5640F4A4
:10073000801543F48013A7EB0608101BD64608F279
:10074000FD3873EB050002D308F1010801E09218AF
:100750005B41B8F1000F03DA00200146BDE8F08DDF
:1007600000204FF48011064684460EE0171B73EB01
:10077000050705D3121B63EB050306434CEA010C86
:1007800049084FEA300092185B4150EA0107EDD169
:1007900052EA030012D082EA040083EA050108430A
:1007A00005D0101BAB4106D20122002306E0002237
:1007B0004FF0004302E06FF0010253101AEB060005
:1007C0004CEB085110EB0A0041EB0B01BDE8F04D7A
:1007D00000F063B8C1F30A52C1F3130140F2FF33D2
:1007E00041F480119A4202DA00200146704740F23B
:1007F00033439A42A2F2334202DC5242FFF7B6BCC4
:1008000000F02AB830B5041E71F1000404DB4FF08B
:100810000044404264EB0101141E73F1000405DB47
:100820001C464FF00043524263EB0403994208BF59
:10083000904230BD064C074D06E0E06840F00103F1
:1008400094E8070098471034AC42F6D3FFF774FCE5
:10085000686C0008886C0008202A04DB203A00FA43
:1008600002F1002070479140C2F1200320FA03F307
:10087000194390407047202A06DBCB17203A41FAF3
:1008800002F043EAE07306E041FA02F3D040C2F11D
:100890002002914008431946704710B5141E73F1A9
:1008A000000408DA401C41F1000192185B411A4330
:1008B00001D120F0010010BD2DE9F04D92469B467C
:1008C00011B1B1FA81F202E0B0FA80F22032904622
:1008D000FFF7C2FF04460F4640EA0A0041EA0B0157
:1008E00053465A46084313D0114653EA010019D023
:1008F000C8F140025046FFF739FC05460E46504607
:1009000059464246FFF7A8FF084305D0012004E0FE
:1009100020463946BDE8F08D0020054346EAE076E2
:100920002C4337430A986305E40AA0EB0800002231
:10093000FD0A44EA47540A3002D500200146E9E79F
:10094000010510196941DDE9084500196941BDE853
:10095000F04DA2E7014800F0F8BC0000700500204F
:1009600070B5044600688168C943C90717D181681A
:1009700021F00101816001F02BF905460AE000BF7A
:1009800001F026F9401B022804D920688068C04382
:10099000C00706D020688068C043C007F0D00020A0
:1009A00070BDA06A40F01000A062E06A40F0010053
:1009B000E062012070BD10B50146406A826A12F003
:1009C000500F05D0006A026BBDE810400846104782
:1009D000816A41F40071816201688968C1F3424112
:1009E00007290CD1017B51B9816A21F480718162A0
:1009F000816AC90403D4816A41F00101816200F077
:100A0000A1FC10BD10B5406A816A41F040018162CD
:100A1000C16A41F00401C16200F096FC10BD10B53E
:100A2000406A00F090FC10BDF8B500260446009620
:100A300000688168C943C9072DD0816841F0010170
:100A40008160164816490068B0FBF1F000E0401ED6
:100A500000900028FBD101F0BBF8054616E000BF6E
:100A600001F0B6F8401B022810D920688068C04306
:100A7000C0070BD0A06A40F01000A062E06A40F00E
:100A80000100E06284F824600120F8BD20688068DD
:100A9000C043C007E4D10020F8BD000020000020C2
:100AA00040420F0010B50BA004F00CF910490020D3
:100AB000104C08808870087248724860012210212A
:100AC000204601F080F820460122BDE810400821B0
:100AD00001F079B85B416C61726D5D20436C6561BA
:100AE0007220616C6C206572726F72730D0A000067
:100AF00028000020000C014070B50D4D0446A87A76
:100B0000002813D02888204207D0204600F00CFA95
:100B10000246214607A004F0D5F82888A043288083
:100B200004F08EFDBDE8704004F0C8BD70BD00004B
:100B3000280000205B416C61726D5D20436C656133
:100B400072206572726F723A2030782530345820E6
:100B5000282573290D0A000070B5114C0025114E8F
:100B600025606560012210213046A56001F02BF858
:100B700001220821304601F026F82580A570257253
:100B8000657201206560A07207A004F09BF80EA0BA
:100B900004F098F8BDE8704015A004F093B8000088
:100BA00028000020000C01405B416C61726D5D20EB
:100BB0004D6F64756C6520696E697469616C697AE2
:100BC00065640D0A000000005B416C61726D5D2080
:100BD000414C41524D2070696E3A205042342028D9
:100BE000484947483D4E6F726D616C290D0A0000FF
:100BF0005B416C61726D5D20424545502070696EAD
:100C00003A20205042332028484947483D53696CD8
:100C1000656E74290D0A000070B52BA004F052F81F
:100C200035A004F04FF83BA004F04CF8444C45A02C
:100C3000218804F047F82088A0B148A004F042F8C9
:100C40000025012606FA05F0218880B2014205D070
:100C500000F06AF9014646A004F034F86D1C0F2D2F
:100C6000F0DB02E045A004F02DF848A004F02AF8DB
:100C7000A07838B1012807D002280FD003280FD060
:100C800046A002E048A000E049A004F01BF84FA0F5
:100C900004F018F8607A28B151A104E054A0F4E7F8
:100CA0005BA0F2E764A168A004F00CF8207A08B118
:100CB00069A100E06AA16CA004F004F8BDE87040EE
:100CC0006DA003F0FFBF00000D0A3D3D3D3D3D3DE1
:100CD0003D3D3D3D3D3D3D3D3D3D3D3D3D3D3D3D44
:100CE0003D3D3D3D3D3D3D3D3D3D3D3D3D3D3D3D34
:100CF0003D3D0D0A00000000202020202020202063
:100D00002020416C61726D205374617475730D0AFB
:100D1000000000003D3D3D3D3D3D3D3D3D3D3D3DF7
:100D20003D3D3D3D3D3D3D3D3D3D3D3D3D3D3D3DF3
:100D30003D3D3D3D3D3D3D3D3D3D3D3D0D0A0000C0
:100D4000280000204572726F7220466C6167733A0A
:100D5000203078253034580D0A00000020204163EF
:100D600074697665206572726F72733A0D0A0000BD
:100D7000202020202D2025730D0A000020204E6FFA
:100D8000206572726F72730D0A0000000D0A4265D1
:100D90006570204D6F64653A20000000556E6B6EE3
:100DA0006F776E0D0A0000004F46460D0A000000E6
:100DB000436F6E74696E756F7573202854656D701E
:100DC000206572726F72290D0A0000000D0A4750EB
:100DD000494F205374617475733A0D0A0000000086
:100DE0004C4F572028416374697665290000000044
:100DF00035306D732070756C7365202846656564A9
:100E00006261636B206572726F72290D0A000000C7
:100E100031732070756C73652028436F6E666C6942
:100E200063742F53656C662D7465737420657272DC
:100E30006F72290D0A0000004849474820284E6F6C
:100E4000726D616C290000002020414C41524D3AE6
:100E50002025730D0A00000042656570696E670009
:100E600053696C656E7400002020424545503A205D
:100E70002025730D0A0000003D3D3D3D3D3D3D3DBB
:100E80003D3D3D3D3D3D3D3D3D3D3D3D3D3D3D3D92
:100E90003D3D3D3D3D3D3D3D3D3D3D3D3D3D3D3D82
:100EA0000D0A0D0A0000000070B50D4D0446A87A29
:100EB000002813D02888204207D1204600F034F8BB
:100EC0000246214607A003F0FDFE28882043288023
:100ED00004F0B6FBBDE8704004F0F0BB70BD00004C
:100EE000280000205B416C61726D5D2053657420A9
:100EF0006572726F723A2030782530345820282578
:100F000073290D0A00000000054810B5807A0028FA
:100F100005D004F071FBBDE8104004F0CFBB10BD5C
:100F200028000020FEE7000080283BD011DC0828C4
:100F300030D007DC30B3012826D0022826D0042880
:100F40001ED125E0102827D0202827D0402817D1EF
:100F500026E0B0F5006F2DD009DCB0F5807F23D0FE
:100F6000B0F5007F22D0B0F5806F09D120E0B0F558
:100F7000805F21D0B0F5005F20D0B0F5804F1FD04A
:100F800010A0704713A0704714A0704718A07047B6
:100F90001CA0704720A0704724A0704728A070476D
:100FA0002CA0704730A0704733A0704736A0704720
:100FB00039A070473DA0704741A0704745A07047D9
:100FC00049A07047556E6B6E6F776E204572726FD9
:100FD000720000004E4F4E4500000000412D456E4E
:100FE00061626C6520436F6E666C6963740000001B
:100FF000422D4B315F315F535441204572726F7205
:1010000000000000432D4B325F315F5354412045B7
:1010100072726F7200000000442D4B335F315F53DA
:101020005441204572726F7200000000452D4B3113
:101030005F325F535441204572726F7200000000AE
:10104000462D4B325F325F535441204572726F72AE
:1010500000000000472D4B335F325F535441204561
:1010600072726F7200000000482D5357315F535465
:1010700041204572726F7200492D5357325F5354AD
:1010800041204572726F72004A2D5357335F53549B
:1010900041204572726F72004B2D4E54435F3120D8
:1010A00054656D70204572726F7200004C2D4E5465
:1010B000435F322054656D70204572726F7200007C
:1010C0004D2D4E54435F332054656D702045727230
:1010D0006F7200004E2D53656C6654657374204525
:1010E00072726F72000000004F2D506F7765722092
:1010F0004572726F7200000030B590F840500124C4
:10110000AC40C56B6C60046863604368102B036877
:1011100003D099600068C26030BD9A600068C16009
:1011200030BD704710B54FF4805000F03FFC4FF4D5
:10113000005000F03BFC4FF4804000F037FCBDE86D
:1011400010404FF4004000F031BC10B5202000F0FA
:101150002DFC4FF4807000F029FCBDE810404FF4E6
:10116000007000F023BC72B6FEE70000F8B5002561
:101170000446009590F8240001280BD0012084F843
:1011800024002046FFF7ECFB2046FFF74DFC06004D
:1011900002D050E00220F8BDA06A20F4885040F050
:1011A0000200A062022000F039FF25490968B1FB66
:1011B000F0F0400000E0401E00900028FBD12068C5
:1011C000816841F00801816000F002FD074608E0F7
:1011D00000F0FEFCC01B0A2803D9206880680007C5
:1011E00015D4206880680007F2D42068816841F037
:1011F0000401816000F0ECFC074612E000F0E8FC1E
:10120000C01B0A280DD920688068400709D5A06A4C
:1012100020F0020040F01000A06284F82450012069
:10122000F8BD206880684007E8D4A06A20F002007A
:1012300040F00100A06284F824503046F8BD000060
:101240002000002070470000F8B50024009490F8BA
:1012500024202546012A12D0012280F824204A6841
:101260001F23072A0DD20668776B521E02EB8202FB
:1012700093409F430B6893401F43776319E002201C
:10128000F8BD06680D2A0AD2376BD21F02EB820224
:1012900093409F430B6893401F43376309E0F76A0D
:1012A0000D3A02EB820293409F430B6893401F4329
:1012B000F7620A68072306680A2A0AD3F7680A3A17
:1012C00002EB420293409F438B6893401F43F760B9
:1012D00008E0376902EB420293409F438B689340DA
:1012E0001F4337610A68102A01D0112A20D1124BFE
:1012F00002689A4217D193681B0219D4936843F489
:10130000000393600968102912D10C490C4A09683E
:10131000B1FBF2F101EB8101490000E0491E0091AF
:101320000029FBD104E0816A41F02001816201249F
:1013300080F824502046F8BD002401402000002001
:1013400040420F0070477047704770B50446006810
:1013500006684568A90625D5B10723D5A16AC9063F
:1013600003D4A16A41F40071A1628168C1F34241D2
:10137000072910D1217B71B9416821F0200141601A
:10138000A06A20F48070A062A06AC00403D4A06A9E
:1013900040F00100A0622046FFF7D4FF21686FF003
:1013A0001200086028062ED570072CD5A06AC0064A
:1013B00003D4A06A40F40050A06220688168C1F3A1
:1013C0000231072909D04168490515D48168C1F364
:1013D0004241072910D1217B71B9416821F0800178
:1013E0004160A06A20F48050A062A06AC00503D4C6
:1013F000A06A40F00100A0622046FFF723FF2168A9
:101400006FF00C00086068060CD5F0070AD0A06ADF
:1014100040F48030A062204600F096F821686FF01A
:101420000100086070BD00002DE9F04104004FF09C
:1014300000057FD0A06A002628B9E66284F82460FF
:10144000204600F083F82046FFF78AFAA16AC90611
:1014500000D420B1A06A40F01000A0626AE0A16A46
:1014600021F4885141F00201A162334923688B4283
:10147000E16904D1B1F5402F01D14FF40021277B60
:101480004FF4807C41EA470261680A43A1686145E4
:1014900008D0012906D0002194F814E0BEF1010F14
:1014A00002D00AE06146F7E7C7B1A76A47F0200714
:1014B000A762E76A47F00107E7625F6827F46947B8
:1014C0000F435F60236899681C4F3940114399604E
:1014D000A16861450BD0012909D00CE0DFF860E07C
:1014E000A7690EEB47370F4347F40061E5E7218A10
:1014F0000D05A5F580152168CB6A23F470032B43F5
:10150000CB62216889680F4B1940914208D1E6628D
:10151000A16A21F0020141F00101A162BDE8F08160
:10152000A06A20F0020040F01000A062E06A40F0E3
:101530000100E0620120F1E7003C0140FDF7E1FF1E
:1015400000E0FFFFFE0E1FFF7047000070B586B081
:1015500000250646009501950295039500681E49F1
:10156000884236D11D49886940F4007088618869D5
:1015700000F400700490886940F004008861886974
:10158000694600F0040004900720009003200190B9
:10159000134800F017FA144C1248C4E900058020E3
:1015A000C4E9025040002061800060612020C4E94D
:1015B0000605204600F05CF908B1FFF7D4FD34625F
:1015C000002205211220666200F0F6FC122000F0D5
:1015D000E5FC06B070BD0000002401400010024090
:1015E0000008014008000240A00500202DE9F04756
:1015F000894604463B4900683B4F0E1D9046884291
:1016000001D0B84207D1306810F4702F03D0012503
:101610002846BDE8F08794F8240001280CD001206A
:1016200084F824002046FFF7FFF905004FF0000082
:1016300004D084F82400EBE70220EAE7A16A40F630
:101640000162914341F48071A1622168B94218D1CD
:10165000326812F4702F14D0A16A41F48011A16293
:101660003168490505D5A16A21F4005141F4805142
:10167000A162A16AC9040AD5E16A21F00601E1620A
:1016800006E0A26A22F48012A2624968E9E7E062F9
:1016900084F82400216A15488862216A1448C862C7
:1016A000216A1448086321686FF00200086020680E
:1016B000816841F480718160216843464A464C311B
:1016C000206A00F013F920688168C1F342410729BC
:1016D000816803D041F48011816099E741F4A00151
:1016E000FAE700000024014000280140B709000883
:1016F0001F0A0008050A000810B590F82110002202
:10170000022905D00421816380F82020012010BD2A
:1017100001680B6823F00E030B6001680B6823F06F
:1017200001030B6090F84030C46B012101FA03F310
:10173000636080F8211080F82020104610BD000062
:101740002DE9F05F90F821100024022903D0042134
:101750008163012485E001680A6822F00E020A60B4
:1017600001680A6822F001020A603F4E3E4FB2153E
:10177000DFF8F4C0DFF8F090DFF8ECA0DFF8E8B0B5
:10178000DFF8E4E00168783F13011502ACF1640C66
:10179000A9F15009AAF13C0AABF1280BAEF1140EE5
:1017A0004FF48018B14227D9B9420ED0614512D00A
:1017B00049451DD0514518D0594518D0714501D122
:1017C000424615E0294EB14201D1012210E0274ED8
:1017D0001436B14201D110220AE0244E2836B1421B
:1017E00006D0224A3C32914201D11A4600E02A46F4
:1017F0001E49091F0A602BE0B94213D0614517D07A
:10180000494522D051451DD059451DD0714501D1C2
:1018100042461AE0B14202D14FF0807215E0134EF9
:10182000B14201D1012210E0104E1436B14201D173
:1018300010220AE00D4E2836B14206D00B4A3C3247
:10184000914201D11A4600E02A46074980394A6090
:10185000012180F82110002180F82010416B01B196
:1018600088472046BDE8F09F8000024008040240FF
:1018700030B560B11A4B026814219A4209D2194B53
:101880001344B3FBF1F18900016417490AE0012018
:1018900030BD134B5B421344B3FBF1F1890001648B
:1018A0000F490839C163022180F82110136843F6FB
:1018B000F0718B43F0E901142143D0E902452C4338
:1018C0002143046921434469214384692143194325
:1018D000116000214163012242770177084630BD43
:1018E00008040240F8FFFDBF0000024070B5044646
:1018F00090F82000002501280CD0012084F8200059
:1019000094F821600020012E06D084F820000225E2
:10191000284670BD022070BD022684F82160A063B5
:101920002068066826F0010606602046FFF7E4FB03
:10193000E06A00282068016802D041F00E0106E04C
:1019400021F0040101602068016841F00A01016092
:101950002068016841F001010160D9E770B50446D3
:1019600000F036F90546601C02D0044800780444B3
:1019700000F02EF9401BA042FAD370BD14000020E5
:10198000B0F5805F0AD0B0F5007F09D0B0F5807F58
:1019900008D0B0F5004F07D102F078BB02F01EBFAF
:1019A00002F05CBB02F066BB70470000044910B552
:1019B0000A68024202D00860FFF7E2FF10BD000093
:1019C000140401402DE9F84FDFF8C8910024A9F173
:1019D000040B23460F2709F1040AABF1040ED1E0F2
:1019E0000125A54006EA0502AA4276D1DFF8A8C182
:1019F0004E68A6EB0C0866452BD00DDC032E34D0C8
:101A000005DC36B3012E19D0022E2FD11BE0112E8A
:101A100016D0122E2AD119E0B8F5881F19D006DC8D
:101A2000B8F5803F15D0B8F5801F1FD111E0B8F58B
:101A3000001F0ED0B8F5041F18D10AE0CB6815E0DE
:101A4000CB681B1D12E0CB6808330FE0CB680C336A
:101A50000CE08B682BB1012B4FF0080303D04561DC
:101A600004E0042302E0056100E00023FF2A01D81E
:101A7000064601E000F104064FEA840501D9A5F10C
:101A80002005D6F8008007FA05FC28EA0C0803FABE
:101A900005F548EA0508C6F800804D68ED0070D5E8
:101AA0003E4DAE6946F00106AE61AD6924F0030615
:101AB00005F0010500953A4D06EB050CDCF80850E1
:101AC000A607360F07FA06F825EA0805DFF8D480DE
:101AD000404503D14FF0000825E052E0DFF8C88010
:101AE000404502D14FF001081DE0DFF8C0804045BD
:101AF00002D14FF0020816E0DFF8B480404502D171
:101B00004FF003080FE0DFF8AC80404502D14FF002
:101B1000040808E0DFF8A080404502D14FF0050836
:101B200001E04FF0060808FA06F848EA0508CCF884
:101B300008804D68D9F80060ED024D4601D5164386
:101B400000E096432E604D68DAF80060AD0255461D
:101B500001D5164300E096432E604D68DBF8006027
:101B6000AD035D4601D5164300E096432E604D68F7
:101B7000DEF80060ED03754601D5164300E096439C
:101B80002E60641C0A681646E2407FF429AFBDE867
:101B9000F88F0000080401400000111000100240FE
:101BA0000000014000080140000C0140001001400D
:101BB0000014014000180140001C014080680840EA
:101BC00000D0012070470AB1016170470904FBE7AA
:101BD00001488068704700001400002070B50400C0
:101BE00025D094F83D00002520B984F83C502046CB
:101BF00000F04EF9242084F83D002068016821F0AF
:101C0000010101602068016841F400410160206821
:101C1000016821F40041016000F068FB4D4A6168F1
:101C2000914201D84C4900E04C49884201D2012040
:101C300070BD4B492368B0FBF1F15E6826F03F06AA
:101C40000E435E606368934206D94FF4967359431E
:101C50004FF47A73B1FBF3F12368491C1E6A26F036
:101C60003F06314319626168914210D84900401E15
:101C7000B0FBF1F2521CC2F30B02042A01D2042081
:101C800022E0B0FBF1F0401CC0F30B001CE0A268A6
:101C9000F2B301EBC10303EB0116431EB3FBF6F3F2
:101CA0005B1C43F480431B0549D092B301EBC10296
:101CB00002EB0111401EB0FBF1F0401CC0F30B0021
:101CC00040F4804040F400402168CA694CF6FF733C
:101CD0009A431043C861D4E90710014320680268A1
:101CE00022F0C00211430160D4E9030101432068DE
:101CF000826848F2FF339A4311438160D4E90501B9
:101D000008432168CA6822F0FF021043C86001E05E
:101D10000EE016E02068016841F0010101602564D1
:101D2000202084F83D00256384F83E50002070BDDB
:101D300001EB4106431EB3FBF6F35B1CB3E7012046
:101D4000C2E701EB4101401EB0FBF1F0401CC0F3C3
:101D50000B00B7E7A086010080841E0000093D004B
:101D600040420F002DE9F84F1F4690468A46044630
:101D7000DDF82890FFF72CFF054694F83D00202859
:101D80007FD11923012240492046009501F0EEF948
:101D9000002876D194F83C00012872D0012084F804
:101DA0003C0020680168C90703D1016841F00101C6
:101DB00001602068016821F400610160212084F83D
:101DC0003D00102084F83E0000262664C4F82480DC
:101DD0006785608D20852D48E0622B464A46514636
:101DE000204601F049F990B9206841698069009066
:101DF00036E02A464946204601F05EFA50B1206C92
:101E0000042804D12068016841F4007101600120B8
:101E1000BDE8F88F606A216800780861606A401C3C
:101E20006062618D491E6185218D491E89B22185BF
:101E300022685369DB435B070BD451B10078106112
:101E4000606A401C6062608D401E6085208D401E6F
:101E500020852A464946204601F05CF90028CED16B
:101E6000208D0028C5D154F83D0B016841F4007164
:101E70000160202004F81E09E67766770020C7E796
:101E8000FFE70220C4E70000020010000000FFFF8F
:101E900010B586B000210091019102910391006874
:101EA0000F4988421AD10F4CA06940F00800A06188
:101EB000A069694600F008000490C020009012203C
:101EC0000190032003900848FFF77CFDE06940F48F
:101ED0000010E061E06900F40010049006B010BD4D
:101EE0000054004000100240000C0140024881688C
:101EF000027811448160704714000020074810B533
:101F0000016841F010010160032000F075F80F2016
:101F100000F006F800F024F8002010BD0020024078
:101F200070B50D4D04464FF47A712878B1FBF0F08E
:101F30000A490968B1FBF0F000F042FC48B9102CE6
:101F400007D200222146501E00F036F800206C60B7
:101F500070BD012070BD0000140000202000002092
:101F60000C4808B5816941F001018161816901F086
:101F700001010091C16941F08051C161C06900F067
:101F8000805000900448416821F0E06141F0007108
:101F9000416008BD0010024000000140002809DB3C
:101FA00000F01F02012191404009800000F1E02073
:101FB000C0F8001170470000F0B40E4B1B680C46CF
:101FC000C3F30223C3F10705042D00D90425191D0D
:101FD000072901D2002300E0DB1E012606FA05F1E5
:101FE000491E214099409E40761E16403143F0BC68
:101FF00002F092BE0CED00E0064900F0070208680E
:102000004FF6FF03184040EA0220034A10430860DD
:10201000704700000CED00E00000FA0510B5014625
:102020000020284C04292FD00BDC012930D00229B4
:1020300029D100F06BF96168C1F38131491C490075
:102040001FE0082920D010291DD161682268D20123
:1020500019D51D48C1F38342C903805C0AD5616864
:10206000194AC1F34041921E515C184AB2FBF1F18A
:10207000484301E0164948436168490203D44000DF
:102080000321B0FBF1F010BDBDE8104000F04EB9E7
:10209000226AC2F30121012903D1920701D5C803A5
:1020A00010BD022905D1626A920702D549F6404067
:1020B00010BD0329FCD121688903F9D54FF22440D2
:1020C00010BD000000100240B86B000800127A003A
:1020D00000093D002DE9F84305460078354CC0075E
:1020E00054D0E0690026C00008D4E06940F0805078
:1020F000E061E069012600F0805000902E48016800
:10210000C90512D40168804641F480710160FFF76F
:102110005FFD074605E000BFFFF75AFDC01B6428BE
:1021200023D8D8F80000C005F6D5206A10F4407016
:1021300021D0A98801F4407181421CD0206A1F4936
:10214000012220F440700A6000220A602062C00769
:1021500011D0FFF73DFD074641F2883808E000BF87
:10216000FFF736FDC11B414502D90320BDE8F883C6
:10217000206A8007F4D5206A696820F4407008431B
:1021800020621EB1E06920F08050E061287880076D
:1021900005D56068A96820F440400843606028784D
:1021A000C00605D56068696920F480000843606056
:1021B0000020DBE700100240007000404004424273
:1021C0002DE9F0470F46050061D0434E306800F01E
:1021D0000700B84209D2306820F007003843306069
:1021E000306800F00700B84251D128683B4C8107A5
:1021F00012D5400703D5606840F4E060606028783D
:10220000000703D5606840F4605060606068A968AA
:1022100020F0F000084360602878C00728D0686884
:10222000012810D02168022810D0890700292EDA51
:10223000616821F0030101436160FFF7C9FC80463A
:1022400041F288390DE021688903EFE78901EDE764
:10225000FFF7BEFCA0EB0801494502D90320BDE809
:10226000F0876068696800F00C00B0EB810FEFD177
:10227000306800F00700B8420BD9306820F0070042
:1022800038433060306800F00700B84201D00120C8
:10229000E5E72878400705D56068E96820F4E06044
:1022A000084360602878000706D56068296920F433
:1022B000605040EAC100606000F038F86168084A88
:1022C000C1F30311515CC840064908600648006824
:1022D000FFF726FE0020C2E7002002400010024067
:1022E000C86B0008200000201800002004480549A1
:1022F00000684968044AC1F30221515CC840704734
:102300002000002000100240D86B00080448054956
:1023100000684968044AC1F3C221515CC840704753
:102320002000002000100240D86B00080E4A5168BF
:102330000E4801F00C03042B11D0082B0FD10C48D0
:10234000C1F38343C903C05C0AD55168084AC1F38D
:102350004041921E515C054A5043B0FBF1F070477A
:1023600004494843704700000010024000127A0000
:10237000A66B000800093D002DE9F84F040070D05D
:102380002078C04DC00749D06868C0F3810001289B
:1023900007D06868C0F38100022809D16868C003CB
:1023A00006D52868800339D560680028E7D035E075
:1023B0006068B0F5803F0BD010B1B0F5A02F11D000
:1023C000286820F480302860286820F4802002E00B
:1023D000286840F480302860606890B1FFF7F8FB0F
:1023E00006460AE0286840F480202860F0E700BF35
:1023F000FFF7EEFB801B642873D828688003F7D5AD
:102400000CE0FFF7E5FB064605E000BFFFF7E0FB49
:10241000801B6428F0D828688003F7D420789A4E6F
:1024200080074FF001094FF0000839D5686810F0B7
:102430000C0F07D06868C0F38100022809D16868D2
:10244000C00306D42868800714D52069012808D164
:1024500010E02069B0B1C6F80090FFF7B9FB07465D
:1024600005E00AE1FFF7B4FBC01B0228C4D82868C6
:102470008007F7D52868616920F0F80040EAC100BC
:1024800028600DE0C6F80080FFF7A2FB074604E0D5
:10249000FFF79EFBC01B022823D828688007F7D4CB
:1024A000207800072CD57948A169D9B1C0F80090EF
:1024B000FFF78EFB074604E0FFF78AFBC01B0228EC
:1024C0000FD8686A8007F7D571484FF4FA51006851
:1024D000B0FBF1F0009000BF0098411E0091FAD2CD
:1024E0000EE080E0C0F80080FFF772FB074604E0D2
:1024F000FFF76EFBC01B022875D8686A8007F7D407
:102500002078400760D5E8690027C00008D4E86952
:1025100040F08050E861E869012700F080500090A9
:102520005C480168C90513D40168834641F4807191
:102530000160FFF74DFB824606E000BFFFF748FB56
:10254000A0EB0A0064284ED8DBF80000C005F5D5E2
:10255000E06801280AD008B1052813D0286A20F0C5
:1025600001002862286A20F0040002E0286A40F096
:1025700001002862E06841F2883B98B1FFF728FB30
:1025800082460BE0286A40F004002862EEE700BFB4
:10259000FFF71EFBA0EB0A0159455AD8286A8007AD
:1025A000F6D50CE0FFF714FB824605E0FFF710FBC1
:1025B000A0EB0A0159454CD8286A8007F6D41FB110
:1025C000E86920F08050E861E06988B36968C1F388
:1025D0008101022944D00228C6F8608004D0FFF7A8
:1025E000F7FA044638E034E0FFF7F2FA074604E071
:1025F000FFF7EEFAC01B02282BD828688001F7D419
:10260000206AB0F5803F05D16868A16820F40030E9
:1026100008436860D4E908010843696821F474112B
:1026200008436860C6F86090FFF7D2FA044606E0F7
:1026300025E000BFFFF7CCFA001B022809D8286864
:102640008001F7D51BE000BFFFF7C2FA001B02288C
:1026500002D90320BDE8F88F28688001F4D40EE089
:102660000128F7D06868226A00F48031914204D1D1
:10267000616A00F47010884201D00120EAE700206E
:10268000E8E700000010024000004242800442429D
:10269000200000200070004070B5040009D0606A7E
:1026A000002540B125616561A56294F8510040B1F3
:1026B0000CE0012070BD6068B0F5827FF4D0E56168
:1026C000F2E784F85050204600F040F8022084F8E9
:1026D00051002068016821F040010160A088218933
:1026E00000F4827001F404410843A18901F40061FF
:1026F0000843217C01F002010843217D01F0010122
:102700000843218B01F400710843217F01F0380157
:10271000084394F8201001F080010843218D01F452
:102720000051084321680860A069042101EA1040B3
:10273000216848602068C16921F40061C161656554
:10274000012084F85100002070BD000030B585B034
:10275000002400940194029403940068154988426F
:1027600025D11548C16941F48041C161C16901F4B5
:1027700080410491816941F00801816180690F4DB8
:1027800000F0080004904FF43040009002200190C7
:102790000320039069462846FFF714F94FF4804060
:1027A000CDE90004694628460294FFF70BF905B00D
:1027B00030BD00000038004000100240000C014015
:1027C00010B5401EB0F1807F01D3012010BD4FF045
:1027D000E02460610F21601702F09EFA0020A061E2
:1027E00007202061002010BD70B590F83C20012A20
:1027F0002CD0012480F83C40022280F83D20036860
:102800005A689D6822F070060A6832435A60104B7D
:1028100002689A420ED00F4B9A420BD0B2F1804F11
:1028200008D00D4B9A4205D00C4B9A4202D00C4B6B
:102830009A4204D1496825F080031943916080F8D9
:102840003D40002180F83C10084670BD022070BD5C
:10285000002C01400034014000040040000800400A
:10286000000C004010B5040003D094F83D0010B1F6
:1028700007E0012010BD002084F83C00204600F055
:102880001FF8022084F83D00211D206801F042FE5F
:10289000012084F8460084F83E0084F83F0084F864
:1028A000400084F8410084F8420084F8430084F832
:1028B000440084F8450084F83D00002010BD00006D
:1028C00008B500680649884208D10648C16941F048
:1028D0000201C161C06900F00200009008BD000063
:1028E000000400400010024070B5044690F83C001F
:1028F0000025012817D0012684F83C60022084F8C6
:102900003D002068826822F0770222F47F428260D4
:102910000868502838D00DDC20284FD005DC90B353
:10292000102811D14AE0022070BD302846D040283E
:102930000AD13BE060282FD070280DD0B0F5805F21
:1029400003D0B0F5005F12D0012584F83D6000206F
:1029500084F83C00284670BDCB68D1E9012120688D
:1029600001F033FE2068816841F0770109E0CB680F
:10297000D1E90121206801F028FE2068816841F436
:1029800080418160E1E719E0CA684968206801F088
:10299000F1FE5021206806E0CA684968206801F00D
:1029A000FAFE6021206801F01AFECEE7CA68496885
:1029B000206801F0DFFE40212068F4E7226801462C
:1029C0001046F0E700B585B0002100910191029119
:1029D000039100680B49884211D10B48816941F08D
:1029E000040181618069694600F004000490402080
:1029F00000900220019003900448FEF7E3FF05B029
:102A000000BD00000004004000100240000801402A
:102A100070B5044690F83C0000260D4601280FD002
:102A2000012084F83C006AB1042A1DD0082A2FD066
:102A30000C2A3FD00126002084F83C00304670BDAF
:102A4000022070BD206801F0D3FD2068816941F04B
:102A5000080181612068816921F004018161206899
:102A600081692A69114311E0206801F0F1FD2068B5
:102A7000816941F4006181612068816921F480618C
:102A80008161206881692A6941EA02218161D2E776
:102A9000206801F013FE2068C16941F00801C1619E
:102AA0002068C16921F00401C1612068C1692A69F7
:102AB000114311E0206801F035FE2068C16941F43E
:102AC0000061C1612068C16921F48061C161206831
:102AD000C1692A6941EA0221C161ACE710B504006D
:102AE00003D094F83D0010B107E0012010BD002094
:102AF00084F83C00204600F01EF8022084F83D00D7
:102B0000211D206801F006FD012084F8460084F8AC
:102B10003E0084F83F0084F8400084F8410084F8C7
:102B2000420084F8430084F8440084F8450084F8A7
:102B30003D00002010BD704710B50446022249B187
:102B400004290ED0082913D094F84100012816D08A
:102B5000012010BD94F83E000128F9D184F83E20F0
:102B60000FE094F83F000128F2D184F83F2008E0FC
:102B700094F840000128EBD184F8402001E084F86B
:102B800041200122206801F013FD13492068134AF7
:102B9000884201D0904203D1436C43F40043436424
:102BA000206888420DD090420BD0B0F1804F08D001
:102BB0000B49884205D00B49884202D00A49884215
:102BC00004D1816801F00701062903D0016841F0B2
:102BD00001010160002010BD002C014000340140C3
:102BE0000004004000080040000C0040704770479F
:102BF000F8B5016804460868CA684B6910F00F0F01
:102C00004FF0000559D003F0010602F490773743E6
:102C100065D0C10705D0D10503D5616C41F0010134
:102C20006164410705D5D90703D0616C41F0020109
:102C30006164810705D5D90703D0616C41F00401B7
:102C40006164010707D502F02001314303D0616CB4
:102C500041F008016164616C00293AD0800604D516
:102C6000900602D5204601F02EFF20684069616C75
:102C7000C0F38010090700D460B3204601F0FCFEC9
:102C800020684069400621D52068143050E8001FB4
:102C900021F0400140E80012002AF5D1E06BA8B114
:102CA0006D494163E06BFEF74BFD002811D0E06BEE
:102CB000416B01B0BDE8F040084783060FD593068D
:102CC0000DD52046BDE8F84001F0FDBE2046FFF7D7
:102CD0008EFFF8BD2046FFF78AFF6564F8BD266BBE
:102CE0002023012E7CD1C6067AD5D60678D5086871
:102CF0004868009048694FF00206400640D5E16BF5
:102D0000086840680004000CE8D0A28D8242E5D932
:102D1000E085886920282DD020680C3050E8001FFD
:102D200021F4807140E80012002AF5D120681430A7
:102D300050E8001F21F0010140E80012002AF5D1FF
:102D40002068143050E8001F21F0400140E80012D4
:102D5000002AF5D184F84230256320680C3050E811
:102D6000001F21F0100140E80012002AF5D1E06BAD
:102D7000FEF7C2FC6663A08DE18D401A81B22AE0A5
:102D8000A08DE18D401A81B2E08D0028A6D00029E7
:102D9000A4D022680C3252E8000F20F4907042E870
:102DA0000007002FF5D12068143050E8002F22F0E2
:102DB000010240E80027002FF5D184F84230256356
:102DC00020680C3050E8002F22F0100240E8002369
:102DD000002BF5D166632046FFF708FFF8BDFFE73B
:102DE00005062BD5150629D594F841002128F5D1E3
:102DF000A068B0F5805F01D12069B0B1206A411CA4
:102E00002162216800784860E08C401E0004000CBC
:102E1000E084E3D12068C16821F08001C1602068AE
:102E2000C16841F04001C160D8E7206A0088C0F362
:102E300008004860206A801C2062E5E74006CDD586
:102E40005006CBD5CA68204622F04002CA6084F8FA
:102E5000413000F0F8F8C1E7694A000870B5040095
:102E600004D094F84100002510B106E0012070BDA7
:102E700084F84050204600F023F8242084F84100D4
:102E80002068C16821F40051C160204601F07CFE39
:102E90002068016921F4904101612068416921F0B5
:102EA0002A0141612068C16841F40051C160656434
:102EB000202084F8410084F842006563002070BD42
:102EC00070B586B0002400940194029403940368C2
:102ED0002F482E4E022103220515B34221D18369CA
:102EE00043F480438361836903F4804304938369DB
:102EF00043F0040383618069264E00F004000490CF
:102F00000802CDE90001039269463046FEF75AFDFA
:102F1000CDE90054694630460294FEF753FD06B0F1
:102F200070BD1D4EB342FAD1C36943F48023C3611F
:102F3000C36903F480230493836943F0100383611E
:102F40008069CDE9005100F01000CDE90320134D58
:102F500069462846FEF736FDE814CDE900046946C7
:102F600028460294FEF72EFD0D48416821F03001FD
:102F700041F0E06141F0100141600022114627203C
:102F8000FFF71AF82720FFF709F8C8E700380140D3
:102F900000100240000801400048004000100140BD
:102FA0000000014070472DE9F843044690F84100C5
:102FB000984616460D46202802D00220BDE8F88328
:102FC00085B17EB100206064212084F84100FEF7C5
:102FD000FFFDA6848146E684A0682027B0F5805FC7
:102FE00002D003E00120E9E7206910B12E46002558
:102FF0000EE000260CE08021204601F021FEA8B959
:10300000C6B116F8010B21684860E08C401EE084D0
:10301000E08C4B464FF00002CDF800800028EAD14A
:103020004FF04001204601F00BFE40B184F84170A2
:103030000320C3E735F8020BC0F30800E3E784F888
:1030400041700020BAE77047FEE701684A69D24341
:1030500052050FD46FF480624A61002140F8301F9E
:10306000202242738173026942F0040202610173FB
:103070000120704700207047F8B50446C06A1E461C
:103080000D461746082807D0012805D010F5803FC7
:1030900002D0206B122804D12068016841F48071AD
:1030A0000160134600224FF001112046009600F007
:1030B0005DF840B120680068C00502D54FF400708B
:1030C00020640320F8BD2069B0F5804F0ED00620A3
:1030D000216800EAD51040F0F000086133463A4616
:1030E0000B49204600F08AF878B902E005F0FE00AE
:1030F00000E0E8B221680861054933463A46891F75
:10310000204600F07BF80028DCD00120F8BD00004C
:103110000800010070B516460D4604461EE0204624
:10312000FFF793FF08B1012070BD681C16D0FEF7B1
:103130004FFD801BA84200D885B920684069C04374
:1031400040070BD5002044F8300F20216173A07395
:10315000216941F0200121612073E4E72068406982
:10316000C0434007DBD4002070BD00002DE9F047CC
:10317000984617460D460446C1F30746DDF82090F1
:103180002AE000BFB8F1FF3F26D0FEF721FDA0EBFB
:103190000901414502D8B8F1000F1DD12068012E68
:1031A00016D0806925EA00000004000C12D000202F
:1031B000B84211D1002044F8300F20216173A07370
:1031C000216941F02001216120730120BDE8F087D1
:1031D0004069E7E70120EBE72068012E0AD080690B
:1031E00025EA00000004000C06D00020B842C9D037
:1031F0000020EBE74069F3E70120F7E72DE9F0470E
:10320000984616460D4604464FF000094FF0200A36
:10321000C1F3074723E020684069C043400515D447
:103220002068016841F40071016021686FF48060DA
:103230004861C4F8309084F83DA084F83E90216C39
:1032400041F00401216484F83C9021E0701C06D018
:10325000FEF7BEFCA0EB0800B04203D816B1012F68
:103260001FD021E02068012F15D0806925EA0000D9
:103270000004000C18D000BF44F8309F84F80DA063
:1032800084F80E90216941F02001216184F80C90AE
:103290000120BDE8F087406925EA00000004000C29
:1032A000EAD12068406901E02068806925EA0000D1
:1032B0000004000CAFD1ECE770B516460D4604468D
:1032C0001EE02046FFF7C1FE08B1012070BD681C5A
:1032D00016D0FEF77DFC801BA84200D885B9206877
:1032E0004069C04300060BD5002044F8300F202170
:1032F0006173A073216941F0200121612073E4E72B
:1033000020684069C0430006DBD4002070BD000087
:10331000FEB500241B4800940194194902940160F1
:1033200089158160012505730475032606614FF434
:1033300060214460C161FEF777F808B1FDF713FF23
:1033400005200094CDE9015069460E48FDF77CFF49
:1033500008B1FDF708FF0224CDE900546946094889
:10336000FDF772FF08B1FDF7FEFECDE900466946A4
:103370000448FDF769FF002801D0FDF7F4FEFEBD0B
:103380000024014070050020054808B5416941F05E
:1033900001014161406900F00100009008BD00009A
:1033A000001002402DE9F04F85B0002566480095D9
:1033B000019502950395816941F010018161816950
:1033C00001F010010491816941F02001816181695E
:1033D00001F020010491816941F00401816181695A
:1033E00001F004010491816941F008018161806963
:1033F000DFF858B100F0080004900122CF215846B0
:10340000FEF7E1FB41F2B807012239465048FEF7CA
:10341000DAFB4FF4006A002251464D48FEF7D3FB19
:10342000012204214B48FEF7CEFB012218214A4815
:10343000FEF7C9FBDFF824814FF4C040CDE9000856
:103440000124694602945846FEF7BCFACF20CDE924
:1034500000040326CDE9024669465846FEF7B2FA53
:10346000CDE90074CDE9024669463948FEF7AAFA6B
:103470004FF44C7002278DE8A10069465846FEF7CC
:10348000A1FA40F603408DE8A10069463248FEF7F4
:1034900099FA4FF48079CDF80090CDE9015769464B
:1034A0002B48FEF78FFACDF800A00396CDE901472F
:1034B00069462748FEF786FAE003CDE90008694629
:1034C00002942348FEF77EFA200300902448CDE9B9
:1034D000010469465846FEF775FA0420CDE9000458
:1034E000CDE9024669461B48FEF76CFA1820CDE983
:1034F0000004CDE9024669461748FEF763FA4FF427
:103500000870CDE90008694602941348FEF75AFA9C
:10351000CDF80090CDE9018569460F48FEF752FAD3
:10352000002204211720FEF747FD1720FEF736FD85
:10353000002204212820FEF73FFD2820FEF72EFD63
:1035400005B0BDE8F08F00000010024000100140FF
:103550000008014000140140000C0140000031103F
:10356000000011100D4810B50B4901600C49416075
:1035700000214FF480428160C0E903124161816102
:10358000C1610162FEF72AFB002803D0BDE81040AC
:10359000FDF7E9BD10BD000000540040E405002027
:1035A000A08601000F4810B50D4901604FF48271EB
:1035B000416000218160C1604FF480220161C0E957
:1035C0000512C1610162416281620A21C162FFF795
:1035D00063F8002803D0BDE81040FDF7C4BD10BD5E
:1035E000003800403806002010B58EB00024079443
:1035F000089409940A940B941C2168460C94FCF7D7
:10360000DEFD1E481C4901602321C0E9011463212D
:10361000C0E903148461FFF725F908B1FDF7A3FDA4
:103620004FF48050079007A91448FFF75DF908B1DF
:10363000FDF799FD1148FFF751FA08B1FDF793FD29
:103640000B940BA90D480C94FFF7CEF808B1FDF7C9
:103650008AFD602000903220CDE9010400226946F5
:1036600006480494FFF7D4F908B1FDF77CFD034840
:10367000FFF7A8F90EB010BD00040040900600202E
:103680000C4810B50A4901604FF4E1314160002156
:1036900081600C22C160C0E904128161C161FFF741
:1036A000DDFB002803D0BDE81040FDF75CBD10BD78
:1036B00000380140D80600200C4810B50A490160C6
:1036C0004FF4E1314160002181600C22C160C0E90A
:1036D00004128161C161FFF7C1FB002803D0BDE87E
:1036E0001040FDF740BD10BD0048004020070020FD
:1036F000FEE7FEE74FF480610148FCF760BD000083
:10370000340000202DE9FC4F06469A4690460F46AD
:10371000941B00D56442BAEB070000D540428146B5
:103720004FF0FF30464501D2012100E001460191F2
:10373000574500D20120A4EB0905C9F1000B009008
:1037400001223946304600F019F8464501D1574567
:1037500011D0680000B2584505DDA5EB09010DB296
:1037600001993144CEB2A042EADA281905B2009894
:103770003844C7B2E4E7BDE8FC8F000010B58028EC
:103780000FD240290DD2CB0800EBC313054801240A
:1037900001F007018C40C15C0AB1214300E0A14364
:1037A000C15410BD340000202DE9F0478046089830
:1037B0001E4617468A46B8B1002511E000240AEBE0
:1037C000050909E008EB040009F0FF01C0B201227D
:1037D000FFF7D4FF641CE4B2BC42F3D36D1CEDB21E
:1037E000B542EBD3BDE8F08708EB0204641E404607
:1037F000E2B20B46FFF786FF0AEB06056D1EEBB241
:10380000E2B2E9B24046FFF77DFF4246EBB25146D5
:103810001046FFF777FFEBB2E2B2E0B25146BDE8E7
:10382000F047FFF76FBF000010B52EA001F04AFA75
:103830006420FEF793F8AE2002F03EFCD52002F0A3
:103840003BFC802002F038FCA82002F035FC3F2031
:1038500002F032FCD32002F02FFC002002F02CFCFE
:10386000402002F029FC8D2002F026FC142002F0FA
:1038700023FC202002F020FC002002F01DFCA120EF
:1038800002F01AFCC82002F017FCDA2002F014FC47
:10389000122002F011FC812002F00EFCCF2002F079
:1038A0000BFCD92002F008FCF12002F005FCDB2023
:1038B00002F002FC402002F0FFFBA42002F0FCFB1F
:1038C000A62002F0F9FBAF2002F0F6FB4FF4806176
:1038D0000D48FCF774FC00F02BF80CA001F0F2F995
:1038E000012010BD5B4F4C45445D20496E697469F1
:1038F000616C697A696E6720646973706C61792E96
:103900002E2E0D0A00000000340000205B4F4C45B5
:10391000445D20496E697469616C697A6174696F8C
:103920006E20636F6D706C6574650D0A0000000099
:103930002DE9F0478AB0212002F0BEFB002002F002
:10394000BBFB7F2002F0B8FB222002F0B5FB002079
:1039500002F0B2FB072002F0AFFB144F4FF4806679
:1039600000240DF104084FF040094FF0640A301BA9
:10397000202800DD202085B28DF8049039192A46D0
:1039800008F10100FCF702FC681C83B201AA78214F
:103990000748CDF800A0FEF7E5F9002803D160192B
:1039A00084B2B442E3D30AB0BDE8F087340000200B
:1039B000E405002070B5203A5F2A19D2002B17D1F8
:1039C000D3B2082914D2802812D20A4C03EB430345
:1039D00004EB4303084C002200EBC1118518802D35
:1039E00002D28E189D5CA555521CD2B2062AF5D380
:1039F00070BD0000386400083400002008B5FFF7EF
:103A000079FE00230DA20221102000F067F80023A8
:103A10000EA204211C2000F061F800230EA2062152
:103A2000282000F05BF8002040238022014600900F
:103A3000FFF7BAFEBDE80840FFF77ABF5468726529
:103A4000652D4368616E6E656C000000436F6E7497
:103A5000726F6C6C6572000076342E3000000000CE
:103A60003EB50446642800D96424FFF743FE0023D2
:103A700015A201211E2000F031F8002000900A2339
:103A800064221C210E20FFF78FFE62206043642118
:103A9000B0FBF1F010F0FF0206D0012000900823E7
:103AA0001D210F20FFF780FE23460AA2082101A84E
:103AB00001F018F9002301AA0521382000F00EF8C2
:103AC000FFF736FF3EBD00004C6F6164696E672EE4
:103AD0002E2E00002564252500000000F0B51E46AE
:103AE00015460F46044609E0802C0AD23346394673
:103AF0002046FFF75FFFA41DE4B26D1C2A78002A60
:103B0000F2D1F0BD38B53CA001F0DCF843A001F0E3
:103B1000D9F8FFF7EFFDFFF70BFF4FF4FA70FDF751
:103B20001DFF46A001F0CEF8FFF7E4FD00213F2382
:103B30007F220846FFF7E6FD00237F223F2118463B
:103B4000FFF7E0FD00200A2100902C236C2208469C
:103B5000FFF72AFEFFF7ECFE4FF47A70FDF7FEFE4A
:103B60003DA001F0AFF8FFF7C5FD002341A21946C3
:103B70001846FFF7B3FF002342A202211846FFF7C1
:103B8000ADFF002342A203211846FFF7A7FF002341
:103B900041A205211846FFF7A1FF002341A20621FB
:103BA0001846FFF79BFFFFF7C3FE4FF4FA64204669
:103BB000FDF7D4FE3DA001F085F8FFF71FFF20467A
:103BC000FDF7CCFE40A001F07DF800244FF496757F
:103BD0002046FFF745FF214643A001F073F8284631
:103BE000FDF7BCFE0A34E4B2642CF1D9BDE83840DC
:103BF00043A001F067B800005B4F4C45445D205284
:103C0000756E6E696E6720646973706C617920747B
:103C10006573742E2E2E0D0A000000005B4F4C457C
:103C2000445D205465737420313A20436C656172A1
:103C30002073637265656E0D0A0000005B4F4C4592
:103C4000445D205465737420323A204472617720B9
:103C50006C696E65730D0A005B4F4C45445D2054E2
:103C600065737420333A2053686F772074657874D5
:103C70000D0A00004F4C45442054657374204F4B8F
:103C8000000000005265736F6C7574696F6E3A00C6
:103C90003132387836340000436F6E74726F6C6C5A
:103CA00065723A0053534431333039005B4F4C4511
:103CB000445D205465737420343A2053686F772034
:103CC0006C6F676F0D0A00005B4F4C45445D2054DC
:103CD00065737420353A2050726F67726573732074
:103CE0006261720D0A0000005B4F4C45445D20503C
:103CF000726F67726573733A20256425250D0A007B
:103D00005B4F4C45445D20446973706C617920744D
:103D100065737420636F6D706C657465210D0A00A6
:103D20007047000070B51E4E054696F81C0100282D
:103D300003D0681E032801D3002070BDC0B2C0EBC1
:103D4000C00101EB001006EB8004A07D012821D00A
:103D500002281FD094F8360001281BD0022819D061
:103D6000294610A000F0AEFF2046002102F0CAF95B
:103D700004F12000002102F0C5F9002004F84E0FE4
:103D80000221617096F81411A94201D186F814013C
:103D9000012070BD29460AA000F094FFCCE7000086
:103DA000340400205B52656C61795D20436C6F7355
:103DB000696E6720434825642E2E2E0D0A000000F0
:103DC0005B52656C61795D204348256420697320EE
:103DD000627573790D0A00000048704734040020B2
:103DE0002DE9F0474FF490716448FCF7E8F9644816
:103DF000624C4FF0010902232060A4F80490A060F7
:103E0000A38110272061A7825E4982142162A284C7
:103E10004FF00808A162A4F82C805B4A2263A386B5
:103E200085152164A4F844504FF4007CA264A4F8E2
:103E30004CC00423E065A4F860306066A4F8688094
:103E40004FF02008E066A4F87080E167A4F8807065
:103E5000C4F88410A4F888800715C4F88C20A4F84E
:103E60009070C4F89C00A4F8A0C0C4F8A420A4F8E2
:103E7000A8508027C4F8B800A4F8BC704FF0400CDC
:103E8000C4F8C000A4F8C4C04E46C4F8C820A4F8C2
:103E9000CC603E4EC4F8D860A4F8DC30C4F8E01022
:103EA000A4F8E470C4F8E820C214A4F8EC20C4F824
:103EB000F8001001A4F8FC50C4F800110026A4F882
:103EC000040198464FEA0607C6EBC60101EB06124D
:103ED00004EB820585F816802F7785F8368085F803
:103EE0003C7085F84E7085F84F7054F82200A98810
:103EF0000122FDF768FEA9890122A868FDF763FE8B
:103F0000A98C0122286AFDF75EFEA98D0122A86A0C
:103F1000FDF759FE761C032ED6DB84F81471FDF7ED
:103F200057FE0025C4F81801C5EBC50000EB0510CD
:103F300004EB800686F85070776586F85A7056F85C
:103F4000480FB188FDF73AFE30746D1C7774032D6D
:103F5000EADB84F81C910EA000F0B4FE14A000F07F
:103F6000B1FE4FF4FA711FA000F0ACFEBDE8F047BF
:103F70000322322122A000F0A5BE0000340400205C
:103F80000010014000080140000C014000140140F5
:103F90005B52656C61795D204D6F64756C6520695D
:103FA0006E697469616C697A65640D0A00000000CD
:103FB0005B52656C61795D20416C6C206368616E59
:103FC0006E656C7320636C6F7365642028696E7412
:103FD00065726C6F636B20656E61626C6564290D40
:103FE0000A0000005B52656C61795D2050756C734E
:103FF000652077696474683A2025646D730D0A0042
:104000005B52656C61795D204465626F756E6365B6
:104010003A2025646D7320782025642074696D65CD
:10402000730D0A00401E032812D2C0B2C0EBC001BB
:1040300001EB0011084800EB8101887D012809D0BF
:10404000022807D091F83600012803D0022801D0B9
:1040500000207047012070473404002010B5044C44
:10406000012084F85000FDF7B3FD606510BD00002D
:104070003404002010B5044C012004F8AC0FFDF707
:10408000A7FD606010BD00003404002010B5044C92
:10409000012084F80801FDF79BFDC4F80C0110BD58
:1040A0003404002070B51F4E054696F81C01002808
:1040B00031D0681E032833D296F81411C0B231B142
:1040C000A94204D02A4618A000F0FCFD28E0C0EB6D
:1040D000C00101EB001006EB8004A07D01281BD07D
:1040E000022819D094F83600012815D0022813D0E0
:1040F00029461BA000F0E6FD2046012102F002F84F
:1041000004F12000012101F0FDFF012004F84E0F11
:10411000607086F8145170BD294618A000F0D2FDD9
:10412000002070BD340400205B52656C61795D2015
:10413000496E7465726C6F636B3A20434825642046
:104140006973206163746976652C2063616E6E6F9C
:1041500074206F70656E20434825640D0A000000CE
:104160005B52656C61795D204F70656E696E67208A
:10417000434825642E2E2E0D0A0000005B52656C0C
:1041800061795D20434825642069732062757379E5
:104190000D0A00002DE9F05F514D95F81C01002833
:1041A00070D000264FF0010B4FEA060AC6EBC6009E
:1041B00000EB061005EB800000F150048146B0F8DA
:1041C0004C70D0F84880207808B1A07A18B1A07A55
:1041D00001280BD029E039464046FDF7EFFC60721C
:1041E00084F80AB0FDF7F4FC60601EE0FDF7F0FC17
:1041F0006168401A642818D339464046FDF7DEFC52
:10420000617A0746B9420CD1207AB84209D00FB37F
:10421000022189F84F10721C711C32A000F052FD6F
:10422000277284F800A084F80AA0761C032EBDDB58
:104230005FF00000C0EBC00101EB001105EB810253
:1042400092F84F1021B382F84FA0012908D002291B
:1042500019D01DE0721C89F84FB0711C2EA0DDE74B
:1042600020B1012806D0022808D011E00120FFF774
:1042700019FF2AE00220FFF715FF2BE00320FFF7CC
:1042800011FF08E01CE0E8B1012820D0022823D06B
:10429000401C0328CEDB0024C4EBC40000EB041058
:1042A00005EB8006304601F051FF06F1200001F0D9
:1042B0004DFF641C032CEFDBFDF78AFCC5F81801E9
:1042C000BDE8F09F0120FFF72DFD0120B2E702209D
:1042D000FFF728FD0220ADE70320FFF723FDDAE713
:1042E000340400205B4953525D204B25645F454EEA
:1042F00020696E7465727275707420747269676774
:10430000657265642C20636C6F73696E6720434827
:1043100025642E2E2E0D0A005B4953525D204B253D
:10432000645F454E20696E74657272757074207496
:1043300072696767657265642C206F70656E696E5F
:104340006720434825642E2E2E0D0A00704700007A
:104350000348012101700021417002A000F0B2BCAD
:10436000000000205B5361666574795D204D6F64C9
:10437000756C6520696E697469616C697A65640D34
:104380000A0000002DE9F0413F480078002879D06C
:104390003E4E4FF400713046FDF710FC8046B115DB
:1043A0003046FDF70BFC05464FF400413848FDF759
:1043B00005FC04460020B8F1000F00D1012005B92A
:1043C000401C04B9401C02284FF0010002D3FCF746
:1043D0006BFD01E0FCF790FBFFF7FEFC07460120B8
:1043E000FFF720FEA8B90220FFF71CFE88B90320C2
:1043F000FFF718FE68B997F8500050B997F8AC006D
:1044000038B997F8080120B922462946404601F0FC
:10441000E1FE002000F0EAF94FF48061022808462E
:1044200022D0FCF769FB012000F0E0F94FF40061B5
:10443000022808461CD0FCF75FFB022000F0D6F9EA
:104440004FF480510228084615D0FCF755FB202177
:104450003046FDF7B3FB4FF48041012808460DD0EC
:10446000BDE8F041FCF748BBFCF71EFDDBE709E0C7
:10447000FCF71AFDE1E7FCF717FDE8E7BDE8F041BE
:10448000FCF712BDBDE8F08100000020000C0140E7
:1044900000080140FDF72ABD30B595B028216846D7
:1044A000FBF78DFE14210AA8FBF789FE18210FA83F
:1044B000FBF785FE01210804CDE9001000250295D7
:1044C00002240491CDE907404FF4E01009906846BA
:1044D000FDF752FF08B172B6FEE70AA90F2081E886
:1044E00031004FF48060CDE90D0502210AA8FDF7E7
:1044F00067FE08B172B6FEE74FF4004011900F94CA
:104500000FA8FDF7E7FD002801D072B6FEE715B051
:1045100030BD7047F0B50268204C214D214E224F2E
:10452000224B4FF0804CA04209D0984207D0604502
:1045300005D0A84203D0B04201D0B84204D122F045
:10454000700E4A6842EA0E02A04209D0984207D093
:10455000604505D0A84203D0B04201D0B84203D193
:1045600022F44075CA682A434D6922F080022A432A
:1045700002608A68C2620A688262A04201D09842E0
:1045800001D109690163012141610169C90703D0B2
:10459000016921F001010161F0BD0000002C014022
:1045A0000004004000080040000C004000340140BE
:1045B00010B501F01F030121046A99408C43046285
:1045C000016A9A401143016210BD10B5846842EA45
:1045D000032224F47F440A432243826010BD826890
:1045E00022F070020A4342F0070181607047000028
:1045F000F0B5036A026A22F001020262426884692D
:10460000124E24F073050C682C4323F002058B68CE
:104610002B430D4DA84201D0B04205D123F008072D
:10462000CB683B4323F00403A84201D0B04205D13C
:104630004D6922F4407215438A692A4342608461BD
:10464000496841630362F0BD002C01400034014021
:10465000F0B5026A036A23F01003036243688469B9
:104660000D6824F4E64444EA05248D6822F0200213
:1046700042EA05120F4D104EA84201D0B04206D1B9
:10468000CF6822F0800242EA071222F04002A842DC
:1046900001D0B04207D14D6923F4406343EA85035A
:1046A0008D6943EA850343608461496881630262DE
:1046B000F0BD0000002C014000340140F0B5026A5A
:1046C000036A23F4807303624368C46922F40072AE
:1046D00024F073050C68124E2C438D6842EA0522C3
:1046E0000E4DA84201D0B04206D1CF6822F400623C
:1046F00042EA072222F48062A84201D0B04207D1E8
:104700004D6923F4405343EA05138D6943EA0513C9
:104710004360C4614968C1630262F0BD002C01407E
:104720000034014030B5046A026A22F48052026209
:104730004268C3690D6823F4E64343EA05238D68A4
:1047400024F4005444EA0534084DA84202D0084D30
:10475000A84204D14D6922F4804242EA85124260A7
:10476000C36149680164046230BD0000002C01404F
:104770000034014010B5036A046A24F001040462A5
:10478000846924F0F00444EA021423F00A020A4384
:104790008461026210BD10B5036A046A24F010043B
:1047A0000462846923F0A00324F4704444EA0232D2
:1047B00043EA01118261016210BD000005480168F1
:1047C000054AC1EB01114904090C918200210160E5
:1047D00070470000040000205405002002480168D2
:1047E000491C01607047000004000020032803D228
:1047F00002490844807D704700207047540500201E
:1048000070B51A211C48FBF7DAFC1C48FCF7AEFC1B
:1048100003221B491948FCF7E9FE08B119A027E05B
:1048200000212048FEF788F908B11FA020E0124CB3
:104830003220A07400F0B8F801206076224D0020EC
:10484000A0822860FDF7C4F9686020A000F03AFA61
:10485000032127A000F036FAA17C31A000F032FA43
:10486000A62139A000F02EFA414800F02BFA41A011
:10487000BDE8704000F026BA540500207005002005
:104880000C0000204552524F523A204144432B44E1
:104890004D41207374617274206661696C65640DAA
:1048A0000A000000900600204552524F523A205410
:1048B000494D332050574D207374617274206661E6
:1048C000696C65640D0A0000040000205B54656D8E
:1048D00070657261747572655D204D6F64756C658D
:1048E00020696E697469616C697A65640D0A0000FB
:1048F0005B54656D70657261747572655D204144CD
:10490000432B444D41207374617274656420666F5B
:1049100072202564206368616E6E656C730D0A00F9
:104920005B54656D70657261747572655D2046617A
:104930006E2050574D2073746172746564206174E9
:1049400020256425250D0A005B54656D7065726134
:10495000747572655D204C6F6F6B75702074616249
:104960006C653A20256420706F696E74730D0A00BF
:10497000E06B00085B54656D7065726174757265FB
:104980005D2046616E2052504D206D6561737572D9
:10499000656D656E7420656E61626C65642028507B
:1049A000433132290D0A0000642800D964200649E9
:1049B000887406490A68D16A491C48436421B0FBDF
:1049C000F1F050637047000054050020900600206D
:1049D0002DE9F0471E4D687E002837D0FDF7F8F826
:1049E0001C4C03466068181AB0F57A7F02D3FFF7B3
:1049F000E5FE6360184E194FDFF86480DFF86490BD
:104A0000002400BF36F8140025F81400FBF7B3FCAF
:104A10003946FBF737FC4146FBF766FC00F070FEB9
:104A200001F00AFB4946FBF72DFCFBF7A9FC05EB5F
:104A30004401888135F81400641CC880032CE1DB34
:104A400001F092FCBDE8F04701F058BCBDE8F087EA
:104A500054050020040000200C0000203333534094
:104A600000F07F450000204110B5406A0021C1855B
:104A7000C184FEF7BCF810BD01680C3151E8002F6D
:104A800022F4907241E80023002BF5D10168143123
:104A900051E8002F22F0010241E80023002BF5D15C
:104AA000016B012909D101680C3151E8002F22F076
:104AB000100241E80023002BF5D1202180F842109C
:104AC00000210163704708B590F84210222901D0F7
:104AD000022008BD82684FF480539A4201D10169D7
:104AE00021B1816A9A421BD04AB10AE00268816A08
:104AF0005268C2F308020A80816A891C08E00269D0
:104B000072B10268526802F07F020A70816A491C21
:104B10008162C18D491E0904090CC18503D01BE0C7
:104B200002685268F1E70168CA6822F02002CA6090
:104B30000168CA6822F48072CA6001684A6922F07A
:104B400001024A61202180F8421000214163026B7A
:104B5000012A03D0FEF726FA002008BD0163016890
:104B60000C3151E8002F22F0100241E80023002B05
:104B7000F5D101680A68D20602D50A684968009131
:104B8000818DFEF733F8E7E770B5044600680169E8
:104B9000E26821F44051114301612169A068084392
:104BA000616908432168CA6841F20C639A43024371
:104BB000CA6020684169A26921F4407111434161D2
:104BC0001E492068884202D1FDF7A0FB01E0FDF7F5
:104BD0008DFB00EBC00101EB0012606864218000D6
:104BE000B2FBF0F3B3FBF1F36FF018067343B2FBC3
:104BF000F0F5B2FBF0F605EB8305322303EB051568
:104C0000B5FBF1F5B6FBF1F605F0F00505EB061581
:104C1000B2FBF0F6B2FBF0F0B0FBF1F06FF018026F
:104C2000504306EB800003EB0010B0FBF1F021686D
:104C300000F00F002844886070BD0000003801407B
:104C40002DE9F843984617460D460446089E24E091
:104C5000701C22D0FCF7BCFFA0EB0800B0421AD8B1
:104C6000CEB12068C168490717D5802D15D0402DD9
:104C700013D00168C94309070FD4016800254068B3
:104C800000902046FFF7F8FE0820606484F840504A
:104C90000120BDE8F8830320FBE72068006835EABF
:104CA000000004D00020B842D2D00020F1E701205B
:104CB000F9E700000148FDF79BBF00002007002036
:104CC000FEE700000FB4054B10B503A9044A029893
:104CD00000F004F910BC5DF814FB00004157000817
:104CE000240000200FB47CB50C0009AD01D0611E7A
:104CF00000E00021CDE90001064B6A4629460898EC
:104D000000F0ECF8002C02D0009A002111707CBC5D
:104D10005DF814FBE35500080907090E002804DBC1
:104D200000F1E02080F80014704700F00F0000F15F
:104D3000E02080F8141D704702E008C8121F08C167
:104D4000002AFAD170477047002001E001C1121F0C
:104D5000002AFBD1704700002DE9FF5F82B00021DF
:104D6000DDE90430020DDDF840B0034318D044F60D
:104D70001050A2F2FF3242431514119801281FD09F
:104D8000A5EB0B00401C5FEA000A4FF000064E4FF7
:104D9000DFF83891B046504615D5CAF1000413E04B
:104DA000119801244AA3012801D16FEA0B0102984E
:104DB000119AC0E90031C0E9024206B0BDE8F09F97
:104DC000CBF10000DFE704460021404A491842EBDE
:104DD0000450CDE9001012E0E00707D032463B4610
:104DE00040464946FBF715FC8046894632463B461D
:104DF00010461946FBF70DFC06460F466410002CC2
:104E0000EAD1DDE90401DDE90023BAF1000F06DA99
:104E1000FBF7FFFB42464B46FBF7FBFB05E0FBF7CE
:104E20006AFC42464B46FBF766FC04460E460022EF
:104E3000284BFBF7E7FC03D84FF0FF30014607E0B3
:104E40000022254B20463146FBF73CFBFBF7C2FC1A
:104E5000102409E0002C0ADB0A220023FBF7CAFA1F
:104E6000039B30321A55641E50EA0102F2D1641CD1
:104E7000039AC4F111031444119A012A03D00122A8
:104E800008430DD10AE0084304D000204FF0110B75
:104E9000119072E7A3EB0B056D1E0DE05B4504DD81
:104EA0004FF0000205F1010504E003DA4FF00002C3
:104EB000A5F10105002AECD002981199C0E9023150
:104EC000C0E9004579E70000000014400000F03F11
:104ED000300000000000F0430000E03F2DE9FF4FEC
:104EE00095B09A46884606460025EEE1252877D1FA
:104EF00000242746F94A0121039400E0044316F8F0
:104F0000013F203B01FA03F01042F7D130782A2804
:104F100011D06FF02F033078A0F13002092A16D893
:104F2000039A44F0020402EB820203EB42021044B3
:104F3000761C0390EFE758F8042B0392002A03DA5B
:104F4000504244F40054039044F00204761C30783C
:104F50002E2816D116F8010F44F004042A280DD08B
:104F60006FF02F023078A0F13003092B09D807EB3E
:104F7000870302EB4303C718761CF3E758F8047B5A
:104F8000761C30786C280FD006DC4C2817D06828A7
:104F90000DD06A2814D104E0742810D07A280FD1DB
:104FA0000DE044F400140AE044F4801401E044F4F9
:104FB00040147278824202D104F58014761C761C6B
:104FC000307866280BD013DC582877D009DC00280D
:104FD00075D04528F6D04628F4D047281AD193E159
:104FE00018E0632835D0642879D0652812D18BE188
:104FF000702873D008DC6728F1D069286FD06E283C
:105000000DD06F2806D1ACE073282CD0752874D051
:10501000782853D05246179990476D1C54E1C4F339
:105020000250022809D003280DD0D8F80010042817
:105030000DD00D6008F1040846E1D8F80010EA1719
:10504000C1E90052F6E7D8F800100D80F2E70D70C4
:10505000F0E718F8041B8DF8001000208DF801000F
:10506000EB46012003E058F804BB4FF0FF30610726
:105070004FF0000102D40DE009F101018946B94267
:105080000FDA8145F8DB1BF809100029F4D108E09C
:1050900009F1010189468142FADB1BF80910002958
:1050A000F6D103985346A0EB090721463846179AD4
:1050B00000F080FA284400EB090507E044E008E12D
:1050C0000DE01BF8010B524617999047B9F1010901
:1050D000F7D2534621463846179AF2E039E00A21C2
:1050E000C4F302524FF0000B0091022A06D058F888
:1050F000040BC117032A09D00AE023E008F10700D6
:1051000020F00702F2E80201904605E000B2C11764
:10511000042A01D140B2C117002906DA0A4600214B
:10512000404261EB02012D2202E0220504D52B2230
:105130008DF80420012203E0E20701D02022F7E7E6
:10514000914657E00A2100E010214FF0000B00913A
:105150000BE010214FF0000B44F0040408270091ED
:1051600003E008204FF0000B0090C4F30252022A23
:1051700005D058F8040B0021032A08D008E008F1F4
:10518000070020F00702F2E80201904603E080B237
:10519000042A00D1C0B24FF0000922072AD5327884
:1051A000702A07D0DDF800C08CF0100C5CEA0B0C04
:1051B00005D00EE040228DF80420012208E050EADC
:1051C000010306D030238DF804308DF8052002222B
:1051D0009146009B83F0080353EA0B030AD150EA7F
:1051E000010201D1620705D530228DF804204FF06D
:1051F00001097F1E3278582A04D039A20C920CAAD9
:1052000002920BE03BA2F9E75B46009AFBF7F2F84B
:105210000C9B9B5C029A521E0292137050EA010290
:10522000F2D1029804A9081A00F1200B600702D5F8
:1052300024F4803400E001275F4502DDA7EB0B007A
:1052400000E0002000EB0B01009003984944401A55
:105250000390E00306D453462146179A039800F0C2
:10526000A9F90544002706E001A85246C05D179938
:1052700090476D1C7F1C4F45F6DBE0030CD5534671
:105280002146179A039800F095F9054404E0302070
:105290005246179990476D1C0099481E00900029AE
:1052A000F5DC08E00298029952460078491C029108
:1052B000179990476D1CBBF10001ABF1010BF1DCBC
:1052C0005BE100F065F90544761C307800287FF436
:1052D0000DAE19B02846BDE8F08F00000928010086
:1052E000303132333435363738396162636465665C
:1052F000000000003031323334353637383941421E
:105300004344454600000000600700D4062708F12A
:10531000070020F00700F0E80223804603F0004C6D
:105320005FEA0C0001D097A009E0200501D596A006
:1053300005E0E00701D095A001E0AFF24C0013902A
:10534000307823F0004365280CD006DC452809D0CE
:1053500046281DD047287FD13BE0662818D0672813
:105360007AD136E00021112F01DB112000E0781CFA
:10537000CDE9000104A90CA8FFF7EEFCDDE90D0161
:105380000C9A4FF0000B07F10109109200914EE0CA
:105390004FF000400097CDE9011004A90CA8FFF7D9
:1053A000DBFCDDE90D020C9B0F994FF0000B9146E1
:1053B0001093009211B9791C00EB0109B7EB0900B9
:1053C00003D4C0F1FF3B07F10109A9EB07000190ED
:1053D00042E0012F00DA01270021112F01DD112009
:1053E00000E03846CDE9000104A90CA8FFF7B4FCA1
:1053F000DDE90D010C9A00914FF0000BB9461092B7
:1054000021070FD4009A4A4503DA914601E0A9F139
:105410000109B9F1010F05DD109AA9F10101515CF3
:105420003029F4D0B84202DA10F1040F03DA012176
:10543000CDE9011010E0002803DC8344A9EB000152
:1054400002E0411C494500DD8946A0EB0B00401CF1
:1054500001904FF000400290200705D40198484584
:1054600002DB4FF0FF30019000208DF84B000298D6
:105470000DF14B07B0F1004F25D002200C902B20EE
:105480000D90029800280CDA404202902D200D90D9
:1054900007E00A210298FAF797FF3031029007F8E7
:1054A000011D0C99481E0C900029F2DC029800287E
:1054B000EFD1791E0D980870307800F0200040F090
:1054C000450007F8020D11A8C01BC01D02901398DB
:1054D000007800B1012000EB0901019801EBE071B7
:1054E000029801440398401A401E0390E00306D43A
:1054F00053462146179A039800F05CF80544139828
:10550000007818B15246179990476D1CE00323D5D7
:1055100053462146179A039800F04CF805441BE0C7
:10552000BBF1000F07DB0098584504DD1098179970
:1055300010F80B0001E0179930205246904701986F
:105540000BF1010B401E05F10105019004D12E2045
:105550005246179990476D1CB9F10001A9F1010954
:10556000DEDC05E017F8010B5246179990476D1CD9
:105570000299481E02900029F4DC53462146179AEE
:1055800003989EE62D0000002B0000002000000084
:105590002DE9F041044600251E461746880404D430
:1055A00005E039462020B0476D1C641EF9D5284619
:1055B000BDE8F0812DE9F041044600251E469046E5
:1055C000C80301D5302700E02027880404D505E072
:1055D00041463846B0476D1C641EF9D52846BDE8E3
:1055E000F0814A68002A06D00A68531C0B601070CC
:1055F0004868401E4860704770B5FCF7E9FA0F49EB
:105600004A688D78821A002435B10123012D05D016
:10561000022D05D0032D08D00C7270BD0B7270BD29
:10562000322AFBD3642AF7D305E0B2F57A7FF5D3AB
:10563000B2F5FA6FF0D34860F0E7000028000020D0
:1056400070B5134C0026A578208820B110F4E05FD7
:1056500003D001200CE0A6700BE040F2FE310842BE
:1056600001D0022004E046F20101084201D00320EB
:10567000A070A078A8420AD0FCF7AAFA606026724F
:10568000A2782946BDE8704002A0FFF71BBB70BDA1
:10569000280000205B416C61726D5D204265657081
:1056A000206D6F6465206368616E6765643A2025CC
:1056B00064202D3E2025640D0A00000070B50E4CBC
:1056C000208808B1012100E00021607A0B4D88425A
:1056D00006D0617281F0010210212846FCF773FAAE
:1056E000207A30B100222846BDE870400821FCF73E
:1056F0006ABA0122F7E7000028000020000C0140F0
:1057000070B505460A49A0F50000884201D3094852
:1057100070BD09492846FAF7B2FD044607492846F4
:10572000FAF7B0FD2146BDE87040FAF7DDBD000094
:105730003333D33F002474493333534000002041B6
:1057400013B54FF0FF33012269460248FDF72BFCE9
:1057500000981CBD20070020FCF7D0FBFEF79CFE44
:10576000FDF720FEFDF710FEFDF7D2FDFDF73CFF33
:10577000FDF7F8FEFDF716FFFDF782FFFDF79CFF32
:105780006423112277A17C48FDF70DFC6420FCF70F
:10579000E5F87AA0FFF796FA6420FCF7DFF87CA022
:1057A000FFF790FAFFF72CF885A0FFF78BFA64203B
:1057B000FCF7D4F88CA0FFF785FA95A0FFF782FAE2
:1057C000FEF732F891A0FFF77DFA4FF4FA752846FC
:1057D000FCF7C4F8FEF796F996A0FFF773FA0A20D3
:1057E000FCF7BCF89FA0FFF76DFAA8A0FFF76AFAD4
:1057F000FBF7B2F92846FCF7B1F8AFA0FFF762FA61
:105800000120FBF751FBFBF707FA00246E00611C37
:10581000B3A0FFF757FA3046FCF7A0F8FBF774FB8C
:10582000641C052CF3DB0120FBF766F9B8A0FFF739
:1058300049FA3046FCF792F8BCA0FFF743FA022081
:10584000FBF732FBFBF7E8F90024052794FBF7F0A0
:1058500007FB104028B994FBF7F1BFA0491CFFF7E4
:1058600031FA6420FCF77AF8FBF74EFB641C142C29
:10587000ECDB0220FBF740F9C3A0FFF723FA304628
:10588000FCF76CF8C7A0FFF71DFA4FF480673846A5
:10589000FBF70AFBFBF7C0F90024611CCDA0FFF762
:1058A00011FA3046FCF75AF8FBF72EFB641C052C66
:1058B000F3DB3846FBF720F9D0A0FFF703FA3046B8
:1058C000FCF74CF8D4A0FFF7FDF9DDA0FFF7FAF9DB
:1058D0000120FBF7E9FAFBF717FB4FF4FA60FCF73E
:1058E0003DF8E0A0FFF7EEF90220FBF7DDFA002417
:1058F0006420FCF733F8FBF707FB641C0A2CF7DB8A
:10590000E848FFF7DFF93846FBF7CEFA00243046C7
:10591000FCF724F8FBF7F8FA641C032CF7DBFBF721
:105920007BF9E1A0FFF7CEF9FBF7BCF8FBF774F9C0
:1059300034463046FCF712F8E1A0FFF7C3F90A201D
:10594000FCF70CF8EAA0FFF7BDF9F3A0FFF7BAF9EE
:10595000FEF746FA2846FCF701F8FEF751FFFBF781
:10596000FBF8EBE155415254205465737420537495
:105970006172740D0A000000D80600205072696E32
:1059800074662054657374204F4B0D0A00000000AC
:105990000D0A5B53797374656D5D20496E69746996
:1059A000616C697A696E672074656D706572617487
:1059B000757265206D6F64756C652E2E2E0D0A0054
:1059C0005B53797374656D5D2054656D70657261AC
:1059D00074757265206D6F64756C652072656164A5
:1059E000790D0A0D0A0000000D0A3D3D3D3D3D3D8B
:1059F0003D3D3D3D20506861736520352054657301
:105A000074203D3D3D3D3D3D3D3D3D3D0D0A000089
:105A100054657374696E67204F4C45442064697304
:105A2000706C6179206D6F64756C652E2E2E0D0A79
:105A30000D0A00000D0A3D3D3D3D3D3D3D3D3D3DD6
:105A4000205068617365203520546573742050417F
:105A50005353203D3D3D3D3D3D3D3D3D3D0D0A0DFA
:105A60000A0000000D0A3D3D3D3D3D3D3D3D3D3DB3
:105A700020506861736520362054657374203D3D65
:105A80003D3D3D3D3D3D3D3D0D0A00005465737477
:105A9000696E6720616C61726D206F7574707574CA
:105AA00020636F6E74726F6C206D6F64756C652E01
:105AB0002E2E0D0A0D0A00005B5465737420315DB3
:105AC00020547970652D41204572726F72202D200F
:105AD00031732070756C736520746573740D0A00E2
