:020000040800F2
:10000000400A00204901000897300008ED29000847
:1000100095300008A50A0008853F00080000000090
:10002000000000000000000000000000C7360008CB
:10003000D10A000800000000C5360008C9360008D3
:100040006301000863010008630100086301000800
:1000500063010008630100086301000863010008F0
:1000600063010008630100086301000863010008E0
:1000700063010008630100086301000863010008D0
:1000800063010008630100085509000863010008C6
:10009000630100086301000863010008190B0008F0
:1000A00063010008630100086301000863010008A0
:1000B0006301000863010008630100086301000890
:1000C0006301000863010008630100086301000880
:1000D000630100086301000863010008793F00081C
:1000E000D50A0008630100086301000863010008E5
:1000F0006301000863010008630100086301000850
:10010000630100086301000863010008630100083F
:10011000630100086301000863010008630100082F
:10012000630100086301000863010008630100081F
:10013000DFF810D000F07EFB0048004715490008AA
:10014000AFF30080400A0020064880470648004779
:10015000FEE7FEE7FEE7FEE7FEE7FEE7FEE7FEE777
:10016000FEE7FEE74737000831010008202A04DBDC
:10017000203A21FA02F00021704721FA02F3D04020
:10018000C2F12002914008431946704740EA01033A
:100190009B0703D009E008C9121F08C0042AFAD23D
:1001A00003E011F8013B00F8013B521EF9D2704701
:1001B000D2B201E000F8012B491EFBD270470022A9
:1001C000F6E710B513460A4604461946FFF7F0FF56
:1001D000204610BDF0B480EA0102D40F4200B2EB19
:1001E000410F02D20246084611464A0042D0C30DD2
:1001F000DDB2C1F3C752AD1A202D35DAC1F31601B5
:1002000041F4000204B15242C5F1200602FA06F19F
:100210002A411044B3EBD05F23D0C4B1012DA0EB31
:10022000C35009DCF0BC4FF0004202EAC352DBB21B
:1002300000F5000000F018B9400000F1807000EBFC
:10024000C350A0F1807040EAD170490009E049082C
:1002500041EAC071A0EBC35000F50000400800EB7C
:10026000C350F0BC00F0F7B86142012202EB41013B
:10027000001BF6E7F0BC704781F00041AAE780F070
:100280000040A7E780EA010210B502F000434000F9
:1002900022D04A001FD0010E01EB1261C0F35600BC
:1002A000C2F3560240F4000042F40002A0FB022018
:1002B00000047F39140400D0401C50EA124001D4DD
:1002C0004000491EC2B20C0604EBD010401C40088E
:1002D000802A02D003E0002010BD20F00100002998
:1002E00000DA0020184310BD30B480EA010202F0A9
:1002F000004530F0004221F0004013D090B1C30D12
:10030000D40DC2F31601C0F31600E41A41F4000143
:1003100040F400027D34914201D3641C00E04900A6
:10032000002C02DA30BC002070474FF4000000239C
:10033000914201D3891A034340084FEA4101F7D1A2
:1003400051B1914202D14FF0004105E002D24FF08D
:10035000010101E06FF0010103EBC450284430BCFF
:1003600000F079B8C10F80EAE0700844CA0796230C
:10037000002100F079B896230022114600F074B8ED
:1003800000F0004220F00040C10DC0F3160040F420
:1003900000007F2901DA00207047962903DCC1F1B3
:1003A0009601C84001E096398840002AF4D04042C6
:1003B00070470000002801DBC0F10040002901DB8C
:1003C000C1F100418842704730B50B46014600201C
:1003D0002022012409E021FA02F59D4205D303FA07
:1003E00002F5491B04FA02F52844151EA2F1010288
:1003F000F1DC30BD2DE9F05F0546002092469B46BA
:1004000088460646814640241BE02846414647462A
:100410002246FFF7ABFE53465A46C01A914110D30D
:1004200011461846224600F017FA2D1A67EB01080C
:100430004F4622460120002100F00EFA17EB00097A
:100440004E41201EA4F10104DFDC484631462A4615
:100450004346BDE8F09F0029A8BF7047401C4900F3
:1004600008BF20F00100704710B4B0FA80FC00FA19
:100470000CF050EA010404BF10BC704749B1CCF144
:10048000200421FA04F411FA0CF118BF01212143D0
:100490000843A3EB0C01CB1D4FEA00614FEA10208B
:1004A00042BF002010BC704700EBC350104400292D
:1004B000A4BF10BC7047401C490008BF20F00100D9
:1004C00010BC70472DE9FE4F804681EA0300C00F43
:1004D0000C46009021F0004123F00045B8EB0200EB
:1004E000A94105D24046214690461C460B4602468D
:1004F00023F00040104347D0270DC7F30A00C3F391
:100500000A510290401A019040286BDAC3F313009D
:1005100040F4801B0098924620B10023D2EB030ADE
:1005200063EB0B0B01985946C0F14002504600F0B6
:1005300093F906460D4650465946019A00F09BF93C
:1005400010EB08006141002487EA115284EAE77346
:100550001A4340D0009A62B3019A012A4FEA075227
:1005600015DC001B61EB02014FF0004202EA07526A
:10057000CDE90042001C41F5801132462B4600F0C7
:100580009BF903B0BDE8F08F40462146F9E7001B18
:1005900061EB0201001C41F5801300185B4120183B
:1005A000A2F5001747EB030140EAD570B6196D417B
:1005B00011E06D084FEA360645EAC0754FEA07526A
:1005C000001B61EB0201001C41F5801149084FEA54
:1005D00030000019514132462B4603B0BDE8F04FC0
:1005E00000F05BB90098012240000023D0EB02022A
:1005F00063EBE073009821464FEAE074B8EB00002B
:1006000061EB0401E9E783F000435BE781F000411F
:1006100058E72DE9FE4F81EA030404F0004421F07D
:10062000004100944FF0000B23F0004350EA010416
:100630005ED052EA03045BD0C3F30A54C1F30A55F7
:100640002C44A4F2F3340194A0FB0254C1F313012F
:1006500041F48011C3F3130343F4801301FB0244FC
:1006600000FB034E840A970A44EA815447EA835701
:10067000A4FB076802958D0A05FB07854FEA932CBA
:1006800004FB0C542705029D4FEA065847EA16372B
:10069000B5EB08056EEB070C870E920E47EA811743
:1006A00042EA8312A7FB0201B6EB0B0164EB0004E4
:1006B0002B0D43EA0C335E1844EB1C50DA465146CE
:1006C000E7FB0201C5F313044FEA0B3343EA14536B
:1006D0004FEA0432019C43EA0603A4F10C0402949D
:1006E000009CCDE900B400F0E7F803B0BDE8F08F5E
:1006F00000200146F9E72DE9F04D81EA030404F0FA
:10070000004B21F0004514464FF0000A23F0004151
:1007100050EA050220D054EA01021DD0C5F30A5761
:100720000246C5F31303C1F31300C1F30A5640F4A4
:10073000801543F48013A7EB0608101BD64608F279
:10074000FD3873EB050002D308F1010801E09218AF
:100750005B41B8F1000F03DA00200146BDE8F08DDF
:1007600000204FF48011064684460EE0171B73EB01
:10077000050705D3121B63EB050306434CEA010C86
:1007800049084FEA300092185B4150EA0107EDD169
:1007900052EA030012D082EA040083EA050108430A
:1007A00005D0101BAB4106D20122002306E0002237
:1007B0004FF0004302E06FF0010253101AEB060005
:1007C0004CEB085110EB0A0041EB0B01BDE8F04D7A
:1007D00000F063B8C1F30A52C1F3130140F2FF33D2
:1007E00041F480119A4202DA00200146704740F23B
:1007F00033439A42A2F2334202DC5242FFF7B6BCC4
:1008000000F02AB830B5041E71F1000404DB4FF08B
:100810000044404264EB0101141E73F1000405DB47
:100820001C464FF00043524263EB0403994208BF59
:10083000904230BD064C074D06E0E06840F00103F1
:1008400094E8070098471034AC42F6D3FFF774FCE5
:100850001456000834560008202A04DB203A00FA17
:1008600002F1002070479140C2F1200320FA03F307
:10087000194390407047202A06DBCB17203A41FAF3
:1008800002F043EAE07306E041FA02F3D040C2F11D
:100890002002914008431946704710B5141E73F1A9
:1008A000000408DA401C41F1000192185B411A4330
:1008B00001D120F0010010BD2DE9F04D92469B467C
:1008C00011B1B1FA81F202E0B0FA80F22032904622
:1008D000FFF7C2FF04460F4640EA0A0041EA0B0157
:1008E00053465A46084313D0114653EA010019D023
:1008F000C8F140025046FFF739FC05460E46504607
:1009000059464246FFF7A8FF084305D0012004E0FE
:1009100020463946BDE8F08D0020054346EAE076E2
:100920002C4337430A986305E40AA0EB0800002231
:10093000FD0A44EA47540A3002D500200146E9E79F
:10094000010510196941DDE9084500196941BDE853
:10095000F04DA2E7014800F0DEB9000028000020B9
:1009600070B5044600688168C943C90717D181681A
:1009700021F00101816000F0FDFD05460AE000BFA5
:1009800000F0F8FD401B022804D920688068C043AD
:10099000C00706D020688068C043C007F0D00020A0
:1009A00070BDA06A40F01000A062E06A40F0010053
:1009B000E062012070BD10B50146406A826A12F003
:1009C000500F05D0006A026BBDE810400846104782
:1009D000816A41F40071816201688968C1F3424112
:1009E00007290CD1017B51B9816A21F480718162A0
:1009F000816AC90403D4816A41F00101816200F077
:100A000087F910BD10B5406A816A41F040018162EA
:100A1000C16A41F00401C16200F07CF910BD10B55B
:100A2000406A00F076F910BDF8B50026044600963D
:100A300000688168C943C9072DD0816841F0010170
:100A40008160164816490068B0FBF1F000E0401ED6
:100A500000900028FBD100F08DFD054616E000BF98
:100A600000F088FD401B022810D920688068C04330
:100A7000C0070BD0A06A40F01000A062E06A40F00E
:100A80000100E06284F824600120F8BD20688068DD
:100A9000C043C007E4D10020F8BD000020000020C2
:100AA00040420F00FEE730B590F840500124AC40C2
:100AB000C56B6C60046863604368102B036803D0E7
:100AC00099600068C26030BD9A600068C16030BD46
:100AD0007047000010B50F4C2068C00402D5A01468
:100AE00000F03AFC2068800403D54FF4005000F079
:100AF00033FC2068400403D54FF4804000F02CFC08
:100B00002068000405D5BDE810404FF4004000F017
:100B100023BC10BD1404014010B5202000F01CFCC3
:100B20004FF4807000F018FCBDE810404FF40070E6
:100B300000F012BC72B6FEE7F8B500250446009539
:100B400090F8240001280BD0012084F824002046CE
:100B5000FFF706FF2046FFF767FF060002D050E0D0
:100B60000220F8BDA06A20F4885040F00200A06284
:100B7000022000F025FF25490968B1FBF0F0400094
:100B800000E0401E00900028FBD12068816841F001
:100B90000801816000F0EEFC074608E000F0EAFC86
:100BA000C01B0A2803D920688068000715D4206874
:100BB00080680007F2D42068816841F004018160F8
:100BC00000F0D8FC074612E000F0D4FCC01B0A2855
:100BD0000DD920688068400709D5A06A20F002007E
:100BE00040F01000A06284F824500120F8BD206875
:100BF00080684007E8D4A06A20F0020040F00100BD
:100C0000A06284F824503046F8BD00002000002087
:100C100070470000F8B50024009490F82420254681
:100C2000012A12D0012280F824204A681F23072AB3
:100C30000DD20668776B521E02EB820293409F43EF
:100C40000B6893401F43776319E00220F8BD0668E4
:100C50000D2A0AD2376BD21F02EB820293409F43C8
:100C60000B6893401F43376309E0F76A0D3A02EBC4
:100C7000820293409F430B6893401F43F7620A68C8
:100C8000072306680A2A0AD3F7680A3A02EB4202E7
:100C900093409F438B6893401F43F76008E0376998
:100CA00002EB420293409F438B6893401F4337619E
:100CB0000A68102A01D0112A20D1124B02689A42E8
:100CC00017D193681B0219D4936843F4000393600F
:100CD0000968102912D10C490C4A0968B1FBF2F1DC
:100CE00001EB8101490000E0491E00910029FBD180
:100CF00004E0816A41F020018162012480F82450DF
:100D00002046F8BD002401402000002040420F0092
:100D100070477047704770B50446006806684568BC
:100D2000A90625D5B10723D5A16AC90603D4A16AAE
:100D300041F40071A1628168C1F34241072910D1D9
:100D4000217B71B9416821F020014160A06A20F443
:100D50008070A062A06AC00403D4A06A40F00100C1
:100D6000A0622046FFF7D4FF21686FF012000860F0
:100D700028062ED570072CD5A06AC00603D4A06A19
:100D800040F40050A06220688168C1F30231072955
:100D900009D04168490515D48168C1F3424107294A
:100DA00010D1217B71B9416821F080014160A06AB6
:100DB00020F48050A062A06AC00503D4A06A40F06D
:100DC0000100A0622046FFF723FF21686FF00C00AE
:100DD000086068060CD5F0070AD0A06A40F480309D
:100DE000A062204600F096F821686FF001000860CC
:100DF00070BD00002DE9F04104004FF000057FD0E8
:100E0000A06A002628B9E66284F82460204600F033
:100E100083F82046FFF7A4FDA16AC90600D420B1DB
:100E2000A06A40F01000A0626AE0A16A21F4885133
:100E300041F00201A162334923688B42E16904D188
:100E4000B1F5402F01D14FF40021277B4FF4807C76
:100E500041EA470261680A43A168614508D0012957
:100E600006D0002194F814E0BEF1010F02D00AE090
:100E70006146F7E7C7B1A76A47F02007A762E76AAC
:100E800047F00107E7625F6827F469470F435F6037
:100E9000236899681C4F394011439960A1686145E6
:100EA0000BD0012909D00CE0DFF860E0A7690EEB58
:100EB00047370F4347F40061E5E7218A0D05A5F5A3
:100EC00080152168CB6A23F470032B43CB62216821
:100ED00089680F4B1940914208D1E662A16A21F05E
:100EE000020141F00101A162BDE8F081A06A20F099
:100EF000020040F01000A062E06A40F00100E062F1
:100F00000120F1E7003C0140FDF7E1FF00E0FFFFB9
:100F1000FE0E1FFF7047000070B586B00025064624
:100F2000009501950295039500681E49884236D1C7
:100F30001D49886940F400708861886900F4007078
:100F40000490886940F0040088618869694600F06F
:100F5000040004900720009003200190134800F043
:100F600007FA144C1248C4E900058020C4E9025075
:100F700040002061800060612020C4E90605204611
:100F800000F05CF908B1FFF7D5FD346200220521BD
:100F90001220666200F0E2FC122000F0D1FC06B0E4
:100FA00070BD000000240140001002400008014014
:100FB00008000240580000202DE9F0478946044609
:100FC0003B4900683B4F0E1D9046884201D0B84215
:100FD00007D1306810F4702F03D001252846BDE8F2
:100FE000F08794F8240001280CD0012084F8240014
:100FF0002046FFF719FD05004FF0000004D084F8EB
:101000002400EBE70220EAE7A16A40F6016291437F
:1010100041F48071A1622168B94218D1326812F49A
:10102000702F14D0A16A41F48011A1623168490582
:1010300005D5A16A21F4005141F48051A162A16A51
:10104000C9040AD5E16A21F00601E16206E0A26A5C
:1010500022F48012A2624968E9E7E06284F8240081
:10106000216A15488862216A1448C862216A1448B6
:10107000086321686FF0020008602068816841F40D
:1010800080718160216843464A464C31206A00F0F5
:1010900013F920688168C1F342410729816803D0B0
:1010A00041F48011816099E741F4A001FAE7000062
:1010B0000024014000280140B70900081F0A000869
:1010C000050A000810B590F821100022022905D069
:1010D0000421816380F82020012010BD01680B6885
:1010E00023F00E030B6001680B6823F001030B6013
:1010F00090F84030C46B012101FA03F3636080F87B
:10110000211080F82020104610BD00002DE9F05F6E
:1011100090F821100024022903D0042181630124C6
:1011200085E001680A6822F00E020A6001680A6818
:1011300022F001020A603F4E3E4FB215DFF8F4C0C4
:10114000DFF8F090DFF8ECA0DFF8E8B0DFF8E4E0DB
:101150000168783F13011502ACF1640CA9F1500944
:10116000AAF13C0AABF1280BAEF1140E4FF4801833
:10117000B14227D9B9420ED0614512D049451DD0A0
:10118000514518D0594518D0714501D1424615E056
:10119000294EB14201D1012210E0274E1436B1424E
:1011A00001D110220AE0244E2836B14206D0224A4C
:1011B0003C32914201D11A4600E02A461E49091FDD
:1011C0000A602BE0B94213D0614517D0494522D0BF
:1011D00051451DD059451DD0714501D142461AE0F7
:1011E000B14202D14FF0807215E0134EB14201D1ED
:1011F000012210E0104E1436B14201D110220AE053
:101200000D4E2836B14206D00B4A3C32914201D1F4
:101210001A4600E02A46074980394A60012180F8D1
:101220002110002180F82010416B01B18847204631
:10123000BDE8F09F800002400804024030B560B174
:101240001A4B026814219A4209D2194B1344B3FB7A
:10125000F1F18900016417490AE0012030BD134B08
:101260005B421344B3FBF1F1890001640F49083973
:10127000C163022180F82110136843F6F0718B439B
:10128000F0E901142143D0E902452C4321430469CC
:10129000214344692143846921431943116000219A
:1012A0004163012242770177084630BD08040240BD
:1012B000F8FFFDBF0000024070B5044690F8200022
:1012C000002501280CD0012084F8200094F821602A
:1012D0000020012E06D084F820000225284670BD8B
:1012E000022070BD022684F82160A0632068066891
:1012F00026F0010606602046FFF7D5FBE06A0028CD
:101300002068016802D041F00E0106E021F00401DE
:1013100001602068016841F00A01016020680168ED
:1013200041F001010160D9E770B5044600F022F9EF
:101330000546601C02D004480078044400F01AF905
:10134000401BA042FAD370BD14000020B0F5805FAE
:1013500001D102F087BB7047044910B50A68024208
:1013600002D00860FFF7F2FF10BD00001404014036
:101370002DE9F84FDFF8C8910024A9F1040B2346AA
:101380000F2709F1040AABF1040ED1E00125A540B5
:1013900006EA0502AA4276D1DFF8A8C14E68A6EB9C
:1013A0000C0866452BD00DDC032E34D005DC36B39B
:1013B000012E19D0022E2FD11BE0112E16D0122E85
:1013C0002AD119E0B8F5881F19D006DCB8F5803F9E
:1013D00015D0B8F5801F1FD111E0B8F5001F0ED051
:1013E000B8F5041F18D10AE0CB6815E0CB681B1DC7
:1013F00012E0CB6808330FE0CB680C330CE08B684D
:101400002BB1012B4FF0080303D0456104E0042306
:1014100002E0056100E00023FF2A01D8064601E052
:1014200000F104064FEA840501D9A5F12005D6F89C
:10143000008007FA05FC28EA0C0803FA05F548EADB
:101440000508C6F800804D68ED0070D53E4DAE69C8
:1014500046F00106AE61AD6924F0030605F0010512
:1014600000953A4D06EB050CDCF80850A607360F40
:1014700007FA06F825EA0805DFF8D480404503D1CD
:101480004FF0000825E052E0DFF8C880404502D167
:101490004FF001081DE0DFF8C080404502D14FF059
:1014A000020816E0DFF8B480404502D14FF003088F
:1014B0000FE0DFF8AC80404502D14FF0040808E0AF
:1014C000DFF8A080404502D14FF0050801E04FF061
:1014D000060808FA06F848EA0508CCF808804D68BE
:1014E000D9F80060ED024D4601D5164300E0964361
:1014F0002E604D68DAF80060AD02554601D51643FE
:1015000000E096432E604D68DBF80060AD035D4659
:1015100001D5164300E096432E604D68DEF800606A
:10152000ED03754601D5164300E096432E60641C1A
:101530000A681646E2407FF429AFBDE8F88F000044
:10154000080401400000111000100240000001409A
:1015500000080140000C014000100140001401404F
:1015600000180140001C01400AB1016170470904E4
:10157000FBE700000148806870470000140000206D
:1015800070B5040025D094F83D00002520B984F8FA
:101590003C50204600F04EF9242084F83D0020689D
:1015A000016821F0010101602068016841F40041F7
:1015B00001602068016821F40041016000F068FBCF
:1015C0004D4A6168914201D84C4900E04C4988423B
:1015D00001D2012070BD4B492368B0FBF1F15E6878
:1015E00026F03F060E435E606368934206D94FF4CF
:1015F000967359434FF47A73B1FBF3F12368491C96
:101600001E6A26F03F06314319626168914210D884
:101610004900401EB0FBF1F2521CC2F30B02042A37
:1016200001D2042022E0B0FBF1F0401CC0F30B001B
:101630001CE0A268F2B301EBC10303EB0116431EE9
:10164000B3FBF6F35B1C43F480431B0549D092B314
:1016500001EBC10202EB0111401EB0FBF1F0401C96
:10166000C0F30B0040F4804040F400402168CA6998
:101670004CF6FF739A431043C861D4E90710014345
:101680002068026822F0C00211430160D4E903011E
:1016900001432068826848F2FF339A431143816016
:1016A000D4E9050108432168CA6822F0FF0210430B
:1016B000C86001E00EE016E02068016841F0010119
:1016C00001602564202084F83D00256384F83E50A5
:1016D000002070BD01EB4106431EB3FBF6F35B1C1B
:1016E000B3E70120C2E701EB4101401EB0FBF1F07E
:1016F000401CC0F30B00B7E7A086010080841E00E9
:1017000000093D0040420F002DE9F84F1F4690466A
:101710008A460446DDF82890FFF72CFF054694F82A
:101720003D0020287FD11923012240492046009501
:1017300001F0EEF9002876D194F83C00012872D02F
:10174000012084F83C0020680168C90703D10168C2
:1017500041F0010101602068016821F4006101602D
:10176000212084F83D00102084F83E0000262664E5
:10177000C4F824806785608D20852D48E0622B4663
:101780004A465146204601F049F990B9206841691E
:101790008069009036E02A464946204601F05EFA0C
:1017A00050B1206C042804D12068016841F4007114
:1017B00001600120BDE8F88F606A21680078086147
:1017C000606A401C6062618D491E6185218D491EE1
:1017D00089B2218522685369DB435B070BD451B181
:1017E00000781061606A401C6062608D401E6085F8
:1017F000208D401E20852A464946204601F05CF98E
:101800000028CED1208D0028C5D154F83D0B0168A9
:1018100041F400710160202004F81E09E677667724
:101820000020C7E7FFE70220C4E700000200100025
:101830000000FFFF10B586B00021009101910291D8
:10184000039100680F4988421AD10F4CA06940F0FB
:101850000800A061A069694600F008000490C0205B
:10186000009012200190032003900848FFF780FDAC
:10187000E06940F40010E061E06900F400100490B9
:1018800006B010BD0054004000100240000C0140A2
:10189000024881680278114481607047140000207A
:1018A000074810B5016841F010010160032000F005
:1018B00075F80F2000F006F800F024F8002010BDA5
:1018C0000020024070B50D4D04464FF47A7128781F
:1018D000B1FBF0F00A490968B1FBF0F000F042FCFE
:1018E00048B9102C07D200222146501E00F036F8CD
:1018F00000206C6070BD012070BD0000140000204D
:10190000200000200C4808B5816941F00101816187
:10191000816901F001010091C16941F08051C1610B
:10192000C06900F0805000900448416821F0E061F7
:1019300041F00071416008BD00100240000001400C
:10194000002809DB00F01F020121914040098000BE
:1019500000F1E020C0F8001170470000F0B40E4B19
:101960001B680C46C3F30223C3F10705042D00D9FD
:101970000425191D072901D2002300E0DB1E0126E2
:1019800006FA05F1491E214099409E40761E1640F8
:101990003143F0BC02F022BB0CED00E0064900F040
:1019A000070208684FF6FF03184040EA0220034A86
:1019B00010430860704700000CED00E00000FA05DD
:1019C00010B501460020284C04292FD00BDC01293A
:1019D00030D0022929D100F06BF96168C1F381315F
:1019E000491C49001FE0082920D010291DD1616839
:1019F0002268D20119D51D48C1F38342C903805C16
:101A00000AD56168194AC1F34041921E515C184AD7
:101A1000B2FBF1F1484301E01649484361684902CD
:101A200003D440000321B0FBF1F010BDBDE810402D
:101A300000F04EB9226AC2F30121012903D19207B5
:101A400001D5C80310BD022905D1626A920702D5EB
:101A500049F6404010BD0329FCD121688903F9D51E
:101A60004FF2244010BD000000100240A8550008AD
:101A700000127A0000093D002DE9F8430546007880
:101A8000354CC00754D0E0690026C00008D4E06996
:101A900040F08050E061E069012600F08050009045
:101AA0002E480168C90512D40168804641F480714E
:101AB0000160FFF75FFD074605E000BFFFF75AFD35
:101AC000C01B642823D8D8F80000C005F6D5206ACA
:101AD00010F4407021D0A98801F4407181421CD0DB
:101AE000206A1F49012220F440700A6000220A6027
:101AF0002062C00711D0FFF73DFD074641F288384C
:101B000008E000BFFFF736FDC11B414502D90320A5
:101B1000BDE8F883206A8007F4D5206A696820F45C
:101B20004070084320621EB1E06920F08050E061FF
:101B30002878800705D56068A96820F440400843EC
:101B400060602878C00605D56068696920F4800067
:101B5000084360600020DBE7001002400070004096
:101B6000400442422DE9F0470F46050061D0434E44
:101B7000306800F00700B84209D2306820F0070052
:101B800038433060306800F00700B84251D128680F
:101B90003B4C810712D5400703D5606840F4E060F4
:101BA00060602878000703D5606840F4605060608A
:101BB0006068A96820F0F000084360602878C007DA
:101BC00028D06868012810D02168022810D0890721
:101BD00000292EDA616821F0030101436160FFF7FB
:101BE000C9FC804641F288390DE021688903EFE79E
:101BF0008901EDE7FFF7BEFCA0EB0801494502D9DA
:101C00000320BDE8F0876068696800F00C00B0EB65
:101C1000810FEFD1306800F00700B8420BD930686F
:101C200020F0070038433060306800F00700B84209
:101C300001D00120E5E72878400705D56068E9680C
:101C400020F4E060084360602878000706D56068EB
:101C5000296920F4605040EAC100606000F038F863
:101C60006168084AC1F30311515CC8400649086025
:101C700006480068FFF726FE0020C2E70020024069
:101C800000100240B8550008200000201800002075
:101C90000448054900684968044AC1F30221515CBF
:101CA000C84070472000002000100240C8550008BE
:101CB0000448054900684968044AC1F3C221515CDF
:101CC000C84070472000002000100240C85500089E
:101CD0000E4A51680E4801F00C03042B11D0082B5A
:101CE0000FD10C48C1F38343C903C05C0AD55168C6
:101CF000084AC1F34041921E515C054A5043B0FB73
:101D0000F1F070470449484370470000001002405A
:101D100000127A009655000800093D002DE9F84FA1
:101D2000040070D02078C04DC00749D06868C0F367
:101D30008100012807D06868C0F38100022809D11A
:101D40006868C00306D52868800339D56068002814
:101D5000E7D035E06068B0F5803F0BD010B1B0F54A
:101D6000A02F11D0286820F480302860286820F443
:101D7000802002E0286840F480302860606890B1DC
:101D8000FFF7F8FB06460AE0286840F48020286048
:101D9000F0E700BFFFF7EEFB801B642873D82868CC
:101DA0008003F7D50CE0FFF7E5FB064605E000BF32
:101DB000FFF7E0FB801B6428F0D828688003F7D485
:101DC00020789A4E80074FF001094FF0000839D56E
:101DD000686810F00C0F07D06868C0F38100022813
:101DE00009D16868C00306D42868800714D5206923
:101DF000012808D110E02069B0B1C6F80090FFF7C3
:101E0000B9FB074605E00AE1FFF7B4FBC01B022857
:101E1000C4D828688007F7D52868616920F0F800E1
:101E200040EAC10028600DE0C6F80080FFF7A2FB81
:101E3000074604E0FFF79EFBC01B022823D8286852
:101E40008007F7D4207800072CD57948A169D9B14B
:101E5000C0F80090FFF78EFB074604E0FFF78AFB0F
:101E6000C01B02280FD8686A8007F7D571484FF465
:101E7000FA510068B0FBF1F0009000BF0098411EDD
:101E80000091FAD20EE080E0C0F80080FFF772FB0C
:101E9000074604E0FFF76EFBC01B022875D8686A8E
:101EA0008007F7D42078400760D5E8690027C00094
:101EB00008D4E86940F08050E861E869012700F043
:101EC000805000905C480168C90513D401688346BE
:101ED00041F480710160FFF74DFB824606E000BFD0
:101EE000FFF748FBA0EB0A0064284ED8DBF800009F
:101EF000C005F5D5E06801280AD008B1052813D03F
:101F0000286A20F001002862286A20F0040002E01C
:101F1000286A40F001002862E06841F2883B98B1ED
:101F2000FFF728FB82460BE0286A40F00400286295
:101F3000EEE700BFFFF71EFBA0EB0A0159455AD898
:101F4000286A8007F6D50CE0FFF714FB824605E00F
:101F5000FFF710FBA0EB0A0159454CD8286A80070F
:101F6000F6D41FB1E86920F08050E861E06988B3D9
:101F70006968C1F38101022944D00228C6F8608053
:101F800004D0FFF7F7FA044638E034E0FFF7F2FA3E
:101F9000074604E0FFF7EEFAC01B02282BD828689A
:101FA0008001F7D4206AB0F5803F05D16868A16848
:101FB00020F4003008436860D4E9080108436968E8
:101FC00021F4741108436860C6F86090FFF7D2FAF4
:101FD000044606E025E000BFFFF7CCFA001B02280C
:101FE00009D828688001F7D51BE000BFFFF7C2FAC7
:101FF000001B022802D90320BDE8F88F2868800161
:10200000F4D40EE00128F7D06868226A00F4803129
:10201000914204D1616A00F47010884201D001201D
:10202000EAE70020E8E7000000100240000042421A
:1020300080044242200000200070004070B504007F
:1020400009D0606A002540B125616561A56294F8F8
:10205000510040B10CE0012070BD6068B0F5827F96
:10206000F4D0E561F2E784F85050204600F040F8E3
:10207000022084F851002068016821F040010160CD
:10208000A088218900F4827001F404410843A189E9
:1020900001F400610843217C01F002010843217D25
:1020A00001F001010843218B01F400710843217FF5
:1020B00001F03801084394F8201001F08001084332
:1020C000218D01F40051084321680860A0690421B2
:1020D00001EA1040216848602068C16921F400616C
:1020E000C1616565012084F85100002070BD0000C9
:1020F00030B585B0002400940194029403940068E4
:102100001549884225D11548C16941F48041C16112
:10211000C16901F480410491816941F00801816144
:1021200080690F4D00F0080004904FF420400090AB
:10213000022001900320039069462846FFF718F912
:102140004FF48040CDE90004694628460294FFF729
:102150000FF905B030BD000000380040001002400B
:10216000000C014010B5401EB0F1807F01D301206A
:1021700010BD4FF0E02460610F21601701F02EFFC9
:102180000020A06107202061002010BD70B590F8EC
:102190003C20012A2CD0012480F83C40022280F807
:1021A0003D2003685A689D6822F070060A68324331
:1021B0005A60104B02689A420ED00F4B9A420BD0D5
:1021C000B2F1804F08D00D4B9A4205D00C4B9A4289
:1021D00002D00C4B9A4204D1496825F08003194380
:1021E000916080F83D40002180F83C10084670BDA9
:1021F000022070BD002C014000340140000400406A
:1022000000080040000C004010B5040003D094F812
:102210003D0010B107E0012010BD002084F83C0013
:10222000204600F01FF8022084F83D00211D2068A0
:1022300001F08AFA012084F8460084F83E0084F810
:102240003F0084F8400084F8410084F8420084F89C
:10225000430084F8440084F8450084F83D000020E1
:1022600010BD000008B500680649884208D106483C
:10227000C16941F00201C161C06900F00200009033
:1022800008BD0000000400400010024070B5044684
:1022900090F83C000025012817D0012684F83C6006
:1022A000022084F83D002068826822F0770222F440
:1022B0007F4282600868502838D00DDC20284FD03B
:1022C00005DC90B3102811D14AE0022070BD3028FF
:1022D00046D040280AD13BE060282FD070280DD08E
:1022E000B0F5805F03D0B0F5005F12D0012584F80F
:1022F0003D60002084F83C00284670BDCB68D1E9E1
:102300000121206801F07BFA2068816841F07701A3
:1023100009E0CB68D1E90121206801F070FA20685A
:10232000816841F480418160E1E719E0CA68496849
:10233000206801F039FB5021206806E0CA6849682E
:10234000206801F042FB6021206801F062FACEE7CC
:10235000CA684968206801F027FB40212068F4E73B
:10236000226801461046F0E700B585B000210091D3
:1023700001910291039100680B49884211D10B48E9
:10238000816941F0040181618069694600F00400BF
:102390000490402000900220019003900448FEF732
:1023A000E7FF05B000BD000000040040001002403F
:1023B0000008014070B5044690F83C0000260D4628
:1023C00001280FD0012084F83C006AB1042A1DD0F6
:1023D000082A2FD00C2A3FD00126002084F83C0088
:1023E000304670BD022070BD206801F01BFA2068E5
:1023F000816941F0080181612068816921F004014F
:102400008161206881692A69114311E0206801F027
:1024100039FA2068816941F400618161206881692D
:1024200021F480618161206881692A6941EA022181
:102430008161D2E7206801F05BFA2068C16941F050
:102440000801C1612068C16921F00401C1612068EF
:10245000C1692A69114311E0206801F07DFA206802
:10246000C16941F40061C1612068C16921F48061E2
:10247000C1612068C1692A6941EA0221C161ACE7F2
:1024800010B5040003D094F83D0010B107E001201E
:1024900010BD002084F83C00204600F01EF8022009
:1024A00084F83D00211D206801F04EF9012084F8D8
:1024B000460084F83E0084F83F0084F8400084F829
:1024C000410084F8420084F8430084F8440084F812
:1024D000450084F83D00002010BD704710B504464B
:1024E000022249B104290ED0082913D094F84100E2
:1024F000012816D0012010BD94F83E000128F9D122
:1025000084F83E200FE094F83F000128F2D184F8CF
:102510003F2008E094F840000128EBD184F84020E7
:1025200001E084F841200122206801F05BF91349A1
:102530002068134A884201D0904203D1436C43F48F
:1025400000434364206888420DD090420BD0B0F124
:10255000804F08D00B49884205D00B49884202D0F1
:102560000A49884204D1816801F00701062903D095
:10257000016841F001010160002010BD002C014004
:10258000003401400004004000080040000C0040FE
:1025900070477047F8B5016804460868CA684B6917
:1025A00010F00F0F4FF0000559D003F0010602F4B0
:1025B0009077374365D0C10705D0D10503D5616C4D
:1025C00041F001016164410705D5D90703D0616C71
:1025D00041F002016164810705D5D90703D0616C20
:1025E00041F004016164010707D502F02001314385
:1025F00003D0616C41F008016164616C00293AD03C
:10260000800604D5900602D5204601F0BDFB206867
:102610004069616CC0F38010090700D460B32046A4
:1026200001F07AFB20684069400621D5206814300B
:1026300050E8001F21F0400140E80012002AF5D1C7
:10264000E06BA8B16D494163E06BFEF75FFD0028C8
:1026500011D0E06B416B01B0BDE8F0400847830644
:102660000FD593060DD52046BDE8F84001F08CBB90
:102670002046FFF78EFFF8BD2046FFF78AFF65640E
:10268000F8BD266B2023012E7CD1C6067AD5D6064E
:1026900078D508684868009048694FF002064006FF
:1026A00040D5E16B086840680004000CE8D0A28DBA
:1026B0008242E5D9E085886920282DD020680C3039
:1026C00050E8001F21F4807140E80012002AF5D183
:1026D0002068143050E8001F21F0010140E800128A
:1026E000002AF5D12068143050E8001F21F0400185
:1026F00040E80012002AF5D184F8423025632068B2
:102700000C3050E8001F21F0100140E80012002AB0
:10271000F5D1E06BFEF7D6FC6663A08DE18D401A23
:1027200081B22AE0A08DE18D401A81B2E08D0028AF
:10273000A6D00029A4D022680C3252E8000F20F461
:10274000907042E80007002FF5D12068143050E85F
:10275000002F22F0010240E80027002FF5D184F875
:102760004230256320680C3050E8002F22F0100220
:1027700040E80023002BF5D166632046FFF708FFF1
:10278000F8BDFFE705062BD5150629D594F84100BD
:102790002128F5D1A068B0F5805F01D12069B0B1E2
:1027A000206A411C2162216800784860E08C401E4C
:1027B0000004000CE084E3D12068C16821F08001AE
:1027C000C1602068C16841F04001C160D8E7206A5B
:1027D0000088C0F308004860206A801C2062E5E79A
:1027E0004006CDD55006CBD5CA68204622F040021F
:1027F000CA6084F8413000F0F8F8C1E7093D0008EC
:1028000070B5040004D094F84100002510B106E032
:10281000012070BD84F84050204600F023F82420A9
:1028200084F841002068C16821F40051C16020464D
:1028300001F00CFB2068016921F4904101612068DE
:10284000416921F02A0141612068C16841F40051C9
:10285000C1606564202084F8410084F8420065630B
:10286000002070BD70B586B00024009401940294DD
:10287000039403682F482E4E022103220515B3420C
:1028800021D1836943F480438361836903F48043E6
:102890000493836943F0040383618069264E00F04A
:1028A000040004900802CDE9000103926946304615
:1028B000FEF75EFDCDE90054694630460294FEF70E
:1028C00057FD06B070BD1D4EB342FAD1C36943F443
:1028D0008023C361C36903F480230493836943F0B5
:1028E000100383618069CDE9005100F01000CDE94B
:1028F0000320134D69462846FEF73AFDE814CDE95A
:102900000004694628460294FEF732FD0D484168EE
:1029100021F0300141F0E06141F0100141600022FE
:1029200011462720FFF71AF82720FFF709F8C8E714
:1029300000380140001002400008014000480040FB
:10294000001001400000014070472DE9F8430446A3
:1029500090F84100984616460D46202802D00220E5
:10296000BDE8F88385B17EB100206064212084F841
:102970004100FEF7FFFDA6848146E684A06820277B
:10298000B0F5805F02D003E00120E9E7206910B1D3
:102990002E4600250EE000260CE08021204601F0A6
:1029A000B1FAA8B9C6B116F8010B21684860E08CED
:1029B000401EE084E08C4B464FF00002CDF80080D2
:1029C0000028EAD14FF04001204601F09BFA40B1C7
:1029D00084F841700320C3E735F8020BC0F3080008
:1029E000E3E784F841700020BAE77047FEE701682A
:1029F0004A69D24352050FD46FF480624A610021C4
:102A000040F8301F202242738173026942F00402B1
:102A1000026101730120704700207047F8B5044639
:102A2000C06A1E460D461746082807D0012805D063
:102A300010F5803F02D0206B122804D12068016875
:102A400041F480710160134600224FF001112046CD
:102A5000009600F05DF840B120680068C00502D51E
:102A60004FF4007020640320F8BD2069B0F5804F5A
:102A70000ED00620216800EAD51040F0F000086171
:102A800033463A460B49204600F08AF878B902E00E
:102A900005F0FE0000E0E8B2216808610549334610
:102AA0003A46891F204600F07BF80028DCD0012040
:102AB000F8BD00000800010070B516460D4604463A
:102AC0001EE02046FFF793FF08B1012070BD681C8F
:102AD00016D0FEF74FFD801BA84200D885B92068AC
:102AE0004069C04340070BD5002044F8300F202137
:102AF0006173A073216941F0200121612073E4E733
:102B000020684069C0434007DBD4002070BD00004E
:102B10002DE9F047984617460D460446C1F307468F
:102B2000DDF820902AE000BFB8F1FF3F26D0FEF785
:102B300021FDA0EB0901414502D8B8F1000F1DD1DC
:102B40002068012E16D0806925EA00000004000CE0
:102B500012D00020B84211D1002044F8300F2021BB
:102B60006173A073216941F020012161207301206C
:102B7000BDE8F0874069E7E70120EBE72068012E18
:102B80000AD0806925EA00000004000C06D000206D
:102B9000B842C9D00020EBE74069F3E70120F7E72E
:102BA0002DE9F047984616460D4604464FF00009B9
:102BB0004FF0200AC1F3074723E020684069C04373
:102BC000400515D42068016841F400710160216856
:102BD0006FF480604861C4F8309084F83DA084F8B8
:102BE0003E90216C41F00401216484F83C9021E086
:102BF000701C06D0FEF7BEFCA0EB0800B04203D864
:102C000016B1012F1FD021E02068012F15D0806957
:102C100025EA00000004000C18D000BF44F8309FE3
:102C200084F80DA084F80E90216941F02001216103
:102C300084F80C900120BDE8F087406925EA000087
:102C40000004000CEAD12068406901E02068806936
:102C500025EA00000004000CAFD1ECE770B5164681
:102C60000D4604461EE02046FFF7C1FE08B10120D4
:102C700070BD681C16D0FEF77DFC801BA84200D8F2
:102C800085B920684069C04300060BD5002044F890
:102C9000300F20216173A073216941F0200121616F
:102CA0002073E4E720684069C0430006DBD40020BD
:102CB00070BD0000FEB500241B4800940194194922
:102CC000029401608915816001250573047503264E
:102CD00006614FF460214460C161FEF78BF808B1D2
:102CE000FDF728FF05200094CDE9015069460E4804
:102CF000FDF790FF08B1FDF71DFF0224CDE9005458
:102D000069460948FDF786FF08B1FDF713FFCDE9D5
:102D1000004669460448FDF77DFF002801D0FDF715
:102D200009FFFEBD0024014028000020054808B529
:102D3000416941F001014161406900F001000090EA
:102D400008BD0000001002402DE9F04F85B00025BD
:102D500066480095019502950395816941F010013F
:102D60008161816901F010010491816941F02001C4
:102D70008161816901F020010491816941F00401C0
:102D80008161816901F004010491816941F00801C8
:102D900081618069DFF858B100F0080004900122D9
:102DA000CF215846FEF7E0FB41F2B8080122414628
:102DB0005048FEF7D9FB41F21809012249464E4816
:102DC000FEF7D2FB4FF4006A002251464948FEF755
:102DD000CBFB012204214948FEF7C6FB484F4FF4C4
:102DE000C040CDE900070124694602945846FEF729
:102DF000BFFACF20CDE900040326CDE9024669469B
:102E00005846FEF7B5FACDE90084CDE90246694699
:102E10003848FEF7ADFA4FF44C704FF002088DE8D9
:102E2000210169465846FEF7A3FA40F603408DE8B3
:102E3000210169463048FEF79BFACDE90094CDE9BF
:102E4000024669462C48FEF793FA4FF48079CDF894
:102E50000090CDE9015869462648FEF789FACDF879
:102E600000A00396CDE9014869462248FEF780FAA2
:102E7000E003CDE90007694602941E48FEF778FAA0
:102E8000200300901F48CDE9010469465846FEF72B
:102E90006FFA0420CDE90004CDE9024669461748DF
:102EA000FEF766FA4FF40870CDE900076946029410
:102EB0001148FEF75DFACDF80090CDE9017569463D
:102EC0000D48FEF755FA002204211720FEF746FDB3
:102ED0001720FEF735FD002204212820FEF73EFDD5
:102EE0002820FEF72DFD05B0BDE8F08F0010024050
:102EF0000010014000080140000C01400014014096
:102F000000003110000021100D4810B50B49016080
:102F10000C49416000214FF480428160C0E90312F6
:102F200041618161C1610162FEF72AFB002803D083
:102F3000BDE81040FDF7FEBD10BD0000005400408C
:102F40009C000020A08601000F4810B50D490160CB
:102F50004FF48271416000218160C1604FF40072C2
:102F60000161C0E90512C1610162416281620A2109
:102F7000C162FFF763F8002803D0BDE81040FDF7F9
:102F8000D9BD10BD00380040F000002010B58EB053
:102F900000240794089409940A940B941C21684611
:102FA0000C94FDF70CF91E481C4901602321C0E96F
:102FB00001146321C0E903148461FFF725F908B106
:102FC000FDF7B8FD4FF48050079007A91448FFF7AC
:102FD0005DF908B1FDF7AEFD1148FFF751FA08B1F0
:102FE000FDF7A8FD0B940BA90D480C94FFF7CEF844
:102FF00008B1FDF79FFD602000903220CDE901046B
:103000000022694606480494FFF7D4F908B1FDF799
:1030100091FD0348FFF7A8F90EB010BD0004004071
:10302000480100200C4810B50A4901604FF4E13115
:103030004160002181600C22C160C0E904128161FD
:10304000C161FFF7DDFB002803D0BDE81040FDF7AC
:1030500071BD10BD00380140900100200C4810B532
:103060000A4901604FF4E1314160002181600C2286
:10307000C160C0E904128161C161FFF7C1FB002892
:1030800003D0BDE81040FDF755BD10BD004800401D
:10309000D8010020FEE7FEE74FF480610148FDF70C
:1030A0008EB80000200200202DE9FC4F06469A460B
:1030B00090460F46941B00D56442BAEB070000D53A
:1030C000404281464FF0FF30464501D2012100E0E9
:1030D00001460191574500D20120A4EB0905C9F131
:1030E000000B009001223946304600F019F84645A1
:1030F00001D1574511D0680000B2584505DDA5EB58
:1031000009010DB201993144CEB2A042EADA281980
:1031100005B200983844C7B2E4E7BDE8FC8F000070
:1031200010B580280FD240290DD2CB0800EBC31375
:103130000548012401F007018C40C15C0AB121431C
:1031400000E0A143C15410BD200200202DE9F0474A
:10315000804608981E4617468A46B8B1002511E0F9
:1031600000240AEB050909E008EB040009F0FF015F
:10317000C0B20122FFF7D4FF641CE4B2BC42F3D317
:103180006D1CEDB2B542EBD3BDE8F08708EB02044D
:10319000641E4046E2B20B46FFF786FF0AEB0605C7
:1031A0006D1EEBB2E2B2E9B24046FFF77DFF424648
:1031B000EBB251461046FFF777FFEBB2E2B2E0B256
:1031C0005146BDE8F047FFF76FBF000010B52EA0D5
:1031D00000F0DAFE6420FEF7A7F8AE2001F072FDE1
:1031E000D52001F06FFD802001F06CFDA82001F0DA
:1031F00069FD3F2001F066FDD32001F063FD002052
:1032000001F060FD402001F05DFD8D2001F05AFDD0
:10321000142001F057FD202001F054FD002001F0A2
:1032200051FDA12001F04EFDC82001F04BFDDA2038
:1032300001F048FD122001F045FD812001F042FD22
:10324000CF2001F03FFDD92001F03CFDF12001F03D
:1032500039FDDB2001F036FD402001F033FDA420D4
:1032600001F030FDA62001F02DFDAF2001F02AFD78
:103270004FF480610D48FCF7A2FF00F02BF80CA082
:1032800000F082FE012010BD5B4F4C45445D20499B
:103290006E697469616C697A696E672064697370BC
:1032A0006C61792E2E2E0D0A0000000020020020F5
:1032B0005B4F4C45445D20496E697469616C697A65
:1032C0006174696F6E20636F6D706C6574650D0A53
:1032D000000000002DE9F0478AB0212001F0F2FC47
:1032E000002001F0EFFC7F2001F0ECFC222001F037
:1032F000E9FC002001F0E6FC072001F0E3FC144F9C
:103300004FF4806600240DF104084FF040094FF09F
:10331000640A301B202800DD202085B28DF804903F
:1033200039192A4608F10100FCF730FF681C83B206
:1033300001AA78210748CDF800A0FEF7E5F900289A
:1033400003D1601984B2B442E3D30AB0BDE8F08778
:10335000200200209C00002070B5203A5F2A19D27C
:10336000002B17D1D3B2082914D2802812D20A4CCC
:1033700003EB430304EB4303084C002200EBC111B1
:103380008518802D02D28E189D5CA555521CD2B294
:10339000062AF5D370BD0000284E00082002002048
:1033A00008B5FFF779FE00230DA20221102000F0DE
:1033B00067F800230EA204211C2000F061F800230E
:1033C0000EA20621282000F05BF800204023802276
:1033D00001460090FFF7BAFEBDE80840FFF77ABF4C
:1033E00054687265652D4368616E6E656C000000FF
:1033F000436F6E74726F6C6C6572000076342E30A1
:10340000000000003EB50446642800D96424FFF79C
:1034100043FE002315A201211E2000F031F80020F8
:1034200000900A2364221C210E20FFF78FFE6220E9
:1034300060436421B0FBF1F010F0FF0206D00120E0
:10344000009008231D210F20FFF780FE23460AA2CB
:10345000082101A800F0A8FD002301AA05213820B9
:1034600000F00EF8FFF736FF3EBD00004C6F6164C0
:10347000696E672E2E2E00002564252500000000B1
:10348000F0B51E4615460F46044609E0802C0AD2C8
:10349000334639462046FFF75FFFA41DE4B26D1C9A
:1034A0002A78002AF2D1F0BD38B53CA000F06CFDBE
:1034B00043A000F069FDFFF7EFFDFFF70BFF4FF4AE
:1034C000FA70FDF731FF46A000F05EFDFFF7E4FD66
:1034D00000213F237F220846FFF7E6FD00237F22DD
:1034E0003F211846FFF7E0FD00200A2100902C2321
:1034F0006C220846FFF72AFEFFF7ECFE4FF47A70C5
:10350000FDF712FF3DA000F03FFDFFF7C5FD0023D2
:1035100041A219461846FFF7B3FF002342A2022139
:103520001846FFF7ADFF002342A203211846FFF71C
:10353000A7FF002341A205211846FFF7A1FF0023A2
:1035400041A206211846FFF79BFFFFF7C3FE4FF489
:10355000FA642046FDF7E8FE3DA000F015FDFFF7F8
:103560001FFF2046FDF7E0FE40A000F00DFD002407
:103570004FF496752046FFF745FF214643A000F023
:1035800003FD2846FDF7D0FE0A34E4B2642CF1D9DD
:10359000BDE8384043A000F0F7BC00005B4F4C454D
:1035A000445D2052756E6E696E6720646973706C3D
:1035B000617920746573742E2E2E0D0A00000000B0
:1035C0005B4F4C45445D205465737420313A204371
:1035D0006C6561722073637265656E0D0A00000090
:1035E0005B4F4C45445D205465737420323A20444F
:1035F000726177206C696E65730D0A005B4F4C45F4
:10360000445D205465737420333A2053686F7720EB
:10361000746578740D0A00004F4C4544205465735E
:1036200074204F4B000000005265736F6C75746915
:103630006F6E3A003132387836340000436F6E7462
:10364000726F6C6C65723A005353443133303900F9
:103650005B4F4C45445D205465737420343A2053CD
:10366000686F77206C6F676F0D0A00005B4F4C45E9
:10367000445D205465737420353A2050726F677230
:10368000657373206261720D0A0000005B4F4C4548
:10369000445D2050726F67726573733A202564250C
:1036A000250D0A005B4F4C45445D20446973706CE6
:1036B0006179207465737420636F6D706C657465D7
:1036C000210D0A0070477047FEF7E2B830B595B09B
:1036D00028216846FCF773FD14210AA8FCF76FFD4A
:1036E00018210FA8FCF76BFD01210804CDE900109B
:1036F0000025029502240491CDE907404FF4E01023
:1037000009906846FEF70AFB08B172B6FEE70AA9FF
:103710000F2081E831004FF48060CDE90D050221D2
:103720000AA8FEF71FFA08B172B6FEE74FF4004090
:1037300011900F940FA8FEF79FF9002801D072B6E0
:10374000FEE715B030BD7047F0B50268204C214D42
:10375000214E224F224B4FF0804CA04209D098427C
:1037600007D0604505D0A84203D0B04201D0B8428E
:1037700004D122F0700E4A6842EA0E02A04209D03B
:10378000984207D0604505D0A84203D0B04201D08E
:10379000B84203D122F44075CA682A434D6922F029
:1037A00080022A4302608A68C2620A688262A0427A
:1037B00001D0984201D10969016301214161016988
:1037C000C90703D0016921F001010161F0BD0000CA
:1037D000002C01400004004000080040000C0040A4
:1037E0000034014010B501F01F030121046A994023
:1037F0008C430462016A9A401143016210BD10B506
:10380000846842EA032224F47F440A43224382600C
:1038100010BD826822F070020A4342F00701816005
:1038200070470000F0B5036A026A22F001020262EA
:1038300042688469124E24F073050C682C4323F00F
:1038400002058B682B430D4DA84201D0B04205D133
:1038500023F00807CB683B4323F00403A84201D0C0
:10386000B04205D14D6922F4407215438A692A435A
:1038700042608461496841630362F0BD002C0140ED
:1038800000340140F0B5026A036A23F010030362BA
:10389000436884690D6824F4E64444EA05248D688D
:1038A00022F0200242EA05120F4D104EA84201D02C
:1038B000B04206D1CF6822F0800242EA071222F01D
:1038C0004002A84201D0B04207D14D6923F44063C1
:1038D00043EA85038D6943EA85034360846149684F
:1038E00081630262F0BD0000002C01400034014001
:1038F000F0B5026A036A23F4807303624368C46903
:1039000022F4007224F073050C68124E2C438D686B
:1039100042EA05220E4DA84201D0B04206D1CF683E
:1039200022F4006242EA072222F48062A84201D017
:10393000B04207D14D6923F4405343EA05138D6922
:1039400043EA05134360C4614968C1630262F0BD84
:10395000002C01400034014030B5046A026A22F4B0
:10396000805202624268C3690D6823F4E64343EA69
:1039700005238D6824F4005444EA0534084DA84218
:1039800002D0084DA84204D14D6922F4804242EA97
:1039900085124260C36149680164046230BD000061
:1039A000002C01400034014010B5036A046A24F081
:1039B00001040462846924F0F00444EA021423F050
:1039C0000A020A438461026210BD10B5036A046AE8
:1039D00024F010040462846923F0A00324F47044EA
:1039E00044EA023243EA01118261016210BD000023
:1039F00070B50B4C00252078411C2170052806D39A
:103A000062680223616807A000F0BEFA2570606852
:103A10001349C0EB00104004000C8882656070BD43
:103A2000080000205B46414E5D2050756C73657345
:103A30002F7365633A20256C75207C2052504D20F1
:103A400063616C63756C6174696F6E3A2028256CD4
:103A500075202A20363029202F2025640D0A0000E9
:103A60002006002002484168491C41607047000060
:103A7000080000200148808A7047000020060020CE
:103A800010B5064B08B19C89048009B1D88908801B
:103A9000002A01D0188A108010BD000020060020E6
:103AA00070B51A211C48FCF78AFB1C48FDF744F846
:103AB00003221B491948FDF77FFA08B119A027E036
:103AC00000212048FEF70AFD08B11FA020E0124C9B
:103AD0003220A07400F0B8F801206076224D00205A
:103AE000A0826860FDF746FDA86020A000F04CFAB7
:103AF000032127A000F048FAA17C31A000F044FA8D
:103B0000A62139A000F040FA414800F03DFA41A05A
:103B1000BDE8704000F038BA2006002028000020E0
:103B2000000000204552524F523A204144432B445A
:103B30004D41207374617274206661696C65640D17
:103B40000A000000480100204552524F523A2054CA
:103B5000494D332050574D20737461727420666153
:103B6000696C65640D0A0000080000205B54656DF7
:103B700070657261747572655D204D6F64756C65FA
:103B800020696E697469616C697A65640D0A000068
:103B90005B54656D70657261747572655D2041443A
:103BA000432B444D41207374617274656420666FC9
:103BB00072202564206368616E6E656C730D0A0067
:103BC0005B54656D70657261747572655D204661E8
:103BD0006E2050574D207374617274656420617457
:103BE00020256425250D0A005B54656D70657261A2
:103BF000747572655D204C6F6F6B757020746162B7
:103C00006C653A20256420706F696E74730D0A002C
:103C1000D05500085B54656D70657261747572658E
:103C20005D2046616E2052504D206D656173757246
:103C3000656D656E7420656E61626C6564202850E8
:103C4000433132290D0A0000642800D96420064956
:103C5000887406490A68D16A491C48436421B0FB4C
:103C6000F1F050637047000020060020480100205A
:103C70002DE9F0471E4D687E002837D0FDF77AFC0D
:103C80001C4E0446B068201AB0F57A7F02D3FFF7C5
:103C9000AFFEB460184E194FDFF86480DFF864900F
:103CA000002400BF36F8140025F81400FCF763FB6D
:103CB0003946FCF7E7FA4146FCF716FB00F0FEFD3B
:103CC00000F0C0FF4946FCF7DDFAFCF759FB05EBB5
:103CD0004401888135F81400641CC880032CE1DBA2
:103CE00001F03AF8BDE8F04701F000B8BDE8F08710
:103CF000200600200800002000000020333353403D
:103D000000F07F450000204110B5406A0021C185C8
:103D1000C184FEF73EFC10BD01680C3151E8002F54
:103D200022F4907241E80023002BF5D10168143190
:103D300051E8002F22F0010241E80023002BF5D1C9
:103D4000016B012909D101680C3151E8002F22F0E3
:103D5000100241E80023002BF5D1202180F8421009
:103D6000002101637047000010B5FDF703FC014618
:103D7000BDE8104001A000F007B900005B256C759C
:103D8000206D735D2000000008B590F842102229D4
:103D900001D0022008BD82684FF480539A4201D1BD
:103DA000016921B1816A9A421BD04AB10AE00268D6
:103DB000816A5268C2F308020A80816A891C08E09D
:103DC000026972B10268526802F07F020A70816A69
:103DD000491C8162C18D491E0904090CC18503D0AB
:103DE0001BE002685268F1E70168CA6822F020020D
:103DF000CA600168CA6822F48072CA6001684A69B0
:103E000022F001024A61202180F842100021416322
:103E1000026B012A03D0FEF797FD002008BD016365
:103E200001680C3151E8002F22F0100241E8002314
:103E3000002BF5D101680A68D20602D50A684968E4
:103E40000091818DFEF7A4FBE7E7000070B5044602
:103E500000680169E26821F4405111430161216960
:103E6000A0680843616908432168CA6841F20C638D
:103E70009A430243CA6020684169A26921F44071F3
:103E8000114341611E492068884202D1FDF710FFAD
:103E900001E0FDF7FDFE00EBC00101EB00126068E0
:103EA00064218000B2FBF0F3B3FBF1F36FF018066E
:103EB0007343B2FBF0F5B2FBF0F605EB830532235A
:103EC00003EB0515B5FBF1F5B6FBF1F605F0F005D2
:103ED00005EB0615B2FBF0F6B2FBF0F0B0FBF1F02B
:103EE0006FF01802504306EB800003EB0010B0FBAC
:103EF000F1F0216800F00F002844886070BD0000D8
:103F0000003801402DE9F843984617460D4604460F
:103F1000089E24E0701C22D0FDF72CFBA0EB0800CB
:103F2000B0421AD8CEB12068C168490717D5802D94
:103F300015D0402D13D00168C94309070FD401687B
:103F40000025406800902046FFF7E6FE08206064E8
:103F500084F840500120BDE8F8830320FBE7206887
:103F6000006835EA000004D00020B842D2D000201A
:103F7000F1E70120F9E700000148FEF70BBB000064
:103F8000D8010020FEE700000FB4054B10B503A9CF
:103F9000044A029800F004F910BC5DF814FB00001C
:103FA000FD480008240000200FB47CB50C0009ADCA
:103FB00001D0611E00E00021CDE90001064B6A46F8
:103FC0002946089800F0ECF8002C02D0009A002155
:103FD00011707CBC5DF814FBA74800080907090EA6
:103FE000002804DB00F1E02080F80014704700F0A6
:103FF0000F0000F1E02080F8141D704702E008C8AF
:10400000121F08C1002AFAD170477047002001E052
:1040100001C1121F002AFBD1704700002DE9FF5F8C
:1040200082B00021DDE90430020DDDF840B0034329
:1040300018D044F61050A2F2FF32424315141198E2
:1040400001281FD0A5EB0B00401C5FEA000A4FF0CF
:1040500000064E4FDFF83891B046504615D5CAF1EC
:10406000000413E0119801244AA3012801D16FEA4A
:104070000B010298119AC0E90031C0E9024206B072
:10408000BDE8F09FCBF10000DFE704460021404A85
:10409000491842EB0450CDE9001012E0E00707D0C8
:1040A00032463B4640464946FCF7B3FA80468946CD
:1040B00032463B4610461946FCF7ABFA06460F4619
:1040C0006410002CEAD1DDE90401DDE90023BAF136
:1040D000000F06DAFCF79DFA42464B46FCF799FAC8
:1040E00005E0FCF708FB42464B46FCF704FB0446A0
:1040F0000E460022284BFCF785FB03D84FF0FF301B
:10410000014607E00022254B20463146FCF7DAF94C
:10411000FCF760FB102409E0002C0ADB0A220023D4
:10412000FCF768F9039B30321A55641E50EA01020D
:10413000F2D1641C039AC4F111031444119A012AA8
:1041400003D0012208430DD10AE0084304D0002027
:104150004FF0110B119072E7A3EB0B056D1E0DE0F4
:104160005B4504DD4FF0000205F1010504E003DAD0
:104170004FF00002A5F10105002AECD00298119938
:10418000C0E90231C0E9004579E7000000001440B1
:104190000000F03F300000000000F0430000E03F6E
:1041A0002DE9FF4F95B09A46884606460025EEE178
:1041B000252877D100242746F94A0121039400E0FD
:1041C000044316F8013F203B01FA03F01042F7D1F7
:1041D00030782A2811D06FF02F033078A0F1300208
:1041E000092A16D8039A44F0020402EB820203EB78
:1041F00042021044761C0390EFE758F8042B039218
:10420000002A03DA504244F40054039044F00204BC
:10421000761C30782E2816D116F8010F44F00404CD
:104220002A280DD06FF02F023078A0F13003092B2F
:1042300009D807EB870302EB4303C718761CF3E7A3
:1042400058F8047B761C30786C280FD006DC4C289C
:1042500017D068280DD06A2814D104E0742810D033
:104260007A280FD10DE044F400140AE044F48014DD
:1042700001E044F440147278824202D104F58014C3
:10428000761C761C307866280BD013DC582877D043
:1042900009DC002875D04528F6D04628F4D04728F8
:1042A0001AD193E118E0632835D0642879D06528C5
:1042B00012D18BE1702873D008DC6728F1D069280F
:1042C0006FD06E280DD06F2806D1ACE073282CD0AB
:1042D000752874D0782853D05246179990476D1C92
:1042E00054E1C4F30250022809D003280DD0D8F8B5
:1042F000001004280DD00D6008F1040846E1D8F83C
:104300000010EA17C1E90052F6E7D8F800100D8056
:10431000F2E70D70F0E718F8041B8DF8001000208C
:104320008DF80100EB46012003E058F804BB4FF084
:10433000FF3061074FF0000102D40DE009F10101E7
:104340008946B9420FDA8145F8DB1BF809100029CC
:10435000F4D108E009F1010189468142FADB1BF83A
:1043600009100029F6D103985346A0EB090721460E
:104370003846179A00F080FA284400EB090507E058
:1043800044E008E10DE01BF8010B524617999047F5
:10439000B9F10109F7D2534621463846179AF2E09F
:1043A00039E00A21C4F302524FF0000B0091022AB7
:1043B00006D058F8040BC117032A09D00AE023E0FD
:1043C00008F1070020F00702F2E80201904605E03C
:1043D00000B2C117042A01D140B2C117002906DA80
:1043E0000A460021404261EB02012D2202E0220533
:1043F00004D52B228DF80420012203E0E20701D02E
:104400002022F7E7914657E00A2100E010214FF003
:10441000000B00910BE010214FF0000B44F004045E
:104420000827009103E008204FF0000B0090C4F330
:104430000252022A05D058F8040B0021032A08D0A2
:1044400008E008F1070020F00702F2E802019046B8
:1044500003E080B2042A00D1C0B24FF00009220765
:104460002AD53278702A07D0DDF800C08CF0100C05
:104470005CEA0B0C05D00EE040228DF804200122EE
:1044800008E050EA010306D030238DF804308DF89F
:10449000052002229146009B83F0080353EA0B0398
:1044A0000AD150EA010201D1620705D530228DF808
:1044B00004204FF001097F1E3278582A04D039A217
:1044C0000C920CAA02920BE03BA2F9E75B46009A21
:1044D000FBF790FF0C9B9B5C029A521E029213709A
:1044E00050EA0102F2D1029804A9081A00F1200B47
:1044F000600702D524F4803400E001275F4502DD27
:10450000A7EB0B0000E0002000EB0B0100900398EC
:104510004944401A0390E00306D453462146179AB3
:10452000039800F0A9F90544002706E001A85246C7
:10453000C05D179990476D1C7F1C4F45F6DBE0036B
:104540000CD553462146179A039800F095F9054477
:1045500004E030205246179990476D1C0099481E80
:1045600000900029F5DC08E0029802995246007894
:10457000491C0291179990476D1CBBF10001ABF1EA
:10458000010BF1DC5BE100F065F90544761C307845
:1045900000287FF40DAE19B02846BDE8F08F00006A
:1045A0000928010030313233343536373839616209
:1045B00063646566000000003031323334353637CD
:1045C000383941424344454600000000600700D4AA
:1045D000062708F1070020F00700F0E802238046D4
:1045E00003F0004C5FEA0C0001D097A009E0200521
:1045F00001D596A005E0E00701D095A001E0AFF25B
:104600004C001390307823F0004365280CD006DC72
:10461000452809D046281DD047287FD13BE0662891
:1046200018D067287AD136E00021112F01DB112044
:1046300000E0781CCDE9000104A90CA8FFF7EEFC0E
:10464000DDE90D010C9A4FF0000B07F10109109202
:1046500000914EE04FF000400097CDE9011004A911
:104660000CA8FFF7DBFCDDE90D020C9B0F994FF066
:10467000000B91461093009211B9791C00EB0109CF
:10468000B7EB090003D4C0F1FF3B07F10109A9EB27
:104690000700019042E0012F00DA01270021112FCD
:1046A00001DD112000E03846CDE9000104A90CA885
:1046B000FFF7B4FCDDE90D010C9A00914FF0000BFF
:1046C000B946109221070FD4009A4A4503DA914661
:1046D00001E0A9F10109B9F1010F05DD109AA9F175
:1046E0000101515C3029F4D0B84202DA10F1040F14
:1046F00003DA0121CDE9011010E0002803DC834436
:10470000A9EB000102E0411C494500DD8946A0EB10
:104710000B00401C01904FF000400290200705D490
:104720000198484502DB4FF0FF30019000208DF8E2
:104730004B0002980DF14B07B0F1004F25D002203D
:104740000C902B200D90029800280CDA4042029029
:104750002D200D9007E00A210298FBF735FE30313D
:10476000029007F8011D0C99481E0C900029F2DCFC
:1047700002980028EFD1791E0D980870307800F06B
:10478000200040F0450007F8020D11A8C01BC01D15
:1047900002901398007800B1012000EB0901019804
:1047A00001EBE071029801440398401A401E039007
:1047B000E00306D453462146179A039800F05CF8AC
:1047C00005441398007818B15246179990476D1C0C
:1047D000E00323D553462146179A039800F04CF87E
:1047E00005441BE0BBF1000F07DB0098584504DDD2
:1047F0001098179910F80B0001E0179930205246D5
:10480000904701980BF1010B401E05F10105019045
:1048100004D12E205246179990476D1CB9F1000122
:10482000A9F10109DEDC05E017F8010B52461799E2
:1048300090476D1C0299481E02900029F4DC5346F3
:104840002146179A03989EE62D0000002B000000D9
:10485000200000002DE9F041044600251E461746C1
:10486000880404D405E039462020B0476D1C641E3E
:10487000F9D52846BDE8F0812DE9F0410446002530
:104880001E469046C80301D5302700E02027880443
:1048900004D505E041463846B0476D1C641EF9D585
:1048A0002846BDE8F0814A68002A06D00A68531CF1
:1048B0000B6010704868401E4860704770B5054630
:1048C0000A49A0F50000884201D3094870BD094992
:1048D0002846FBF7D4FC044607492846FBF7D2FCE0
:1048E0002146BDE87040FBF7FFBC00003333D33FE7
:1048F00000247449333353400000204113B54FF076
:10490000FF33012269460248FEF71FF800981CBDDC
:10491000D80100208CB0FCF7C3FFFEF7D7FEFEF7EE
:1049200013FAFEF703FAFEF7C5F9FEF72FFBFEF7C1
:10493000EBFAFEF709FBFEF775FBFEF78FFB64232E
:10494000112262A16648FEF700F86420FCF7ECFC37
:1049500064A0FFF719FB6420FCF7E6FC66A0FFF7F4
:1049600013FBFFF79DF870A0FFF70EFB6420FCF728
:10497000DBFC77A0FFF708FB7FA0FFF705FBFEF746
:1049800025FC7CA0FFF700FB4FF4FA763046FCF7DD
:10499000CBFCFEF789FD81A0FFF7F6FA0A20FCF7B1
:1049A000C3FC0A24FFF764F93046FCF7BDFC0BAAF0
:1049B0000AA909A8FFF764F8FFF75CF80546FEF7B7
:1049C0006BFB002381A219461846FEF759FDBDF97D
:1049D000241091FBF4F091FBF4F304FB1010002879
:1049E00000DA404200907DA2142104A8FFF7DCFA0F
:1049F000002304AA02211846FEF742FDBDF9281043
:104A000091FBF4F091FBF4F304FB1010002800DAA2
:104A10004042009074A2142104A8FFF7C5FA0023B5
:104A200004AA03211846FEF72BFDBDF92C1091FBBB
:104A3000F4F091FBF4F304FB1010002800DA40427C
:104A400000906CA2142104A8FFF7AEFA002304AA78
:104A500004211846FEF714FD2B4669A2142104A870
:104A6000FFF7A2FA002304AA06211846FEF708FD64
:104A7000FEF730FCFFF778F9BDF92C0090FBF4F15C
:104A800004FB1103BDF9281090FBF4FC91FBF4F03A
:104A900091FBF4F704FB1010BDF92410002B91FBDF
:104AA000F4F204FB121291FBF4F100DA5B420028ED
:104AB00000DA4042CDE9000CCDE90235002A00DAE7
:104AC00052423B4651A0FFF75FFA6BE75541525403
:104AD00020546573742053746172740D0A000000D1
:104AE000900100205072696E7466205465737420C2
:104AF0004F4B0D0A000000000D0A5B53797374657B
:104B00006D5D20496E697469616C697A696E6720B0
:104B100074656D7065726174757265206D6F647512
:104B20006C652E2E2E0D0A005B53797374656D5DD6
:104B30002054656D7065726174757265206D6F6467
:104B4000756C652072656164790D0A0D0A000000BC
:104B50000D0A3D3D3D3D3D3D3D3D3D3D20506861A3
:104B6000736520352054657374203D3D3D3D3D3DCA
:104B70003D3D3D3D0D0A000054657374696E67202C
:104B80004F4C454420646973706C6179206D6F648B
:104B9000756C652E2E2E0D0A0D0A00000D0A3D3D86
:104BA0003D3D3D3D3D3D3D3D2050686173652035B7
:104BB00020546573742050415353203D3D3D3D3D8D
:104BC0003D3D3D3D3D0D0A0D0A00000053797374D3
:104BD000656D2052756E6E696E67000054313A251E
:104BE000642E25644300000054323A25642E256467
:104BF0004300000054333A25642E2564430000002E
:104C000046414E3A25642052504D000054313A2519
:104C1000642E2564432054323A25642E25644320B3
:104C200054333A25642E2564432046414E3A256488
:104C30002052504D202D2050686173652035204F43
:104C40004B0D0A002DE9F0411A498046884202DBEB
:104C50001948BDE8F081194D012400BF05EBC400DF
:104C600041684046FBF7A6FB1ED805EBC40055F88B
:104C7000344070E902763146C068FBF7FDFA05461C
:104C800039462046FBF7F8FA044631464046FBF722
:104C9000F3FA2146FBF7F6FA2946FBF725FB3946DE
:104CA000BDE8F041FBF796BA641CA62CD6D30448A5
:104CB000CFE70000D7634543000020C264500008DE
:104CC0000000FA421CB5002101918DF80500642016
:104CD0000090022301AA78210348FCF715FD08B1D2
:104CE00000201CBD01201CBD9C00002010B5002030
:104CF0000E4A014653189B7D834200D91846491C31
:104D00000329F7DB02280ED001280CD03224917C35
:104D1000A1420AD0224606A0FFF736F92046BDE898
:104D20001040FEF791BF5F24F1E710BD2006002080
:104D30005B54656D70657261747572655D20466166
:104D40006E2073706565643A2025642525202D3E0C
:104D500020256425250D0A002DE9F05F0024DFF8E9
:104D600080B0204EDFF88080204D02274FF0010AEE
:104D7000A14600BF05EB4400B0F90C00FBF7F2FAC6
:104D80005946FBF7B1FA29198A7D22B1012A09D0C7
:104D9000022A0ED110E0B04206DA40451ADB81F853
:104DA00016A017E0B04201DB8F7513E0104A904265
:104DB00010DA81F816900DE00E4A90420ADA40456A
:104DC00002DB81F816A001E081F81690611C0AA0B0
:104DD000FFF7DAF8641C032CCCDBBDE8F09F000081
:104DE000000020410000704200000C42200600201C
:104DF00000000442000068425B54656D706572619A
:104E0000747572655D204E544325643A2054656D77
:104E100070206465637265617365642062656C6FA0
:104E200077203630430D0A0000000000000000002B
:104E30002F000000000700070000147F147F1400FB
:104E4000242A7F2A1200231308646200364955225F
:104E50005000000503000000001C2241000000413A
:104E6000221C000014083E08140008083E08080030
:104E70000000A0600000080808080800006060004A
:104E800000002010080402003E5149453E00004247
:104E90007F4000004261514946002141454B3100AD
:104EA0001814127F10002745454539003C4A4949EE
:104EB00030000171090503003649494936000649A9
:104EC00049291E000036360000000056360000005A
:104ED0000814224100001414141414000041221478
:104EE0000800020151090600324959513E007C1266
:104EF00011127C007F49494936003E414141220060
:104F00007F4141221C007F49494941007F0909092D
:104F100001003E4149497A007F0808087F000041AE
:104F20007F4100002040413F01007F0814224100E2
:104F30007F40404040007F020C027F007F04081049
:104F40007F003E4141413E007F09090906003E4184
:104F500051215E007F09192946004649494931001F
:104F600001017F0101003F4040403F001F204020E1
:104F70001F003F4038403F006314081463000708D7
:104F800070080700615149454300007F414100001E
:104F90000204081020000041417F000004020102C9
:104FA0000400404040404000000102040000205442
:104FB000545478007F484444380038444444200026
:104FC000384444487F00385454541800087E09017E
:104FD000020018A4A4A47C007F0804047800004404
:104FE0007D4000004080847D00007F102844000048
:104FF00000417F4000007C04180478007C08040411
:105000007800384444443800FC2424241800182430
:105010002418FC007C080404080048545454200060
:10502000043F444020003C4040207C001C204020A5
:105030001C003C4030403C004428102844001CA088
:10504000A0A07C004464544C440000107C8200000A
:105050000000FF00000000827C100000000609092B
:1050600006000000000020C2D763454300001CC2B8
:105070003D8A3A43000018C29A593043000014C2D6
:10508000CDCC2643000010C2ECD11D4300000CC261
:10509000D7631543000008C28F820D43000004C28D
:1050A0000A170643000000C25238FE420000F8C151
:1050B0005C0FF1420000F0C114AEE4420000E8C110
:1050C0005C0FD9420000E0C17B14CE420000D8C181
:1050D00071BDC3420000D0C15EFAB9420000C8C130
:1050E00012C3B0420000C0C16F12A8420000B8C194
:1050F000ACDC9F420000B0C1A01A98420000A8C1D9
:105100009CC490420000A0C17BD48942000098C199
:105110009C448342000090C1B21D7A42000088C1C5
:10512000235B6E42000080C14C376342000070C1B7
:10513000FCA95842000060C1F6A84E42000050C1D0
:105140000E2D4542000040C11B2F3C42000030C1E3
:10515000E9A63342000020C1568E2B42000010C148
:1051600035DE2342000000C168911C420000E0C00F
:10517000CBA115420000C0C0440B0F420000A0C0EC
:10518000B4C80842000080C0F8D30242000040C00A
:10519000F853FA41000000C05C8FEF41000080BF6F
:1051A000DF4FE541000000005C8FDB410000803FE5
:1051B0009643D241000000407F6AC9410000404050
:1051C000F4FDC04100008040CFF7B8410000A0408E
:1051D000EC51B1410000C0402506AA410000E0406A
:1051E0006F12A34100000041A4709C4100001041D7
:1051F000AC1C9641000020417B14904100003041DE
:10520000EC518A4100004041E5D08441000050410A
:10521000D1227F4100006041A01A75410000704119
:105220001F856B4100008041355E6241000088416E
:10523000B29D5941000090417D3F5141000098418D
:105240007D3F49410000A041819541410000A841B6
:10525000A2453A410000B041964333410000B841B5
:105260005C8F2C410000C041DD2426410000C84174
:10527000000020410000D041AC1C1A410000D84180
:10528000E17A14410000E04187160F410000E84137
:105290006DE709410000F041AAF104410000F84126
:1052A00027310041000000429643F74000000442CD
:1052B000FA7EEE4000000842AC1CE64000000C42C2
:1052C0004A0CDE40000010420456D6400000144252
:1052D00079E9CE4000001842A8C6C74000001C4231
:1052E00091EDC04000002042355EBA4000002442EB
:1052F0006210B44000002842E7FBAD4000002C42A1
:10530000F628A840000030425C8FA24000003442E2
:10531000E9269D4000003842CFF7974000003C420C
:10532000DBF99240000040420E2D8E4000004442C6
:105330006891894000004842B81E854000004C42F8
:105340002FDD804000005042D57879400000544263
:10535000378971400000584223DB694000005C42FD
:10536000FA7E624000006042BC745B400000644210
:10537000A69B54400000684219044E4000006C4255
:10538000B29D47400000704237894140000074429E
:1053900081953B400000784254E3354000007C4258
:1053A0004E623040000080426F122B40000082426B
:1053B000B6F32540000084422506214000008642C5
:1053C00058391C4000008842B29D174000008A42B4
:1053D0003333134000008C4279E90E4000008E42C6
:1053E00083C00A400000904252B80640000092423A
:1053F000E5D00240000094423F35FE3F0000964257
:1054000079E9F63F000098423BDFEF3F00009A4207
:105410008716E93F00009C425C8FE23F00009E42FD
:10542000F628DC3F0000A042DD24D63F0000A24267
:10543000C520D03F0000A442355ECA3F0000A6420E
:105440002FDDC43F0000A842EE7CBF3F0000AA420F
:10545000713DBA3F0000AC427D3FB53F0000AE4217
:105460008941B03F0000B0421F85AB3F0000B2420F
:1054700079E9A63F0000B4425C8FA23F0000B6422B
:105480003F359E3F0000B842AC1C9A3F0000BA4234
:105490001904963F0000BC424A0C923F0000BE42F5
:1054A00004568E3F0000C042BE9F8A3F0000C242A9
:1054B0003D0A873F0000C4428195833F0000C642F9
:1054C0008941803F0000C84223DB793F0000CA4287
:1054D000BC74733F0000CC42DF4F6D3F0000CE42F2
:1054E0008B6C673F0000D042C1CA613F0000D242CE
:1054F000F6285C3F0000D4422B87563F0000D6427E
:105500007368513F0000D842BA494C3F0000DA426C
:10551000022B473F0000DC42D34D423F0000DE42F9
:105520002DB23D3F0000E0428716393F0000E242C5
:105530006ABC343F0000E4424E62303F0000E64265
:10554000BA492C3F0000E8422731283F0000EA42D8
:105550009318243F0000EC428941203F0000EE42B6
:1055600008AC1C3F0000F0428716193F0000F242D1
:105570000681153F0000F44285EB113F0000F64222
:105580008D970E3F0000F8421F850B3F0000FA4246
:105590002731083F010202030405060708090A0B28
:1055A0000C0D0E0F10100102020304050607080976
:1055B0000A0B0C0D0E0F1010000000000000000080
:1055C00001020304060708090000000001020304A9
:1055D0005B54656D70657261747572655D204361C1
:1055E0006C63756C6174696F6E3A204144432D3E63
:1055F000566F6C746167652D3E5265736973746193
:105600006E63652D3E54656D70657261747572656B
:105610000D0A000034560008000000202800000099
:10562000FC3F00085C56000828000020180A000013
:105630000C40000800000000000000000000000016
:105640000000000000000000010000001000000049
:0C5650000000000000127A0000000000C2
:0400000508000131BD
:00000001FF
