:020000040800F2
:10000000D00B002049010008C33D00081937000843
:10001000C13D0008710C00087D5800080000000078
:10002000000000000000000000000000394B000844
:100030002D13000800000000A7420008AD4F000883
:100040006301000863010008630100086301000800
:1000500063010008630100086301000863010008F0
:1000600063010008630100086301000863010008E0
:1000700063010008630100086301000863010008D0
:1000800063010008630100086109000863010008BA
:1000900063010008630100086301000855130008AC
:1000A00063010008630100086301000863010008A0
:1000B0006301000863010008630100086301000890
:1000C0006301000863010008630100086301000880
:1000D000630100086301000863010008715800080B
:1000E0002F13000863010008630100086301000882
:1000F0006301000863010008630100086301000850
:10010000630100086301000863010008630100083F
:10011000630100086301000863010008630100082F
:10012000630100086301000863010008630100081F
:10013000DFF810D000F084FB00480047D16C0008C5
:10014000AFF30080D00B00200648804706480047E8
:10015000FEE7FEE7FEE7FEE7FEE7FEE7FEE7FEE777
:10016000FEE7FEE72B50000831010008202A04DBDF
:10017000203A21FA02F00021704721FA02F3D04020
:10018000C2F12002914008431946704740EA01033A
:100190009B0703D009E008C9121F08C0042AFAD23D
:1001A00003E011F8013B00F8013B521EF9D2704701
:1001B000D2B201E000F8012B491EFBD270470022A9
:1001C000F6E710B513460A4604461946FFF7F0FF56
:1001D000204610BD421C10F8011B0029FBD1801ADB
:1001E0007047F0B480EA0102D40F4200B2EB410F35
:1001F00002D20246084611464A0042D0C30DDDB283
:10020000C1F3C752AD1A202D35DAC1F3160141F4FE
:10021000000204B15242C5F1200602FA06F12A4159
:100220001044B3EBD05F23D0C4B1012DA0EBC35079
:1002300009DCF0BC4FF0004202EAC352DBB200F529
:10024000000000F017B9400000F1807000EBC350CF
:10025000A0F1807040EAD170490009E0490841EA04
:10026000C071A0EBC35000F50000400800EBC35084
:10027000F0BC00F0F6B86142012202EB4101001B24
:10028000F6E7F0BC704781F00041AAE780F000403B
:10029000A7E780EA010210B502F00043400022D037
:1002A0004A001FD0010E01EB1261C0F35600C2F3E9
:1002B000560240F4000042F40002A0FB02200004B9
:1002C0007F39140400D0401C50EA124001D4400091
:1002D000491EC2B20C0604EBD010401C4008802A14
:1002E00002D003E0002010BD20F00100002900DA58
:1002F0000020184310BD30B480EA010202F000452E
:1003000030F0004221F0004013D090B1C30DD40D65
:10031000C2F31601C0F31600E41A41F4000140F4E0
:1003200000027D34914201D3641C00E04900002C9E
:1003300002DA30BC002070474FF4000000239142E5
:1003400001D3891A034340084FEA4101F7D151B163
:10035000914202D14FF0004105E002D24FF001017D
:1003600001E06FF0010103EBC450284430BC00F001
:1003700078B8C10F80EAE0700844CA0796230021CC
:1003800000F078B896230022114600F073B800F010
:10039000004220F00040C10DC0F3160040F4000000
:1003A0007F2901DA00207047962903DCC1F196010C
:1003B000C84001E096398840002AF4D04042704796
:1003C000002801DBC0F10040002901DBC1F1004140
:1003D0008842704730B50B46014600202022012498
:1003E00009E021FA02F59D4205D303FA02F5491B03
:1003F00004FA02F52844151EA2F10102F1DC30BD19
:100400002DE9F05F0546002092469B468846064649
:10041000814640241BE02846414647462246FFF7D6
:10042000A5FE53465A46C01A914110D311461846AC
:10043000224600F017FA2D1A67EB01084F462246B4
:100440000120002100F00EFA17EB00094E41201E9A
:10045000A4F10104DFDC484631462A464346BDE8A4
:10046000F09F0029A8BF7047401C490008BF20F03A
:100470000100704710B4B0FA80FC00FA0CF050EAAA
:10048000010404BF10BC704749B1CCF1200421FA2B
:1004900004F411FA0CF118BF012121430843A3EB26
:1004A0000C01CB1D4FEA00614FEA102042BF002033
:1004B00010BC704700EBC35010440029A4BF10BC0F
:1004C0007047401C490008BF20F0010010BC704775
:1004D0002DE9FE4F804681EA0300C00F0C460090D4
:1004E00021F0004123F00045B8EB0200A94105D2FC
:1004F0004046214690461C460B46024623F00040EB
:10050000104347D0270DC7F30A00C3F30A510290E6
:10051000401A019040286BDAC3F3130040F4801BAB
:100520000098924620B10023D2EB030A63EB0B0B39
:1005300001985946C0F14002504600F093F9064632
:100540000D4650465946019A00F09BF910EB080001
:100550006141002487EA115284EAE7731A4340D0CC
:10056000009A62B3019A012A4FEA075215DC001B78
:1005700061EB02014FF0004202EA0752CDE900426E
:10058000001C41F5801132462B4600F09BF903B068
:10059000BDE8F08F40462146F9E7001B61EB020100
:1005A000001C41F5801300185B412018A2F50017CC
:1005B00047EB030140EAD570B6196D4111E06D08B3
:1005C0004FEA360645EAC0754FEA0752001B61EB59
:1005D0000201001C41F5801149084FEA3000001962
:1005E000514132462B4603B0BDE8F04F00F05BB9F5
:1005F0000098012240000023D0EB020263EBE0737D
:10060000009821464FEAE074B8EB000061EB04016A
:10061000E9E783F000435BE781F0004158E72DE90B
:10062000FE4F81EA030404F0004421F000410094ED
:100630004FF0000B23F0004350EA01045ED052EA71
:1006400003045BD0C3F30A54C1F30A552C44A4F24B
:10065000F3340194A0FB0254C1F3130141F480115F
:10066000C3F3130343F4801301FB024400FB034E66
:10067000840A970A44EA815447EA8357A4FB07682F
:1006800002958D0A05FB07854FEA932C04FB0C5459
:100690002705029D4FEA065847EA1637B5EB0805CD
:1006A0006EEB070C870E920E47EA811742EA83121F
:1006B000A7FB0201B6EB0B0164EB00042B0D43EA30
:1006C0000C335E1844EB1C50DA465146E7FB02013E
:1006D000C5F313044FEA0B3343EA14534FEA0432D1
:1006E000019C43EA0603A4F10C040294009CCDE9AA
:1006F00000B400F0E7F803B0BDE8F08F0020014639
:10070000F9E72DE9F04D81EA030404F0004B21F0F4
:10071000004514464FF0000A23F0004150EA05025C
:1007200020D054EA01021DD0C5F30A570246C5F392
:100730001303C1F31300C1F30A5640F4801543F4C8
:100740008013A7EB0608101BD64608F2FD3873EBA2
:10075000050002D308F1010801E092185B41B8F1ED
:10076000000F03DA00200146BDE8F08D00204FF4B1
:100770008011064684460EE0171B73EB050705D370
:10078000121B63EB050306434CEA010C49084FEAD0
:10079000300092185B4150EA0107EDD152EA0300A4
:1007A00012D082EA040083EA0501084305D0101B39
:1007B000AB4106D20122002306E000224FF00043A5
:1007C00002E06FF0010253101AEB06004CEB0851E7
:1007D00010EB0A0041EB0B01BDE8F04D00F063B8EF
:1007E000C1F30A52C1F3130140F2FF3341F4801107
:1007F0009A4202DA00200146704740F233439A429F
:10080000A2F2334202DC5242FFF7B0BC00F02AB839
:1008100030B5041E71F1000404DB4FF00044404287
:1008200064EB0101141E73F1000405DB1C464FF05C
:100830000043524263EB0403994208BF904230BD2B
:10084000064C074D06E0E06840F0010394E807001D
:1008500098471034AC42F6D3FFF76EFCF88C0008D2
:10086000188D0008202A04DB203A00FA02F100204B
:1008700070479140C2F1200320FA03F319439040DE
:100880007047202A06DBCB17203A41FA02F043EAF0
:10089000E07306E041FA02F3D040C2F12002914039
:1008A00008431946704710B5141E73F1000408DAA6
:1008B000401C41F1000192185B411A4301D120F024
:1008C000010010BD2DE9F04D92469B4611B1B1FAE1
:1008D00081F202E0B0FA80F220329046FFF7C2FFC8
:1008E00004460F4640EA0A0041EA0B0153465A46C5
:1008F000084313D0114653EA010019D0C8F1400251
:100900005046FFF733FC05460E46504659464246D0
:10091000FFF7A8FF084305D0012004E02046394630
:10092000BDE8F08D0020054346EAE0762C433743CE
:100930000A986305E40AA0EB08000022FD0A44EAD5
:1009400047540A3002D500200146E9E70105101995
:100950006941DDE9084500196941BDE8F04DA2E7AC
:10096000014800F0F6BD0000C005002070B5044647
:1009700000688168C943C90717D1816821F0010166
:10098000816001F029FA05460AE000BF01F024FA6F
:10099000401B022804D920688068C043C00706D0E5
:1009A00020688068C043C007F0D0002070BDA06AF6
:1009B00040F01000A062E06A40F00100E062012017
:1009C00070BD10B50146406A826A12F0500F05D022
:1009D000006A026BBDE8104008461047816A41F486
:1009E0000071816201688968C1F3424107290CD115
:1009F000017B51B9816A21F480718162816AC904E5
:100A000003D4816A41F00101816200F09FFD10BDB5
:100A100010B5406A816A41F040018162C16A41F0CB
:100A20000401C16200F094FD10BD10B5406A00F0F1
:100A30008EFD10BDF8B5002604460096006881685A
:100A4000C943C9072DD0816841F001018160164872
:100A500016490068B0FBF1F000E0401E009000284D
:100A6000FBD101F0B9F9054616E000BF01F0B4F979
:100A7000401B022810D920688068C043C0070BD0F3
:100A8000A06A40F01000A062E06A40F00100E0625D
:100A900084F824600120F8BD20688068C043C00746
:100AA000E4D10020F8BD00005C00002040420F00AF
:100AB00070B5104D0446A87A00281AD02888204224
:100AC0000ED0204600F0D6F8024621460AA005F0D6
:100AD00005F82888204203D00021204600F0B4FB0E
:100AE0002888A043288005F0FFFDBDE8704005F090
:100AF00039BE70BD640000205B416C61726D5D2089
:100B0000436C656172206572726F723A203078258D
:100B100030345820282573290D0A00000148008828
:100B2000704700006400002070B5114C0025114E84
:100B300025606560012210213046A56001F047F96B
:100B400001220821304601F042F92580A570257266
:100B5000657201206560A07207A004F0BFFF0EA0BF
:100B600004F0BCFFBDE8704015A004F0B7BF000062
:100B700064000020000C01405B416C61726D5D20DF
:100B80004D6F64756C6520696E697469616C697A12
:100B900065640D0A000000005B416C61726D5D20B0
:100BA000414C41524D2070696E3A20504234202809
:100BB000484947483D4E6F726D616C290D0A00002F
:100BC0005B416C61726D5D20424545502070696EDD
:100BD0003A20205042332028484947483D53696C09
:100BE000656E74290D0A000070B5104D0446A87A90
:100BF00000281AD0288820420ED1204600F03AF86A
:100C0000024621460AA004F069FF2888204203D149
:100C10000121204600F018FB28882043288005F099
:100C200063FDBDE8704005F09DBD70BD640000200F
:100C30005B416C61726D5D20536574206572726FEB
:100C4000723A2030782530345820282573290D0A2F
:100C500000000000054810B5807A002805D005F096
:100C6000D7FBBDE8104005F07DBD10BD640000203D
:100C7000FEE7000080283BD011DC082830D007DCDC
:100C800030B3012826D0022826D004281ED125E022
:100C9000102827D0202827D0402817D126E0B0F5EB
:100CA000006F2DD009DCB0F5807F23D0B0F5007F38
:100CB00022D0B0F5806F09D120E0B0F5805F21D05F
:100CC000B0F5005F20D0B0F5804F1FD010A0704766
:100CD00013A0704714A0704718A070471CA070475D
:100CE00020A0704724A0704728A070472CA0704710
:100CF00030A0704733A0704736A0704739A07047C6
:100D00003DA0704741A0704745A0704749A070477B
:100D1000556E6B6E6F776E204572726F72000000B9
:100D20004E4F4E4500000000412D456E61626C65DE
:100D300020436F6E666C696374000000422D4B3176
:100D40005F315F535441204572726F7200000000A2
:100D5000432D4B325F315F535441204572726F72A5
:100D600000000000442D4B335F315F535441204558
:100D700072726F7200000000452D4B315F325F537D
:100D80005441204572726F7200000000462D4B32B4
:100D90005F325F535441204572726F720000000051
:100DA000472D4B335F325F535441204572726F724F
:100DB00000000000482D5357315F535441204572C5
:100DC000726F7200492D5357325F53544120457260
:100DD000726F72004A2D5357335F5354412045724E
:100DE000726F72004B2D4E54435F312054656D700D
:100DF000204572726F7200004C2D4E54435F3220BA
:100E000054656D70204572726F7200004D2D4E5406
:100E1000435F332054656D70204572726F7200001D
:100E20004E2D53656C6654657374204572726F72F3
:100E3000000000004F2D506F776572204572726F71
:100E40007200000030B590F840500124AC40C56BF2
:100E50006C60046863604368102B036803D099607A
:100E60000068C26030BD9A600068C16030BD00009B
:100E7000F0B5474C9DB0207800283AD0E078454E38
:100E800000254FF40057002835D0E570A57042A02A
:100E900006F0F2FC002004F0B7FD28B11DB048A018
:100EA000BDE8F04006F0E8BC14213A48FFF787F9A6
:100EB0004A48306006F02EF9384604F0A5FD00954A
:100EC00001950295039500F087FF4FF47A71B0FB0E
:100ED000F1F00090F0208DF804000F21684605F035
:100EE00063FC8DF80F00684606F0A2FE3CA006F0F9
:100EF000C3FC1DB0F0BD607878B16570206907EB68
:100F00000030B0F1807FF4D204F07EFD207C30749C
:100F10001DB0BDE8F04006F0FDB8A0780028E8D08C
:100F2000002625E0102201A900F5005004F020FD64
:100F300008B131A027E00F2101A805F035FC9DF88C
:100F40001310884210D19DF8080068B101AF97E8EE
:100F50000F0005AF87E80F00502209A905A805F08A
:100F6000B5FD09A806F088FC60691030761C606148
:100F7000D4E90501B0EB011F01D2082ED2D3B0EBAA
:100F8000011FB6D322A006F077FCA570B1E70000E0
:100F900024000020B80700205B4C4F474745525DB6
:100FA00020466F726D617474696E6720466C617360
:100FB00068206D657461646174612E2E2E0D0A00C7
:100FC0005B4C4F474745525D20466F726D61742000
:100FD0004641494C45442E0D0A000000E1B7C3A527
:100FE0005B4C4F474745525D20466F726D617420E0
:100FF000646F6E652E0D0A005B4C4F474745525D8E
:101000002052656164206572726F722E0D0A0000B5
:101010003D3D3D2044554D5020454E44203D3D3DF5
:101020000D0A0000F0B585B0052000F09BFD1422EC
:101030006946002004F09CFC174E002410BB1422CB
:1010400069461648FFF7A2F8144D154F2868B842B4
:1010500003D114496868884218D314210F48FFF758
:10106000AEF8C5E90074AC60EC602C74002004F0AC
:10107000CBFC38B906F04EF820B14FF4005004F024
:10108000C3FC18B13470002005B0F0BD01203070F1
:1010900000F004F90120F7E724000020B807002041
:1010A000E1B7C3A500E0FF000148007970470000E8
:1010B0002400002070B5334E4FF48041304600F0DC
:1010C00081FE314C0025B0B1A4F80A504FF4005114
:1010D000304600F077FE01210028207914D0A8B313
:1010E000A089401EB0F5F97F3FD8D4E90902401C21
:1010F000904211D233E06089401C80B26081322876
:10110000E4D100F097F8E1E740B1A089401C80B23B
:10111000A081B0F5FA7F29D3257126E02089401CF3
:1011200080B22081322800D3A171FA281ED1207804
:1011300028B11648164A8068904200D310462062B3
:1011400028B10622401DB0FBF2F001E00FE00120C3
:10115000A0622171E56165626171A5810FE0606245
:1011600000EB40004001E0616171A58170BDA07994
:1011700020B12089FA2801D200F018F82581A57144
:1011800070BD00000010014024000020B8070020BE
:1011900000FE0F00044801794279114203D000217A
:1011A000417105F03BBB70472400002010B50F488B
:1011B00090B001788278914316D00D4C00214161A6
:1011C0000C4AA168914200D31146816101218170CE
:1011D00009A006F051FB11A240216846A36804F063
:1011E0008DFC684606F048FB10B010BD24000020BE
:1011F000B807002000FE0F003D3D3D204441544112
:10120000204C4F474745522044554D5020535441A0
:101210005254203D3D3D0D0A00000000546F7461A2
:101220006C3A20256C75207265636F7264730D0AC9
:101230000000000003480178002901D00121C1709D
:1012400070470000240000207FB5044612480D4678
:10125000007800281FD00020009001900290039099
:1012600000F0BAFD4FF47A71B0FBF1F000900DB1CF
:10127000202000E021208DF80400200A8DF80500D0
:101280008DF806400F21684605F08EFA8DF80F00A4
:10129000684606F0CDFC7FBD240000201FB50E4837
:1012A0000078002817D00020009001900290039051
:1012B00000F092FD4FF47A71B0FBF1F00090012044
:1012C0008DF804000F21684605F06EFA8DF80F00C6
:1012D000684606F0ADFC1FBD240000207FB5054622
:1012E00011480C46007800281CD000200090019086
:1012F0000290039000F070FD4FF47A71B0FBF1F0B2
:1013000000900CB1102000E011208DF804008DF841
:1013100005500F21684605F047FA8DF80F00684622
:1013200006F086FC7FBD000024000020704710B549
:101330004FF4805000F03EFC4FF4005000F03AFCB7
:101340004FF4804000F036FCBDE810404FF4004000
:1013500000F030BC10B5202000F02CFC4FF4807061
:1013600000F028FCBDE810404FF4007000F022BCF3
:1013700072B6FEE7F8B500250446009590F8240003
:1013800001280BD0012084F824002046FFF7EEFA54
:101390002046FFF74FFB060002D050E00220F8BDC8
:1013A000A06A20F4885040F00200A062022000F001
:1013B00039FF25490968B1FBF0F0400000E0401E0C
:1013C00000900028FBD12068816841F0080181600D
:1013D00000F002FD074608E000F0FEFCC01B0A28F2
:1013E00003D920688068000715D42068806800074A
:1013F000F2D42068816841F00401816000F0ECFCC7
:10140000074612E000F0E8FCC01B0A280DD920684E
:101410008068400709D5A06A20F0020040F0100063
:10142000A06284F824500120F8BD2068806840073D
:10143000E8D4A06A20F0020040F00100A06284F825
:1014400024503046F8BD00005C00002070470000CA
:10145000F8B50024009490F824202546012A12D0E3
:10146000012280F824204A681F23072A0DD206682B
:10147000776B521E02EB820293409F430B689340AE
:101480001F43776319E00220F8BD06680D2A0AD2CF
:10149000376BD21F02EB820293409F430B6893404D
:1014A0001F43376309E0F76A0D3A02EB820293406B
:1014B0009F430B6893401F43F7620A68072306683F
:1014C0000A2A0AD3F7680A3A02EB420293409F4382
:1014D0008B6893401F43F76008E0376902EB4202D4
:1014E00093409F438B6893401F4337610A68102ADB
:1014F00001D0112A20D1124B02689A4217D1936869
:101500001B0219D4936843F40003936009681029FF
:1015100012D10C490C4A0968B1FBF2F101EB8101CF
:10152000490000E0491E00910029FBD104E0816AD6
:1015300041F020018162012480F824502046F8BD4A
:10154000002401405C00002040420F0070477047BB
:10155000704770B50446006806684568A90625D539
:10156000B10723D5A16AC90603D4A16A41F4007169
:10157000A1628168C1F34241072910D1217B71B971
:10158000416821F020014160A06A20F48070A062CF
:10159000A06AC00403D4A06A40F00100A062204603
:1015A000FFF7D4FF21686FF01200086028062ED5DF
:1015B00070072CD5A06AC00603D4A06A40F400507E
:1015C000A06220688168C1F30231072909D041680F
:1015D000490515D48168C1F34241072910D1217B07
:1015E00071B9416821F080014160A06A20F4805007
:1015F000A062A06AC00503D4A06A40F00100A06206
:101600002046FFF723FF21686FF00C000860680692
:101610000CD5F0070AD0A06A40F48030A0622046C2
:1016200000F096F821686FF00100086070BD0000BE
:101630002DE9F04104004FF000057FD0A06A00269C
:1016400028B9E66284F82460204600F083F820463A
:10165000FFF78CF9A16AC90600D420B1A06A40F056
:101660001000A0626AE0A16A21F4885141F00201F1
:10167000A162334923688B42E16904D1B1F5402F5F
:1016800001D14FF40021277B4FF4807C41EA4702CF
:1016900061680A43A168614508D0012906D000218C
:1016A00094F814E0BEF1010F02D00AE06146F7E7BA
:1016B000C7B1A76A47F02007A762E76A47F00107AA
:1016C000E7625F6827F469470F435F6023689968A2
:1016D0001C4F394011439960A16861450BD0012925
:1016E00009D00CE0DFF860E0A7690EEB47370F4345
:1016F00047F40061E5E7218A0D05A5F5801521680D
:10170000CB6A23F470032B43CB62216889680F4BAB
:101710001940914208D1E662A16A21F0020141F02C
:101720000101A162BDE8F081A06A20F0020040F052
:101730001000A062E06A40F00100E0620120F1E7E1
:10174000003C0140FDF7E1FF00E0FFFFFE0E1FFF40
:101750007047000070B586B00025064600950195DB
:101760000295039500681E49884236D11D49886953
:1017700040F400708861886900F400700490886902
:1017800040F0040088618869694600F00400049014
:101790000720009003200190134800F017FA144C22
:1017A0001248C4E900058020C4E9025040002061CD
:1017B000800060612020C4E90605204600F05CF945
:1017C00008B1FFF7D5FD34620022052112206662C0
:1017D00000F0F6FC122000F0E5FC06B070BD000041
:1017E00000240140001002400008014008000240AF
:1017F000F00500202DE9F047894604463B49006882
:101800003B4F0E1D9046884201D0B84207D1306848
:1018100010F4702F03D001252846BDE8F08794F816
:10182000240001280CD0012084F824002046FFF772
:1018300001F905004FF0000004D084F82400EBE724
:101840000220EAE7A16A40F60162914341F4807107
:10185000A1622168B94218D1326812F4702F14D0F5
:10186000A16A41F48011A1623168490505D5A16AD8
:1018700021F4005141F48051A162A16AC9040AD542
:10188000E16A21F00601E16206E0A26A22F4801218
:10189000A2624968E9E7E06284F82400216A1548F9
:1018A0008862216A1448C862216A14480863216862
:1018B0006FF0020008602068816841F480718160E7
:1018C000216843464A464C31206A00F013F92068EB
:1018D0008168C1F342410729816803D041F4801136
:1018E000816099E741F4A001FAE70000002401407B
:1018F00000280140C30900082B0A0008110A00084B
:1019000010B590F821100022022905D0042181632E
:1019100080F82020012010BD01680B6823F00E0321
:101920000B6001680B6823F001030B6090F84030F6
:10193000C46B012101FA03F3636080F8211080F881
:101940002020104610BD00002DE9F05F90F8211016
:101950000024022903D004218163012485E0016869
:101960000A6822F00E020A6001680A6822F0010289
:101970000A603F4E3E4FB215DFF8F4C0DFF8F0903A
:10198000DFF8ECA0DFF8E8B0DFF8E4E00168783FCA
:1019900013011502ACF1640CA9F15009AAF13C0A3B
:1019A000ABF1280BAEF1140E4FF48018B14227D9D9
:1019B000B9420ED0614512D049451DD0514518D0CD
:1019C000594518D0714501D1424615E0294EB14222
:1019D00001D1012210E0274E1436B14201D110226C
:1019E0000AE0244E2836B14206D0224A3C329142C7
:1019F00001D11A4600E02A461E49091F0A602BE061
:101A0000B94213D0614517D0494522D051451DD068
:101A100059451DD0714501D142461AE0B14202D16B
:101A20004FF0807215E0134EB14201D1012210E057
:101A3000104E1436B14201D110220AE00D4E283664
:101A4000B14206D00B4A3C32914201D11A4600E025
:101A50002A46074980394A60012180F82110002177
:101A600080F82010416B01B188472046BDE8F09F07
:101A7000800002400804024030B560B11A4B026891
:101A800014219A4209D2194B1344B3FBF1F1890096
:101A9000016417490AE0012030BD134B5B42134437
:101AA000B3FBF1F1890001640F490839C1630221D8
:101AB00080F82110136843F6F0718B43F0E90114AC
:101AC0002143D0E902452C43214304692143446961
:101AD000214384692143194311600021416301229C
:101AE00042770177084630BD08040240F8FFFDBF89
:101AF0000000024070B5044690F82000002501283F
:101B00000CD0012084F8200094F821600020012EE0
:101B100006D084F820000225284670BD022070BD42
:101B2000022684F82160A0632068066826F001067A
:101B300006602046FFF786F9E06A00282068016801
:101B400002D041F00E0106E021F00401016020689E
:101B5000016841F00A0101602068016841F001015B
:101B60000160D9E770B5044600F036F90546601CFF
:101B700002D004480078044400F02EF9401BA04233
:101B8000FAD370BD50000020B0F5805F0AD0B0F5E8
:101B9000007F09D0B0F5807F08D0B0F5004F07D1A5
:101BA00002F0BEBD03F0D4BB02F0A2BD02F0ACBD9A
:101BB00070470000044910B50A68024202D008606C
:101BC000FFF7E2FF10BD0000140401402DE9F84FBB
:101BD000DFF8C8910024A9F1040B23460F2709F16F
:101BE000040AABF1040ED1E00125A54006EA050286
:101BF000AA4276D1DFF8A8C14E68A6EB0C0866456C
:101C00002BD00DDC032E34D005DC36B3012E19D0D9
:101C1000022E2FD11BE0112E16D0122E2AD119E040
:101C2000B8F5881F19D006DCB8F5803F15D0B8F597
:101C3000801F1FD111E0B8F5001F0ED0B8F5041FAA
:101C400018D10AE0CB6815E0CB681B1D12E0CB6809
:101C500008330FE0CB680C330CE08B682BB1012B01
:101C60004FF0080303D0456104E0042302E005615E
:101C700000E00023FF2A01D8064601E000F1040637
:101C80004FEA840501D9A5F12005D6F8008007FAAE
:101C900005FC28EA0C0803FA05F548EA0508C6F829
:101CA00000804D68ED0070D53E4DAE6946F00106EE
:101CB000AE61AD6924F0030605F0010500953A4DCB
:101CC00006EB050CDCF80850A607360F07FA06F8F5
:101CD00025EA0805DFF8D480404503D14FF000081D
:101CE00025E052E0DFF8C880404502D14FF00108FE
:101CF0001DE0DFF8C080404502D14FF0020816E039
:101D0000DFF8B480404502D14FF003080FE0DFF860
:101D1000AC80404502D14FF0040808E0DFF8A08015
:101D2000404502D14FF0050801E04FF0060808FADF
:101D300006F848EA0508CCF808804D68D9F8006034
:101D4000ED024D4601D5164300E096432E604D68E6
:101D5000DAF80060AD02554601D5164300E096431F
:101D60002E604D68DBF80060AD035D4601D516437B
:101D700000E096432E604D68DEF80060ED03754686
:101D800001D5164300E096432E60641C0A6816468F
:101D9000E2407FF429AFBDE8F88F0000080401405D
:101DA0000000111000100240000001400008014036
:101DB000000C0140001001400014014000180140D7
:101DC000001C01408068084000D0012070470AB123
:101DD000016170470904FBE7014880687047000013
:101DE0005000002070B5040025D094F83D00002577
:101DF00020B984F83C50204600F04EF9242084F8A5
:101E00003D002068016821F001010160206801683F
:101E100041F4004101602068016821F40041016043
:101E200000F068FB4D4A6168914201D84C4900E0DE
:101E30004C49884201D2012070BD4B492368B0FB58
:101E4000F1F15E6826F03F060E435E6063689342E0
:101E500006D94FF4967359434FF47A73B1FBF3F1FB
:101E60002368491C1E6A26F03F06314319626168E7
:101E7000914210D84900401EB0FBF1F2521CC2F34F
:101E80000B02042A01D2042022E0B0FBF1F0401C36
:101E9000C0F30B001CE0A268F2B301EBC10303EB3B
:101EA0000116431EB3FBF6F35B1C43F480431B0592
:101EB00049D092B301EBC10202EB0111401EB0FB0D
:101EC000F1F0401CC0F30B0040F4804040F40040AF
:101ED0002168CA694CF6FF739A431043C861D4E97C
:101EE000071001432068026822F0C002114301601C
:101EF000D4E9030101432068826848F2FF339A4322
:101F000011438160D4E9050108432168CA6822F0C1
:101F1000FF021043C86001E00EE016E0206801688F
:101F200041F0010101602564202084F83D00256313
:101F300084F83E50002070BD01EB4106431EB3FB08
:101F4000F6F35B1CB3E70120C2E701EB4101401E41
:101F5000B0FBF1F0401CC0F30B00B7E7A086010016
:101F600080841E0000093D0040420F002DE9F84F1B
:101F70001F4690468A460446DDF82890FFF72CFF5E
:101F8000054694F83D0020287FD1192301224049BD
:101F90002046009501F052FC002876D194F83C00D0
:101FA000012872D0012084F83C0020680168C9072C
:101FB00003D1016841F0010101602068016821F44A
:101FC00000610160212084F83D00102084F83E006B
:101FD00000262664C4F824806785608D20852D48FE
:101FE000E0622B464A465146204601F0ADFB90B9CF
:101FF000206841698069009036E02A4649462046BB
:1020000001F0C2FC50B1206C042804D120680168A2
:1020100041F4007101600120BDE8F88F606A216819
:1020200000780861606A401C6062618D491E6185AC
:10203000218D491E89B2218522685369DB435B07E4
:102040000BD451B100781061606A401C6062608DF1
:10205000401E6085208D401E20852A464946204628
:1020600001F0C0FB0028CED1208D0028C5D154F846
:102070003D0B016841F400710160202004F81E0945
:10208000E67766770020C7E7FFE70220C4E7000095
:10209000020010000000FFFF10B586B00021009183
:1020A00001910291039100680F4988421AD10F4CA7
:1020B000A06940F00800A061A069694600F008002E
:1020C0000490C02000901220019003200390084843
:1020D000FFF77CFDE06940F40010E061E06900F486
:1020E0000010049006B010BD0054004000100240E3
:1020F000000C0140024881680278114481607047F9
:1021000050000020074810B5016841F0100101603F
:10211000032000F075F80F2000F006F800F024F816
:10212000002010BD0020024070B50D4D04464FF454
:102130007A712878B1FBF0F00A490968B1FBF0F038
:1021400000F0A5FE48B9102C07D200222146501EEF
:1021500000F036F800206C6070BD012070BD0000FA
:10216000500000205C0000200C4808B5816941F057
:1021700001018161816901F001010091C16941F0B2
:102180008051C161C06900F08050009004484168EE
:1021900021F0E06141F00071416008BD0010024093
:1021A00000000140002809DB00F01F0201219140DE
:1021B0004009800000F1E020C0F8001170470000E5
:1021C000F0B40E4B1B680C46C3F30223C3F10705A2
:1021D000042D00D90425191D072901D2002300E090
:1021E000DB1E012606FA05F1491E214099409E405A
:1021F000761E16403143F0BC03F09ABC0CED00E0B3
:10220000064900F0070208684FF6FF03184040EA4D
:102210000220034A10430860704700000CED00E004
:102220000000FA0510B501460020284C04292FD0E3
:102230000BDC012930D0022929D100F06BF961684B
:10224000C1F38131491C49001FE0082920D0102921
:102250001DD161682268D20119D51D48C1F383429E
:10226000C903805C0AD56168194AC1F34041921ED6
:10227000515C184AB2FBF1F1484301E0164948436A
:102280006168490203D440000321B0FBF1F010BDA6
:10229000BDE8104000F04EB9226AC2F301210129C5
:1022A00003D1920701D5C80310BD022905D1626A86
:1022B000920702D549F6404010BD0329FCD12168A0
:1022C0008903F9D54FF2244010BD000000100240F0
:1022D000B88B000800127A0000093D002DE9F84390
:1022E00005460078354CC00754D0E0690026C00090
:1022F00008D4E06940F08050E061E069012600F018
:10230000805000902E480168C90512D401688046AB
:1023100041F480710160FFF75FFD074605E000BFF3
:10232000FFF75AFDC01B642823D8D8F80000C00569
:10233000F6D5206A10F4407021D0A98801F44071CC
:1023400081421CD0206A1F49012220F440700A609B
:1023500000220A602062C00711D0FFF73DFD07464A
:1023600041F2883808E000BFFFF736FDC11B414548
:1023700002D90320BDE8F883206A8007F4D5206ADB
:10238000696820F44070084320621EB1E06920F0C3
:102390008050E0612878800705D56068A96820F43E
:1023A0004040084360602878C00605D560686969C8
:1023B00020F48000084360600020DBE7001002404A
:1023C00000700040400442422DE9F0470F460500EE
:1023D00061D0434E306800F00700B84209D230683F
:1023E00020F0070038433060306800F00700B84242
:1023F00051D128683B4C810712D5400703D560684E
:1024000040F4E06060602878000703D5606840F41D
:10241000605060606068A96820F0F0000843606068
:102420002878C00728D06868012810D021680228C1
:1024300010D0890700292EDA616821F003010143D9
:102440006160FFF7C9FC804641F288390DE02168E0
:102450008903EFE78901EDE7FFF7BEFCA0EB080178
:10246000494502D90320BDE8F0876068696800F03B
:102470000C00B0EB810FEFD1306800F00700B842DC
:102480000BD9306820F0070038433060306800F026
:102490000700B84201D00120E5E72878400705D5BC
:1024A0006068E96820F4E06008436060287800070D
:1024B00006D56068296920F4605040EAC100606078
:1024C00000F038F86168084AC1F30311515CC84054
:1024D0000649086006480068FFF726FE0020C2E7AC
:1024E0000020024000100240C88B00085C00002061
:1024F000540000200448054900684968044AC1F3B3
:102500000221515CC84070475C000020001002406E
:10251000D88B00080448054900684968044AC1F39B
:10252000C221515CC84070475C000020001002408E
:10253000D88B00080E4A51680E4801F00C03042B9A
:1025400011D0082B0FD10C48C1F38343C903C05CE1
:102550000AD55168084AC1F34041921E515C054AB0
:102560005043B0FBF1F07047044948437047000006
:102570000010024000127A00A68B000800093D00FE
:102580002DE9F84F040070D02078C04DC00749D025
:102590006868C0F38100012807D06868C0F3810033
:1025A000022809D16868C00306D52868800339D598
:1025B00060680028E7D035E06068B0F5803F0BD058
:1025C00010B1B0F5A02F11D0286820F48030286019
:1025D000286820F4802002E0286840F480302860D9
:1025E000606890B1FFF7F8FB06460AE0286840F4FF
:1025F00080202860F0E700BFFFF7EEFB801B642817
:1026000073D828688003F7D50CE0FFF7E5FB064692
:1026100005E000BFFFF7E0FB801B6428F0D82868C6
:102620008003F7D420789A4E80074FF001094FF0CD
:10263000000839D5686810F00C0F07D06868C0F33F
:102640008100022809D16868C00306D42868800781
:1026500014D52069012808D110E02069B0B1C6F86E
:102660000090FFF7B9FB074605E00AE1FFF7B4FB6E
:10267000C01B0228C4D828688007F7D5286861697C
:1026800020F0F80040EAC10028600DE0C6F80080A4
:10269000FFF7A2FB074604E0FFF79EFBC01B0228E2
:1026A00023D828688007F7D4207800072CD57948EC
:1026B000A169D9B1C0F80090FFF78EFB074604E08E
:1026C000FFF78AFBC01B02280FD8686A8007F7D57E
:1026D00071484FF4FA510068B0FBF1F0009000BF70
:1026E0000098411E0091FAD20EE080E0C0F8008010
:1026F000FFF772FB074604E0FFF76EFBC01B0228E2
:1027000075D8686A8007F7D42078400760D5E869F3
:102710000027C00008D4E86940F08050E861E8690B
:10272000012700F0805000905C480168C90513D46F
:102730000168834641F480710160FFF74DFB8246DA
:1027400006E000BFFFF748FBA0EB0A0064284ED864
:10275000DBF80000C005F5D5E06801280AD008B113
:10276000052813D0286A20F001002862286A20F08A
:10277000040002E0286A40F001002862E06841F2AB
:10278000883B98B1FFF728FB82460BE0286A40F0AF
:1027900004002862EEE700BFFFF71EFBA0EB0A0172
:1027A00059455AD8286A8007F6D50CE0FFF714FB84
:1027B000824605E0FFF710FBA0EB0A0159454CD813
:1027C000286A8007F6D41FB1E86920F08050E861DC
:1027D000E06988B36968C1F38101022944D0022805
:1027E000C6F8608004D0FFF7F7FA044638E034E01A
:1027F000FFF7F2FA074604E0FFF7EEFAC01B0228E3
:102800002BD828688001F7D4206AB0F5803F05D125
:102810006868A16820F4003008436860D4E90801C2
:102820000843696821F4741108436860C6F8609031
:10283000FFF7D2FA044606E025E000BFFFF7CCFA26
:10284000001B022809D828688001F7D51BE000BFCB
:10285000FFF7C2FA001B022802D90320BDE8F88F57
:1028600028688001F4D40EE00128F7D06868226A55
:1028700000F48031914204D1616A00F47010884202
:1028800001D00120EAE70020E8E700000010024044
:1028900000004242800442425C0000200070004080
:1028A00070B5040009D0606A002540B125616561FA
:1028B000A56294F8510040B10CE0012070BD606841
:1028C000B0F5827FF4D0E561F2E784F850502046FD
:1028D00000F040F8022084F851002068016821F0DF
:1028E00040010160A088218900F4827001F4044154
:1028F0000843A18901F400610843217C01F0020131
:102900000843217D01F001010843218B01F400718E
:102910000843217F01F03801084394F8201001F0AA
:1029200080010843218D01F40051084321680860AB
:10293000A069042101EA1040216848602068C1694B
:1029400021F40061C1616565012084F85100002017
:1029500070BD0000F0B585B000240094019402948D
:10296000039400681C49884234D11C48C16941F471
:102970008041C161C16901F480410491816941F0E4
:10298000080181618069164E00F0080004904FF440
:10299000304000900220032501906946039530469F
:1029A000FFF714F94FF48040CDE900046946304642
:1029B0000294FFF70BF9B71401AA0120009782E8EF
:1029C000310069463046FFF701F9012239463046A9
:1029D000FFF7FDF905B0F0BD0038004000100240DF
:1029E000000C01402DE9F84F044690F851001D46B7
:1029F00016460F46012838D160684FF00408B0F53C
:102A0000827F01D1A06830B3FFF7E6F98246002F3C
:102A100075D0002E73D094F85000012825D04FF0C7
:102A2000010984F8509084F851804FF00008C4F8F0
:102A30005480A763A687E687C4F83080A4F8348062
:102A4000A4F83680C4F84080C4F84480A068B0F58B
:102A5000004F0CD015E084F85180009313460A46CD
:102A6000204600F01CF9BDE8F88F0220FBE7206843
:102A7000016821F0400101602068016821F4804173
:102A8000016020680168490603D4016841F04001F3
:102A90000160E068C0B134E020688168C90709D0EE
:102AA000007BA16B0870A06B401CA063E08F401EF0
:102AB000E08709E0FFF790F9A0EB0A00A84202D3F3
:102AC000681C01D032E085B3E08F0028E4D11BE020
:102AD00020688168C90709D0C068A16B0880A06B15
:102AE000801CA063E08F401EE0870AE0FFF774F9C6
:102AF000A0EB0A00A84203D3681C02D016E012E043
:102B00009DB1E08F0028E3D152462946204601F0CE
:102B10006FFF08B12020606584F8519084F85080E0
:102B2000606D00289FD001209DE7FFE784F8519059
:102B300084F85080032096E72DE9F84F9846164612
:102B40008A460446FFF748F9814694F85100012867
:102B50001ED1BAF1000F73D0002E71D094F850003E
:102B6000012815D0012784F85070032084F8510003
:102B700000256565C4F830A0A686E686A563A5870E
:102B8000E58765642564A068B0F5004F03D00CE0CC
:102B90000220BDE8F88F2068016821F04001016043
:102BA0002068016841F4804101602068016849069D
:102BB00003D4016841F040010160E068B0F5006FA6
:102BC000606803D048B3012E27D047E008B1012E3A
:102BD0001FD1206B21680088C86006E020688168EA
:102BE000890709D5216B0988C160206B801C20638F
:102BF000E08E401EE0860CE0FFF7EEF8A0EB090146
:102C0000414503D3B8F1FF3F03D035E0B8F1000FE1
:102C100032D0E08E0028E1D123E0206B21680078DB
:102C2000087306E02068816889070AD5216B097856
:102C30000173206B401C2063E08E401EE0860DE097
:102C40002BE0FFF7C9F8A0EB0901414503D3B8F128
:102C5000FF3F03D010E0B8F1000F0DD0E08E002848
:102C6000E0D14A464146204601F0F0FE08B120205E
:102C70006065A06830B109E084F8517084F8505064
:102C8000032086E72068C1688068009084F851704E
:102C900004F8505F60680028F3D0012079E72DE93F
:102CA000FF4F81B01D46934604464FF001090E9E2A
:102CB000FFF792F8074694F851006168012806D0A2
:102CC000B1F5827F3CD1A168C9BB042838D10298F4
:102CD000002871D0BBF1000FFBD0002DF9D094F883
:102CE000500001282CD04FF0010A84F850A094F82D
:102CF0005100042802D0052084F851004FF000084C
:102D0000C4F85480C4F838B0E587A58702992163D8
:102D1000E586A586C4F84080C4F844802068016830
:102D2000490603D4016841F040010160E068B0F554
:102D3000006F606808D0F0B3012D49D081E0FFE753
:102D4000022005B0BDE8F08F08B1012D39D1206B0C
:102D500021680088C860206B801C2063E08E401EC4
:102D6000E0862EE02068816889070FD5E18E69B181
:102D7000B9F1010F0AD1216B0988C160206B801C59
:102D80002063E08E401EE0864FF0000920688168D5
:102D9000C9070CD0E18F51B1C068A16B0880A06B4E
:102DA000801CA063E08F401EE0874FF00109FFF711
:102DB00013F8C01B01E00BE067E0B04201D3701CC8
:102DC00050D1E08E0028CDD1E08F0028CAD13EE05E
:102DD000206B216800780873206B401C2063E08E14
:102DE000401EE0862DE02068816889070FD5E18EBE
:102DF00069B1B9F1010F0AD1216B09780173206B18
:102E0000401C2063E08E401EE0864FF000092068E1
:102E10008168C9070CD0E18F51B1C068A16B0870FF
:102E2000A06B401CA063E08F401EE0874FF00109BB
:102E3000FEF7D2FFC01BB04202D3701C01D011E0DC
:102E400086B1E08E0028CED1E08F0028CBD13A4663
:102E50003146204601F0FAFD50B12020606584F82B
:102E6000508012E084F851A084F85080032068E775
:102E7000A06818B92068C1688068009084F851A0E3
:102E800084F85080606D0028F1D0012059E710B51A
:102E9000401EB0F1807F01D3012010BD4FF0E0242F
:102EA00060610F21601702F043FE0020A06107203F
:102EB0002061002010BD000070B590F83C20012A70
:102EC0002CD0012480F83C40022280F83D20036889
:102ED0005A689D6822F070060A6832435A60104BA7
:102EE00002689A420ED00F4B9A420BD0B2F1804F3B
:102EF00008D00D4B9A4205D00C4B9A4202D00C4B95
:102F00009A4204D1496825F080031943916080F802
:102F10003D40002180F83C10084670BD022070BD85
:102F2000002C014000340140000400400008004033
:102F3000000C004010B5040003D094F83D0010B11F
:102F400007E0012010BD002084F83C00204600F07E
:102F50001FF8022084F83D00211D206802F066F869
:102F6000012084F8460084F83E0084F83F0084F88D
:102F7000400084F8410084F8420084F8430084F85B
:102F8000440084F8450084F83D00002010BD000096
:102F900008B500680649884208D10648C16941F071
:102FA0000201C161C06900F00200009008BD00008C
:102FB000000400400010024070B5044690F83C0048
:102FC0000025012817D0012684F83C60022084F8EF
:102FD0003D002068826822F0770222F47F428260FE
:102FE0000868502838D00DDC20284FD005DC90B37D
:102FF000102811D14AE0022070BD302846D0402868
:103000000AD13BE060282FD070280DD0B0F5805F4A
:1030100003D0B0F5005F12D0012584F83D60002098
:1030200084F83C00284670BDCB68D1E901212068B6
:1030300002F057F82068816841F0770109E0CB6819
:10304000D1E90121206802F04CF82068816841F440
:1030500080418160E1E719E0CA684968206802F0B0
:1030600015F95021206806E0CA684968206802F016
:103070001EF96021206802F03EF8CEE7CA68496870
:10308000206802F003F940212068F4E72268014635
:103090001046F0E700B585B0002100910191029142
:1030A000039100680B49884211D10B48816941F0B6
:1030B000040181618069694600F0040004904020A9
:1030C00000900220019003900448FEF77FFD05B0B8
:1030D00000BD000000040040001002400008014054
:1030E00070B5044690F83C0000260D4601280FD02C
:1030F000012084F83C006AB1042A1DD0082A2FD090
:103100000C2A3FD00126002084F83C00304670BDD8
:10311000022070BD206801F0F7FF2068816941F04E
:10312000080181612068816921F0040181612068C2
:1031300081692A69114311E0206802F015F82068BE
:10314000816941F4006181612068816921F48061B5
:103150008161206881692A6941EA02218161D2E79F
:10316000206802F037F82068C16941F00801C161A8
:103170002068C16921F00401C1612068C1692A6920
:10318000114311E0206802F059F82068C16941F448
:103190000061C1612068C16921F48061C16120685A
:1031A000C1692A6941EA0221C161ACE710B5040096
:1031B00003D094F83D0010B107E0012010BD0020BD
:1031C00084F83C00204600F01EF8022084F83D0000
:1031D000211D206801F02AFF012084F8460084F8B0
:1031E0003E0084F83F0084F8400084F8410084F8F1
:1031F000420084F8430084F8440084F8450084F8D1
:103200003D00002010BD704710B50446022249B1B0
:1032100004290ED0082913D094F84100012816D0B3
:10322000012010BD94F83E000128F9D184F83E2019
:103230000FE094F83F000128F2D184F83F2008E025
:1032400094F840000128EBD184F8402001E084F894
:1032500041200122206801F037FF13492068134AFA
:10326000884201D0904203D1436C43F4004343644D
:10327000206888420DD090420BD0B0F1804F08D02A
:103280000B49884205D00B49884202D00A4988423E
:1032900004D1816801F00701062903D0016841F0DB
:1032A00001010160002010BD002C014000340140EC
:1032B0000004004000080040000C004070477047C8
:1032C000F8B5016804460868CA684B6910F00F0F2A
:1032D0004FF0000559D003F0010602F49077374310
:1032E00065D0C10705D0D10503D5616C41F001015E
:1032F0006164410705D5D90703D0616C41F0020133
:103300006164810705D5D90703D0616C41F00401E0
:103310006164010707D502F02001314303D0616CDD
:1033200041F008016164616C00293AD0800604D53F
:10333000900602D5204602F0A4F920684069616C2D
:10334000C0F38010090700D460B3204602F072F980
:1033500020684069400621D52068143050E8001FDD
:1033600021F0400140E80012002AF5D1E06BA8B13D
:103370006D494163E06BFEF7E7FA002811D0E06B7E
:10338000416B01B0BDE8F040084783060FD59306B6
:103390000DD52046BDE8F84002F073B92046FFF78E
:1033A0008EFFF8BD2046FFF78AFF6564F8BD266BE7
:1033B0002023012E7CD1C6067AD5D60678D508689A
:1033C0004868009048694FF00206400640D5E16B1E
:1033D000086840680004000CE8D0A28D8242E5D95C
:1033E000E085886920282DD020680C3050E8001F27
:1033F00021F4807140E80012002AF5D120681430D1
:1034000050E8001F21F0010140E80012002AF5D128
:103410002068143050E8001F21F0400140E80012FD
:10342000002AF5D184F84230256320680C3050E83A
:10343000001F21F0100140E80012002AF5D1E06BD6
:10344000FEF75EFA6663A08DE18D401A81B22AE034
:10345000A08DE18D401A81B2E08D0028A6D0002910
:10346000A4D022680C3252E8000F20F4907042E899
:103470000007002FF5D12068143050E8002F22F00B
:10348000010240E80027002FF5D184F8423025637F
:1034900020680C3050E8002F22F0100240E8002392
:1034A000002BF5D166632046FFF708FFF8BDFFE764
:1034B00005062BD5150629D594F841002128F5D10C
:1034C000A068B0F5805F01D12069B0B1206A411CCD
:1034D0002162216800784860E08C401E0004000CE6
:1034E000E084E3D12068C16821F08001C1602068D8
:1034F000C16841F04001C160D8E7206A0088C0F38C
:1035000008004860206A801C2062E5E74006CDD5AF
:103510005006CBD5CA68204622F04002CA6084F823
:10352000413000F0F8F8C1E72556000870B50400F6
:1035300004D094F84100002510B106E0012070BDD0
:1035400084F84050204600F023F8242084F84100FD
:103550002068C16821F40051C160204602F0F2F8F1
:103560002068016921F4904101612068416921F0DE
:103570002A0141612068C16841F40051C16065645D
:10358000202084F8410084F842006563002070BD6B
:1035900070B586B0002400940194029403940368EB
:1035A0002F482E4E022103220515B34221D18369F3
:1035B00043F480438361836903F480430493836904
:1035C00043F0040383618069264E00F004000490F8
:1035D0000802CDE90001039269463046FEF7F6FA8B
:1035E000CDE90054694630460294FEF7EFFA06B082
:1035F00070BD1D4EB342FAD1C36943F48023C36149
:10360000C36903F480230493836943F01003836147
:103610008069CDE9005100F01000CDE90320134D81
:1036200069462846FEF7D2FAE814CDE90004694657
:1036300028460294FEF7CAFA0D48416821F030018D
:1036400041F0E06141F01001416000221146272065
:10365000FEF7B6FD2720FEF7A5FDC8E700380140BC
:1036600000100240000801400048004000100140E6
:103670000000014070472DE9F843044690F84100EE
:10368000984616460D46202802D00220BDE8F88351
:1036900085B17EB100206064212084F84100FEF7EE
:1036A0009BFBA6848146E684A0682027B0F5805F56
:1036B00002D003E00120E9E7206910B12E46002581
:1036C0000EE000260CE08021204602F097F8A8B911
:1036D000C6B116F8010B21684860E08C401EE084FA
:1036E000E08C4B464FF00002CDF800800028EAD174
:1036F0004FF04001204602F081F840B184F841705B
:103700000320C3E735F8020BC0F30800E3E784F8B1
:1037100041700020BAE77047FEE701684A69D2436A
:1037200052050FD46FF480624A61002140F8301FC7
:10373000202242738173026942F004020261017324
:103740000120704700207047F8B50446C06A1E4645
:103750000D461746082807D0012805D010F5803FF0
:1037600002D0206B122804D12068016841F48071D6
:103770000160134600224FF001112046009600F030
:103780005DF840B120680068C00502D54FF40070B4
:1037900020640320F8BD2069B0F5804F0ED00620CC
:1037A000216800EAD51040F0F000086133463A463F
:1037B0000B49204600F08AF878B902E005F0FE00D7
:1037C00000E0E8B221680861054933463A46891F9E
:1037D000204600F07BF80028DCD00120F8BD000076
:1037E0000800010070B516460D4604461EE020464E
:1037F000FFF793FF08B1012070BD681C16D0FEF7DB
:10380000EBFA801BA84200D885B920684069C04304
:1038100040070BD5002044F8300F20216173A073BE
:10382000216941F0200121612073E4E720684069AB
:10383000C0434007DBD4002070BD00002DE9F047F5
:10384000984617460D460446C1F30746DDF820901A
:103850002AE000BFB8F1FF3F26D0FEF7BDFAA0EB8B
:103860000901414502D8B8F1000F1DD12068012E91
:1038700016D0806925EA00000004000C12D0002058
:10388000B84211D1002044F8300F20216173A07399
:10389000216941F02001216120730120BDE8F087FA
:1038A0004069E7E70120EBE72068012E0AD0806934
:1038B00025EA00000004000C06D00020B842C9D060
:1038C0000020EBE74069F3E70120F7E72DE9F04737
:1038D000984616460D4604464FF000094FF0200A60
:1038E000C1F3074723E020684069C043400515D471
:1038F0002068016841F40071016021686FF4806004
:103900004861C4F8309084F83DA084F83E90216C62
:1039100041F00401216484F83C9021E0701C06D041
:10392000FEF75AFAA0EB0800B04203D816B1012FF7
:103930001FD021E02068012F15D0806925EA000002
:103940000004000C18D000BF44F8309F84F80DA08C
:1039500084F80E90216941F02001216184F80C90D7
:103960000120BDE8F087406925EA00000004000C52
:10397000EAD12068406901E02068806925EA0000FA
:103980000004000CAFD1ECE770B516460D460446B6
:103990001EE02046FFF7C1FE08B1012070BD681C83
:1039A00016D0FEF719FA801BA84200D885B9206806
:1039B0004069C04300060BD5002044F8300F202199
:1039C0006173A073216941F0200121612073E4E754
:1039D00020684069C0430006DBD4002070BD0000B1
:1039E000FEB500241B48009401941949029401601B
:1039F00089158160012505730475032606614FF45E
:103A000060214460C161FDF713FE08B1FDF7B0FC11
:103A100005200094CDE9015069460E48FDF718FDD8
:103A200008B1FDF7A5FC0224CDE900546946094818
:103A3000FDF70EFD08B1FDF79BFCCDE90046694698
:103A40000448FDF705FD002801D0FDF791FCFEBDFF
:103A500000240140C0050020054808B5416941F037
:103A600001014161406900F00100009008BD0000C3
:103A7000001002402DE9F04F85B000256648009502
:103A8000019502950395816941F010018161816979
:103A900001F010010491816941F020018161816987
:103AA00001F020010491816941F004018161816983
:103AB00001F004010491816941F00801816180698C
:103AC000DFF858B100F0080004900122CF215846D9
:103AD000FEF77DF941F2B807012239465048FEF75A
:103AE00076F94FF4006A002251464D48FEF76FF90F
:103AF000012204214B48FEF76AF9012218214A48A5
:103B0000FEF765F9DFF824814FF4C040CDE90008E5
:103B10000124694602945846FEF758F8CF20CDE9B3
:103B200000040326CDE9024669465846FEF74EF8E2
:103B3000CDE90074CDE9024669463948FEF746F8FA
:103B40004FF44C7002278DE8A10069465846FEF7F5
:103B50003DF840F603408DE8A10069463248FEF783
:103B600035F84FF48079CDF80090CDE901576946DA
:103B70002B48FEF72BF8CDF800A00396CDE90147BE
:103B800069462748FEF722F8E003CDE900086946B8
:103B900002942348FEF71AF8200300902448CDE948
:103BA000010469465846FEF711F80420CDE90004E7
:103BB000CDE9024669461B48FEF708F81820CDE912
:103BC0000004CDE9024669461748FDF7FFFF4FF4B0
:103BD0000870CDE90008694602941348FDF7F6FF26
:103BE000CDF80090CDE9018569460F48FDF7EEFF5D
:103BF000002204211720FEF7E3FA1720FEF7D2FA7D
:103C0000002204212820FEF7DBFA2820FEF7CAFA5A
:103C100005B0BDE8F08F0000001002400010014028
:103C20000008014000140140000C01400000311068
:103C3000000021100D4810B50B4901600C4941608E
:103C400000214FF480428160C0E90312416181612B
:103C5000C1610162FEF7C6F8002803D0BDE810403C
:103C6000FDF786BB10BD0000005400403406002064
:103C7000A08601000F4810B50D4901604FF4827114
:103C8000416000218160C1604FF400720161C0E9B0
:103C90000512C1610162416281620A21C162FEF7BF
:103CA000FFFD002803D0BDE81040FDF761BB10BD4B
:103CB000003800408806002010B58EB0002407941C
:103CC000089409940A940B941C2168460C94FCF700
:103CD00076FA1E481C4901602321C0E901146321C2
:103CE000C0E903148461FFF725F908B1FDF740FB33
:103CF0004FF48050079007A91448FFF75DF908B109
:103D0000FDF736FB1148FFF751FA08B1FDF730FB1C
:103D10000B940BA90D480C94FFF7CEF808B1FDF7F2
:103D200027FB602000903220CDE901040022694683
:103D300006480494FFF7D4F908B1FDF719FB0348CE
:103D4000FFF7A8F90EB010BD00040040E006002007
:103D50000C4810B50A4901604FF4E131416000217F
:103D600081600C22C160C0E904128161C161FFF76A
:103D7000DDFB002803D0BDE81040FDF7F9BA10BD07
:103D800000380140280700200C4810B50A4901609E
:103D90004FF4E1314160002181600C22C160C0E933
:103DA00004128161C161FFF7C1FB002803D0BDE8A7
:103DB0001040FDF7DDBA10BD00480040700700203C
:103DC000FEE7FEE74FF480610148FCF7F8B9000018
:103DD0007000002070B588B1012812D002280CD1E3
:103DE00006240725084E00BF06EBC4108021FCF70F
:103DF000E6F9641CE4B2AC42F6D970BD002401259A
:103E0000F0E702240525EDE7700000202DE9FC4FC6
:103E100006469A4690460F46941B00D56442BAEB7C
:103E2000070000D5404281464FF0FF30464501D2A1
:103E3000012100E001460191574500D20120A4EB89
:103E40000905C9F1000B009001223946304600F007
:103E500019F8464501D1574511D0680000B25845C0
:103E600005DDA5EB09010DB201993144CEB2A042A6
:103E7000EADA281905B200983844C7B2E4E7BDE889
:103E8000FC8F000010B580280FD240290DD2CB083E
:103E900000EBC313054C012001F007018840E15CF1
:103EA0000AB1014300E08143E15410BD70000020DD
:103EB0002DE9F047804608981E4617468A46B8B155
:103EC000002511E000240AEB050909E008EB0400D5
:103ED00009F0FF01C0B20122FFF7D4FF641CE4B275
:103EE000BC42F3D36D1CEDB2B542EBD3BDE8F08715
:103EF00008EB0204641E4046E2B20B46FFF786FF61
:103F00000AEB06056D1EEBB2E2B2E9B24046FFF7DE
:103F10007DFF4246EBB251461046FFF777FFEBB20A
:103F2000E2B2E0B25146BDE8F047FFF76FBF0000D4
:103F300010B52EA001F0D2FD6420FDF713FEAE20D7
:103F400002F0C6FFD52002F0C3FF802002F0C0FFC0
:103F5000A82002F0BDFF3F2002F0BAFFD32002F0FC
:103F6000B7FF002002F0B4FF402002F0B1FF8D2027
:103F700002F0AEFF142002F0ABFF202002F0A8FFF9
:103F8000002002F0A5FFA12002F0A2FFC82002F04D
:103F90009FFFDA2002F09CFF122002F099FF81209F
:103FA00002F096FFCF2002F093FFD92002F090FF9D
:103FB000F12002F08DFFDB2002F08AFF402002F0AA
:103FC00087FFA42002F084FFA62002F081FFAF202B
:103FD00002F07EFF4FF480610D48FCF7F0F800F02E
:103FE0002BF80CA001F07AFD012010BD5B4F4C4571
:103FF000445D20496E697469616C697A696E6720F5
:10400000646973706C61792E2E2E0D0A0000000019
:10401000700000205B4F4C45445D20496E69746917
:10402000616C697A6174696F6E20636F6D706C6525
:1040300074650D0A000000002DE9F0478AB02120C8
:1040400002F046FF002002F043FF7F2002F040FF15
:10405000222002F03DFF002002F03AFF072002F08C
:1040600037FF144F4FF4806600240DF104084FF021
:1040700040094FF0640A301B202800DD202085B263
:104080008DF8049039192A4608F10100FCF77EF8F2
:10409000681C83B201AA78210748CDF800A0FDF77B
:1040A00065FF002803D1601984B2B442E3D30AB09B
:1040B000BDE8F0877000002034060020F0B5A2F1C2
:1040C00020065F2E23D2204DF4B200EBC11753B16E
:1040D000012B1CD13A2E1CD9A2F17B03032B17D83C
:1040E000403AD4B215E0082911D280280FD2174BDC
:1040F00004EB4402002103EB42024318802B02D25E
:104100007C18535C2B55491CC9B20629F5D3F0BD68
:1041100000244A1C082AFAD28028F8D2C9010022B9
:104120000B4B80310E1803EB04118318802B06D241
:10413000BC188B5C2B558B18B4181B7A2B55521C52
:10414000D2B2082AF1D3F0BD70000020B47C000880
:10415000EE7E00082DE9F041FFF734FEDFF84080E5
:104160000024002508EB041704F1120607EBD50024
:1041700005F007010078C1F10701C84000F0010215
:10418000F1B22846FFF77EFE6D1CEDB2802DEDD317
:10419000641CE4B21B2CE4D3BDE8F041FFF74CBF34
:1041A000DE8200082DE9F041DFF84480002500247C
:1041B000C5EB051705F10A0607EBD40101EB080072
:1041C00004F007018079C1F10701C84000F0010245
:1041D000A01DF1B2C0B2FFF755FE641CE4B2732C0F
:1041E000EAD36D1CEDB21B2DE1D3BDE8F0810000D8
:1041F0008E8400083EB50446642800D964244FF438
:1042000080711848FBF7DBFF0020009008236C2228
:1042100028210A20FFF74CFE6A2060436421B0FB8E
:10422000F1F010F0FF0206D00120009006232921B2
:104230000B20FFF73DFE23460BA2082101A801F049
:104240005DFC01A8FBF7C6FFA0EB8000802101EB1D
:104250004000C0F34700002301AA062100F008F83F
:104260003EBD0000F002002025642525000000006E
:104270002DE9F0411F46154688460446012B01D022
:1042800006260BE0082609E0802C0AD23B46414670
:104290002046FFF713FFA019C4B26D1C2A78002A2C
:1042A000F2D1BDE8F08170472DE9F041204E05467E
:1042B00096F81C01002803D0681E032802D30020B2
:1042C000BDE8F081C0B2C0EBC00101EB001006EB0D
:1042D0008004A07D012825D0022823D094F8360040
:1042E00001281FD002281DD0294612A001F0F6FB9C
:1042F0002046002102F012FE04F12000002102F00D
:104300000DFE002704F84E7F0220607039462846D3
:10431000FCF7E4FF96F81401A84201D186F8147165
:104320000120CDE729460AA001F0D8FBC7E700002D
:10433000700400205B52656C61795D20436C6F7383
:10434000696E6720434825642E2E2E0D0A0000005A
:104350005B52656C61795D20434825642069732058
:10436000627573790D0A00002DE9F04119A001F082
:10437000B5FB0025264F2E46C5EBC50000EB05100A
:1043800007EB8004A07D012820D002281ED094F8DD
:10439000360001281AD0022818D02046002102F049
:1043A000BDFD04F12000002102F0B8FD04F84E6FBD
:1043B000691C667017A000BF01F090FB6D1CEDB288
:1043C000032DD9D387F81461BDE8F081691C1AA0C8
:1043D000F2E700005B52656C61795D20466F7263A5
:1043E0006520636C6F73696E6720616C6C20636815
:1043F000616E6E656C732028706F7765722D6F6EBD
:10440000207265736574292E2E2E0D0A000000009F
:10441000700400205B52656C61795D20434825641F
:1044200020666F726365204F46462070756C736519
:104430002073656E740D0A005B52656C61795D20B6
:104440004348256420627573792C20736B69702052
:10445000666F72636520636C6F73650D0A00000000
:10446000014890F81401704770040020004870471C
:10447000700400202DE9F0474FF490716448FBF779
:104480009EFE6448624C4FF0010902232060A4F8AC
:104490000490A060A38110272061A7825E49821446
:1044A0002162A2844FF00808A162A4F82C805B4A24
:1044B0002263A38685152164A4F844504FF4007C40
:1044C000A264A4F84CC00423E065A4F860306066E0
:1044D000A4F868804FF02008E066A4F87080E167D7
:1044E000A4F88070C4F88410A4F888800715C4F874
:1044F0008C20A4F89070C4F89C00A4F8A0C0C4F864
:10450000A420A4F8A8508027C4F8B800A4F8BC7070
:104510004FF0400CC4F8C000A4F8C4C04E46C4F824
:10452000C820A4F8CC603E4EC4F8D860A4F8DC30B3
:10453000C4F8E010A4F8E470C4F8E820C214A4F8A9
:10454000EC20C4F8F8001001A4F8FC50C4F80011E5
:104550000026A4F8040198464FEA0607C6EBC601F8
:1045600001EB061204EB820585F816802F7785F89B
:10457000368085F83C7085F84E7085F84F7054F899
:104580002200A9880122FDF722FCA9890122A8683E
:10459000FDF71DFCA98C0122286AFDF718FCA98DE6
:1045A0000122A86AFDF713FC761C032ED6DB84F8E3
:1045B0001471FDF711FC0025C4F81801C5EBC50006
:1045C00000EB051004EB800686F85070776586F8DE
:1045D0005A7056F8480FB188FDF7F4FB30746D1C23
:1045E0007774032DEADB84F81C910EA001F076FAB3
:1045F00014A001F073FA4FF4FA711FA001F06EFAE3
:10460000BDE8F0470322322122A001F067BA000082
:10461000700400200010014000080140000C01401F
:10462000001401405B52656C61795D204D6F6475CB
:104630006C6520696E697469616C697A65640D0ADC
:10464000000000005B52656C61795D20416C6C205C
:104650006368616E6E656C7320636C6F7365642054
:1046600028696E7465726C6F636B20656E61626C35
:104670006564290D0A0000005B52656C61795D205C
:1046800050756C73652077696474683A2025646D91
:10469000730D0A005B52656C61795D204465626F41
:1046A000756E63653A2025646D732078202564203B
:1046B00074696D65730D0A00401E032812D2C0B2E2
:1046C000C0EBC00101EB0011084800EB8101887DBF
:1046D000012809D0022807D091F83600012803D01C
:1046E000022801D00020704701207047700400208C
:1046F00010B5044C012084F85000FDF76DFB606597
:1047000010BD00007004002010B5044C012004F816
:10471000AC0FFDF761FB606010BD0000700400206D
:1047200010B5044C012084F80801FDF755FBC4F8CE
:104730000C0110BD7004002070B5224E054696F89D
:104740001C01002836D0681E032838D296F81411B0
:10475000C0B231B1A94204D02A461BA001F0BEF973
:104760002DE0C0EBC00101EB001006EB8004A07D42
:10477000012820D002281ED094F8360001281AD033
:10478000022818D029461EA001F0A8F920460121D0
:1047900002F0C4FB04F12000012102F0BFFB012064
:1047A00004F84E0F0146607086F814512846FCF755
:1047B00095FD012070BD294618A001F08FF9002059
:1047C00070BD0000700400205B52656C61795D2053
:1047D000496E7465726C6F636B3A204348256420A0
:1047E0006973206163746976652C2063616E6E6FF6
:1047F00074206F70656E20434825640D0A00000028
:104800005B52656C61795D204F70656E696E6720E3
:10481000434825642E2E2E0D0A0000005B52656C65
:1048200061795D204348256420697320627573793E
:104830000D0A00002DE9F05F564E96F81C01002885
:1048400071D000254FF0010B4FEA050AC5EBC500FA
:1048500000EB051006EB800000F150048146B0F833
:104860004C70D0F84880207808B1A07A18B1A07AAE
:1048700001280BD02BE039464046FDF7A3FA6072C1
:1048800084F80AB0FDF7A8FA606020E0FDF7A4FA0A
:104890006168401A64281AD339464046FDF792FAF7
:1048A000617A0746B9420ED1207AB8420BD01FB3C5
:1048B00020213948FDF786FA20B36A1C691C374865
:1048C00001F00CF9277284F800A084F80AA06D1C8E
:1048D000032DBBDB5FF00000C0EBC00101EB00115A
:1048E00006EB810292F84F1059B382F84FA00129CC
:1048F0000FD0022920D024E06A1C89F84FB0691C2F
:1049000027A0DDE7022189F84F106A1C691C2DA041
:10491000D6E720B1012807D0022809D011E00120F4
:10492000FFF70AFF2BE025E00220FFF705FF2BE051
:104930000320FFF701FF07E0F0B1012821D0022892
:1049400024D0401C0328C7DB5FF00004C4EBC40084
:1049500000EB041006EB8000054602F003FB05F1B6
:10496000200002F0FFFA641C032CEFDBFDF734FAA1
:10497000C6F81801BDE8F09F0120FFF795FC012063
:10498000AAE70220FFF790FC0220A5E70320FFF72B
:104990008BFCD9E770040020000C0140E08B00087C
:1049A0005B4953525D204B25645F454E204C4F5769
:1049B000202D3E206F70656E696E67204348256428
:1049C0000D0A00005B4953525D204B25645F454E44
:1049D0002048494748202B204443204F4B202D3E60
:1049E00020636C6F73696E6720434825640D0A006D
:1049F000F8B5044640684FF48273984217D1A06816
:104A00004FF48065B0F5004F01D0A8420FD1206867
:104A1000066826F0400606606068984207D1A068E4
:104A2000A84204D100920B460022012103E000922B
:104A30000B4600228021204600F022F8002804D0F6
:104A4000606D40F0200060650320F8BDF8B51546A4
:104A50000E460B46009204460122022100F010F897
:104A600040B93346002280212046009500F008F826
:104A7000002804D0606D40F0200060650320F8BD80
:104A80002DE9F8431E46914688460446089DFDF7E9
:104A9000A3F9401B351AFDF79FF907462548006822
:104AA000C0F3CB30684338E0701C37D0FDF794F981
:104AB000C01BA84203D215B1009860B32CE0206857
:104AC000416821F0E00141606068B0F5827F0BD160
:104AD000A068B0F5004F02D0B0F5806F04D1206817
:104AE000016821F040010160A06AB0F5005F09D1C2
:104AF0002068016821F4005101602068016841F4D8
:104B000000510160012084F85100002084F8500019
:104B10000320BDE8F8830025401E009020688168CE
:104B200038EA010004D000214945BDD10020F0E75A
:104B30000121F9E75C00002070474FF40050FBF7BB
:104B4000B7BF00000348012101700021417002A09D
:104B500000F0C4BF000000205B5361666574795D9E
:104B6000204D6F64756C6520696E697469616C694C
:104B70007A65640D0A0000004FF40050FCF734B869
:104B80002DE9F0413F480078002879D03E4E4FF49F
:104B900000713046FDF716F98046B1153046FDF735
:104BA00011F905464FF400413848FDF70BF904466A
:104BB0000020B8F1000F00D1012005B9401C04B954
:104BC000401C02284FF0010002D3FCF70DF801E071
:104BD000FBF76EFFFFF74AFC07460120FFF76CFD6D
:104BE000A8B90220FFF768FD88B90320FFF764FD2C
:104BF00068B997F8500050B997F8AC0038B997F8F1
:104C0000080120B922462946404602F0EFF900206B
:104C100000F0BAFB4FF480610228084622D0FBF76F
:104C200047FF012000F0B0FB4FF400610228084666
:104C30001CD0FBF73DFF022000F0A6FB4FF4805193
:104C40000228084615D0FBF733FF20213046FDF738
:104C5000B9F84FF48041012808460DD0BDE8F04175
:104C6000FBF726BFFBF7C0FFDBE709E0FBF7BCFF64
:104C7000E1E7FBF7B9FFE8E7BDE8F041FBF7B4BFB8
:104C8000BDE8F08100000020000C01400008014058
:104C90000448C17B21B10078002800D00120704772
:104CA000002070479005002010B5154C207C08B1FD
:104CB00014A100E015A117A000F010FF607A08B160
:104CC00010A100E011A119A000F008FFA07A08B11E
:104CD0000CA100E00DA11DA000F000FFE07A08B1DA
:104CE00008A100E009A121A000F0F8FE207B08B196
:104CF00004A100E005A1BDE8104024A000F0EEBE34
:104D00009005002050415353000000004641494C9B
:104D1000000000005B53656C66546573745D20523F
:104D20006573756C743A2025730D0A002020537446
:104D3000657031205374617465204964656E7469CF
:104D40006679203A2025730D0A0000002020537454
:104D50006570322052656C617920436F72726563B1
:104D60007420203A2025730D0A000000202053747F
:104D70006570332053776974636820436865636B9B
:104D80002020203A2025730D0A00000020205374B3
:104D90006570342054656D7020436865636B202016
:104DA0002020203A2025730D0A00000010B51421A0
:104DB0000748FBF704FA0648FF2181730121C173FC
:104DC00004A000F08BFEBDE81040012002F0F2B913
:104DD000900500205B53656C66546573745D2053C9
:104DE00074617274696E672073656C662D74657387
:104DF000742073657175656E63652E2E2E0D0A0025
:104E00002DE9F0474F4DE87B00287BD0287800281B
:104E100078D0FCF7E1FF69680126441A28784FF43E
:104E2000FA7740F2DC594FF0000808286AD2DFE830
:104E300000F06904091525314B6BB4F5FA6F61D3A5
:104E400002203DE0214602F087FC287A10B92E723C
:104E500002F0B2FABC4255D3032031E0214602F001
:104E60007BFC287A10B92E7202F00EFBB4F5487F55
:104E700048D302F0A3FCA872042021E0214602F0EE
:104E80006BFC287A10B92E7202F0B8FBBC4239D301
:104E9000052015E0214602F05FFC287A10B92E7239
:104EA00002F00AFCB4F52F7F2CD3687A38B1A87AC7
:104EB00028B1E87A18B1287B08B1062000E0072065
:104EC000BDE8F04702F076B9287AB8B92E722E7490
:104ED000FFF733FEFEF776FF01231BA200211C2003
:104EE000FFF7C6F901231BA204213020FFF7C0F908
:104EF000FFF7A2F800E005E018A01EE04C4501D342
:104F000085F80080BDE8F087287A0028F6D12E7257
:104F100085F81080FFF730FEFEF754FF01230AA248
:104F200000211C20FFF7A4F9012315A20421302041
:104F3000FFF79EF9FFF780F813A000F0CFFDFFF711
:104F4000B3FEDBE79005002053454C462D544553F6
:104F50005400000050415353000000005B53656C47
:104F600066546573745D202A2A2A2053454C4620D6
:104F7000544553542050415353202A2A2A0D0A00E5
:104F80004641494C000000005B53656C66546573F4
:104F9000745D202A2A2A2053454C462054455354F8
:104FA000204641494C202A2A2A0D0A00FDF7A2B8C2
:104FB00030B595B028216846FBF701F914210AA8FD
:104FC000FBF7FDF818210FA8FBF7F9F801210804F9
:104FD000CDE900100025029502240491CDE9074097
:104FE0004FF4E01009906846FDF7CAFA08B172B6AE
:104FF000FEE70AA90F2081E831004FF48060CDE977
:105000000D0502210AA8FDF7DFF908B172B6FEE727
:105010004FF4004011900F940FA8FDF75FF900289E
:1050200001D072B6FEE715B030BD7047F0B502682A
:10503000204C214D214E224F224B4FF0804CA0425C
:1050400009D0984207D0604505D0A84203D0B042AD
:1050500001D0B84204D122F0700E4A6842EA0E0232
:10506000A04209D0984207D0604505D0A84203D09D
:10507000B04201D0B84203D122F44075CA682A4335
:105080004D6922F080022A4302608A68C2620A687F
:105090008262A04201D0984201D1096901630121D5
:1050A00041610169C90703D0016921F00101016172
:1050B000F0BD0000002C014000040040000800404A
:1050C000000C00400034014010B501F01F03012125
:1050D000046A99408C430462016A9A401143016258
:1050E00010BD10B5846842EA032224F47F440A43C9
:1050F0002243826010BD826822F070020A4342F0AF
:105100000701816070470000F0B5036A026A22F06F
:105110000102026242688469124E24F073050C6831
:105120002C4323F002058B682B430D4DA84201D080
:10513000B04205D123F00807CB683B4323F00403BA
:10514000A84201D0B04205D14D6922F44072154306
:105150008A692A4342608461496841630362F0BD01
:10516000002C014000340140F0B5026A036A23F0CC
:1051700010030362436884690D6824F4E64444EA3A
:1051800005248D6822F0200242EA05120F4D104ED0
:10519000A84201D0B04206D1CF6822F0800242EA94
:1051A000071222F04002A84201D0B04207D14D6957
:1051B00023F4406343EA85038D6943EA8503436032
:1051C0008461496881630262F0BD0000002C0140E7
:1051D00000340140F0B5026A036A23F4807303626D
:1051E0004368C46922F4007224F073050C68124EFF
:1051F0002C438D6842EA05220E4DA84201D0B042F0
:1052000006D1CF6822F4006242EA072222F48062CB
:10521000A84201D0B04207D14D6923F4405343EA7C
:1052200005138D6943EA05134360C4614968C1638E
:105230000262F0BD002C01400034014030B5046A28
:10524000026A22F4805202624268C3690D6823F444
:10525000E64343EA05238D6824F4005444EA053408
:10526000084DA84202D0084DA84204D14D6922F44D
:10527000804242EA85124260C36149680164046267
:1052800030BD0000002C01400034014010B5036A1D
:10529000046A24F001040462846924F0F00444EAFE
:1052A000021423F00A020A438461026210BD10B5A1
:1052B000036A046A24F010040462846923F0A003E2
:1052C00024F4704444EA023243EA0111826101622B
:1052D00010BD000070B50120FFF7EEF91A4C002553
:1052E00038B90220FFF7E8F918B90320FFF7E4F90D
:1052F00008B1656070BD60686560C0EB0010400477
:10530000010C114B2078103323F810100321401C9E
:10531000B0FBF1F201FB120020706078032801D28B
:10532000401C607000210846627804E033F81040A9
:10533000401C2144C0B214469042F7D3B1FBF4F0B4
:105340000249888270BD000004000020A4050020EE
:1053500010B5FCF741FD0549CA68821A042A03D337
:105360004A68521C4A60C86010BD0000040000205A
:105370000148808A70470000A40500200148807C15
:1053800070470000A4050020032803D20249084406
:10539000807D704700207047A405002010B5064BA3
:1053A00008B19C89048009B1D8890880002A01D0FD
:1053B000188A108010BD0000A405002070B51A21C5
:1053C0001C48FAF7FCFE1C48FBF7D4FF03221B49DC
:1053D0001948FCF70FFA08B119A027E0002120486E
:1053E000FDF712FF08B11FA020E0124C3220A0747C
:1053F00000F0B8F801206076224D0020A08268609D
:10540000FCF7EAFCA86020A000F068FB032127A0BD
:1054100000F064FBA17C31A000F060FBA62139A064
:1054200000F05CFB414800F059FB41A0BDE8704032
:1054300000F054BBA4050020C00500201A00002085
:105440004552524F523A204144432B444D41207320
:1054500074617274206661696C65640D0A000000F5
:10546000E00600204552524F523A2054494D332015
:1054700050574D207374617274206661696C656465
:105480000D0A0000040000205B54656D70657261B8
:10549000747572655D204D6F64756C6520696E6909
:1054A0007469616C697A65640D0A00005B54656D0E
:1054B00070657261747572655D204144432B444D83
:1054C00041207374617274656420666F7220256474
:1054D000206368616E6E656C730D0A005B54656DC8
:1054E00070657261747572655D2046616E205057FB
:1054F0004D20737461727465642061742025642585
:10550000250D0A005B54656D706572617475726576
:105510005D204C6F6F6B7570207461626C653A2012
:10552000256420706F696E74730D0A00B48C0008D6
:105530005B54656D70657261747572655D2046615E
:105540006E2052504D206D6561737572656D656E8C
:105550007420656E61626C65642028504331322985
:105560000D0A0000642800D96420064988740649A1
:105570000A68D16A491C48436421B0FBF1F05063CA
:1055800070470000A4050020E00600202DE9F04748
:105590001E4D687E002837D0FCF71EFC1C4E0446CA
:1055A000B068201AB0F57A7F02D3FFF793FEB4609B
:1055B000184E194FDFF86480DFF86490002400BFB4
:1055C00036F8140025F81400FAF7DCFE3946FAF72D
:1055D00060FE4146FAF78FFE01F000F901F038FC59
:1055E0004946FAF756FEFAF7D2FE05EB44018881E8
:1055F00035F81400641CC880032CE1DB02F0B0FA1B
:10560000BDE8F04702F04AB9BDE8F087A4050020E4
:10561000040000201A0000203333534000F07F457F
:105620000000204110B5406A0021C185C184FDF70A
:1056300046FE10BD01680C3151E8002F22F4907233
:1056400041E80023002BF5D10168143151E8002F07
:1056500022F0010241E80023002BF5D1016B012962
:1056600009D101680C3151E8002F22F0100241E805
:105670000023002BF5D1202180F842100021016386
:10568000704708B590F84210222901D0022008BDC9
:1056900082684FF480539A4201D1016921B1816A35
:1056A0009A421BD04AB10AE00268816A5268C2F38A
:1056B00008020A80816A891C08E0026972B10268E6
:1056C000526802F07F020A70816A491C8162C18DB2
:1056D000491E0904090CC18503D01BE00268526809
:1056E000F1E70168CA6822F02002CA600168CA684E
:1056F00022F48072CA6001684A6922F001024A619C
:10570000202180F8421000214163026B012A03D05E
:10571000FDF7B0FF002008BD016301680C3151E8BE
:10572000002F22F0100241E80023002BF5D1016880
:105730000A68D20602D50A6849680091818DFDF792
:10574000BDFDE7E770B5044600680169E26821F431
:105750004051114301612169A06808436169084310
:105760002168CA6841F20C639A430243CA60206808
:105770004169A26921F44071114341611E492068C9
:10578000884202D1FCF7C6FE01E0FCF7B3FE00EB55
:10579000C00101EB0012606864218000B2FBF0F3ED
:1057A000B3FBF1F36FF018067343B2FBF0F5B2FBF5
:1057B000F0F605EB8305322303EB0515B5FBF1F598
:1057C000B6FBF1F605F0F00505EB0615B2FBF0F6B9
:1057D000B2FBF0F0B0FBF1F06FF01802504306EBB3
:1057E000800003EB0010B0FBF1F0216800F00F0027
:1057F0002844886070BD0000003801402DE9F8435E
:10580000984617460D460446089E24E0701C22D098
:10581000FCF7E2FAA0EB0800B0421AD8CEB120683B
:10582000C168490717D5802D15D0402D13D00168C8
:10583000C94309070FD4016800254068009020463D
:10584000FFF7F8FE0820606484F840500120BDE8AE
:10585000F8830320FBE72068006835EA000004D0E5
:105860000020B842D2D00020F1E70120F9E7000083
:105870000148FDF725BD000070070020FEE700008D
:105880007CB517A0174D00680190002002464FF428
:105890008054009021462846FCF799FA0422694674
:1058A00001A801F06FFC00284FF0010221462846B4
:1058B00003D0FCF78CFA01207CBDFCF788FA9DF838
:1058C0000100EF2807D19DF80200402803D19DF880
:1058D0000300182801D003207CBD00207CBD0000FF
:1058E0009FFFFFFF000C014070B5C2B014460E00D0
:1058F000054606D02CB1B4F5807F02D801F022FC19
:1059000010B1012042B070BD02208DF80000280CBB
:105910008DF80100280A8DF802008DF80350002050
:10592000694604E0325C0B18401C1A7180B2A04238
:10593000F8D30E4E4FF48055002229463046FCF72E
:1059400046FA241DA1B2684601F02AFC00284FF057
:1059500001022946304602D0FCF739FAD1E7FCF7BC
:1059600036FA0A2000F084F8CCE70000000C014071
:105970002DE9F05F5FEA0109054614464FF0000883
:1059800004D04FF4807B4FF4805A9CBB0120BDE8CB
:10599000F09F5E46B44200D8A6B206EB8607322FCF
:1059A00000D232271548032100220170290C4170D2
:1059B000290A8170C57051461148FCF708FA042184
:1059C0000E4801F0EDFB38B909EB08013B463246C1
:1059D0000C48FDF707F828B1012251460848FCF7AA
:1059E000F6F9D3E7012251460548FCF7F0F9B04437
:1059F000A41B3544002CCCD10020C8E72000002097
:105A0000000C01408806002070B5044601F09AFBA6
:105A100008B1012070BD1448210B20220903027037
:105A20000A0C4270090A81700021C1700F4D0A46AC
:105A30004FF4805421462846FCF7C9F904210A484E
:105A400001F0AEFB00284FF001022146284602D0AB
:105A5000FCF7BDF9DDE7FCF7BAF9BDE870404FF49B
:105A6000FA7000F005B8000020000020000C014092
:105A70002DE9FC410746FCF7AFF9044615A0164D89
:105A800000684FF480560090002231462846FCF70B
:105A90009EF9022201A9684601F074FB00284FF02C
:105AA00001023146284604D0FCF791F90120BDE8F7
:105AB000FC81FCF78CF99DF80500C007F7D0FCF7D6
:105AC0008BF9001BB84201D30220F0E70120FCF75C
:105AD00049F8D9E705FF0000000C01400FB4054B61
